:020000040800F2
:100000008806002029020008ED030008B503000857
:10001000E9030008D9020008910A00080000000066
:10002000000000000000000000000000A90500081A
:10003000DD020008000000007D040008BD06000885
:10004000430200084302000843020008430200087C
:10005000430200084302000843020008430200086C
:10006000430200084302000843020008430200085C
:10007000430200084302000843020008430200084C
:10008000430200084302000843020008430200083C
:10009000430200084302000843020008430200082C
:1000A000430200084302000843020008430200081C
:1000B000430200084302000843020008430200080C
:1000C00043020008430200084302000843020008FC
:1000D0004302000891070008430200084302000899
:1000E00043020008430200084302000843020008DC
:1000F00043020008430200084302000843020008CC
:1001000043020008430200084302000843020008BB
:1001100043020008430200084302000843020008AB
:10012000430200084302000843020008430200089B
:10013000430200084302000843020008430200088B
:10014000430200084302000843020008430200087B
:10015000430200084302000843020008430200086B
:10016000430200084302000843020008430200085B
:10017000430200084302000843020008430200084B
:10018000430200084302000800F002F800F03CF8C7
:100190000AA090E8000C82448344AAF10107DA45E2
:1001A00001D100F031F8AFF2090EBAE80F0013F0F8
:1001B000010F18BFFB1A43F0010318475C09000048
:1001C0007C090000103A24BF78C878C1FAD85207D9
:1001D00024BF30C830C144BF04680C6070470000C1
:1001E0000023002400250026103A28BF78C1FBD840
:1001F000520728BF30C148BF0B6070471FB500F0E1
:100200007DFC1FBD10B510BD00F033F81146FFF79F
:10021000F5FF00F041FC00F051F803B4FFF7F2FFE6
:1002200003BC00F037FC000009488047094800473C
:10023000FEE7FEE7FEE7FEE7FEE7FEE7FEE7FEE796
:10024000FEE7FEE704480549054A064B70470000F3
:10025000290700088901000888000020880600207E
:10026000880200208802002070477047704770475E
:100270007047754600F02CF8AE46050069465346B7
:1002800020F00700854618B020B5FFF7DBFFBDE87A
:1002900020404FF000064FF000074FF000084FF0ED
:1002A000000B21F00701AC46ACE8C009ACE8C0097E
:1002B000ACE8C009ACE8C0098D46704710B50446EB
:1002C000AFF300802046BDE81040FFF7A6BF000056
:1002D000004870472400002000BFFEE77047F0B5DB
:1002E0000A4600210023002400BF3DE0012505FA55
:1002F00001F3156805EA03049C4234D105684F00F8
:100300000326BE40B543056015794E00B54006682A
:10031000354305601579012D02D01579022D16D1CE
:1003200085684F000326BE40B543856055794E0071
:10033000B540866835438560456801268E40B543E3
:100340004560456896798E40B6B235434560C568CC
:100350004F000326BE40B543C560D5794E00B54079
:10036000C6683543C560491C1029BFD3F0BDF0B540
:10037000002300244D07ED0E02FA05F3CE1000F124
:10038000200555F826504E07F70E0F26BE40B54300
:10039000CF1000F1200646F82750CE1000F12005BE
:1003A00055F8265045EA0304CE1000F1200545F823
:1003B0002640F0BD00BFFEE71CB50121084600F055
:1003C0005FF80120009000208DF8040003208DF8D4
:1003D000050001208DF8070069460248FFF77FFFFE
:1003E0001CBD00000000024000BFFEE77047000097
:1003F00070B5002100230F22C4781CB3174C246869
:1004000004F4E064C4F5E064C4F30721C1F104041A
:10041000E3B20A4144789C40E1B28478144021431D
:100420000C07210E0E4C05786155047804F01F0569
:100430000124AC4005786D11AD0005F1E025C5F84B
:10044000004109E0047804F01F050124AC40054D8B
:100450000678761145F8264070BD00000CED00E0EE
:1004600000E400E080E100E002490143024A11603B
:10047000704700000000FA050CED00E07047000036
:1004800029B1064A12680243044B1A6004E0034A89
:1004900012688243014B1A607047000030380240F6
:1004A00029B1064A12680243044B1A6004E0034A69
:1004B00012688243014B1A607047000044380240C2
:1004C000F0B5002100220024022500260223324F2D
:1004D0003F6807F00C0121B1042905D0082937D164
:1004E00005E02E4F076036E02D4F076033E02A4FBE
:1004F0003F1F3F68C7F38056274F3F1F3F6807F0F5
:100500003F036EB1264FB7FBF3F7DFF88CC0ACF1B9
:10051000040CDCF800C0CCF3881C07FB0CF40CE0E6
:100520001E4FB7FBF3F7DFF870C0ACF1040CDCF83A
:1005300000C0CCF3881C07FB0CF4174F3F1F3F682B
:10054000C7F301477F1C7D00B4FBF5F7076002E0AD
:10055000124F076000BF00BF0F4F3F6807F0F00168
:100560000909104F7A5C0768D74047600A4F3F6817
:1005700007F4E051890A0B4F7A5C4768D7408760DF
:10058000054F3F6807F46041490B064F7A5C4768A6
:10059000D740C760F0BD0000083802400024F400D6
:1005A00000127A0014000020704700000CB50020F3
:1005B000019000903448006840F48030324908606F
:1005C00000BF3148006800F4003000900198401CE2
:1005D0000190009818B90198B0F5A04FF1D12A48C0
:1005E000006800F4003010B10120009001E000200C
:1005F00000900098012846D123484030006840F020
:1006000080502149403108602048006840F4404053
:100610001E4908601C48083000681B490831086002
:100620000846006840F4004008600846006840F44E
:10063000A05008601648091F0860081F006840F0B5
:100640008070091F086000BF0F48006800F000704C
:100650000028F9D040F205700E4908600A480830B9
:10066000006820F003000849083108600846006867
:1006700040F00200086000BF03480830006800F046
:100680000C000828F8D10CBD003802400070004072
:1006900008544007003C024070B505460E46012450
:1006A00005E0601E35F8100026F81400641C072CC5
:1006B000F7DB3146082000F079F870BD7047000084
:1006C00030B5164800684FF47A72B0FBF2F1481E5C
:1006D000B0F1807F01D301201BE0481E4FF0E022E3
:1006E000506150170F22002807DA13071D0E0C4B1C
:1006F00000F00F04241F1D5503E013071C0E094BC7
:100700001C5400BF00204FF0E022906107201061D0
:10071000002008B100BFFEE730BD0000000000204F
:1007200018ED00E000E400E010B51548006840F462
:100730007000134908601348006840F00100114937
:10074000086000200F49083108600E4800680E4913
:1007500008400C4908600D48091D0860081F006822
:1007600020F48020091F0860002006490C31086031
:10077000FFF71CFF4FF0006001498039086010BD91
:1007800088ED00E000380240FFFFF6FE1030002444
:1007900010B540F22551044800F0A4F810B1024809
:1007A00000F06DF910BD00000010014070B5064664
:1007B0000D46002435F8140081B21C4800F064F99D
:1007C00000BF1A48008800F040000028F9D001243A
:1007D0001BE015F81410154800F056F900BF134837
:1007E000008800F040000028F9D035F81400C0F36C
:1007F00007210E4800F048F900BF0C48008800F0BF
:1008000040000028F9D0601CC4B2701EA042E0DC99
:1008100035F8140081B2054800F036F900BF0348EE
:10082000008800F040000028F9D070BD00100140A1
:1008300021B1828942F40052828104E082894DF61E
:10084000FF731A40828170471FB500F027F800F04F
:1008500003F901211020FFF723FE4FF4E13000904F
:100860000020ADF80400ADF80600ADF80800ADF8C2
:100870000C000C20ADF80A006946074800F082F829
:1008800001210548FFF7D4FF012240F2255102481B
:1008900000F052F81FBD0000001001401CB50121FE
:1008A0000846FFF7EDFD072209210D48FFF75FFD20
:1008B00007220A210A48FFF75AFD4FF4C060009052
:1008C00002208DF804008DF8050000208DF8060048
:1008D00001208DF8070069460148FFF700FD1CBDA7
:1008E0000000024070B502460024002300250020CD
:1008F00040F66A16B14200D100BFC1F3421501F0C3
:100900001F03012606FA03F3012D02D19689334015
:1009100006E0022D02D1168A334001E0968A334068
:100920000C12012606FA04F41688344013B10CB1F7
:10093000012000E0002070BDF0B503460024002631
:100940000025002040F66A17B94200D100BF1846C2
:10095000C1F3421401F01F06012707FA06F5012C26
:1009600001D10C3004E0022C01D1103000E0143031
:100970001AB107682F43076002E00768AF430760BA
:10098000F0BD00002DE9FF4705460E460024A146B4
:1009900000BFA046B08900B100BF2C8A24F44054A7
:1009A000F08804432C82AC8941F20C608443B08807
:1009B00031890843718908430443AC81AC8A24F42B
:1009C0004074B0890443AC826846FFF779FD204843
:1009D000854202D01F48854202D1DDF80C9001E02B
:1009E000DDF80890A88900F4004040B109EBC90087
:1009F00000EB091031684900B0FBF1F707E009EBA3
:100A0000C90000EB091031688900B0FBF1F76420E0
:100A1000B7FBF0F004012009642101FB1078A889DC
:100A200000F4004040B1322000EBC800B0FBF1F010
:100A300000F00700044308E0322000EB08106421B6
:100A4000B0FBF1F000F00F0004432C81BDE8FF87FC
:100A5000001001400014014008B54FF4C060FFF7DA
:100A600003FD25208DF8000001208DF801008DF890
:100A700002008DF803006846FFF7BAFC08BD014686
:100A80008888C0F308007047C1F30802828070476D
:100A900000BFFEE700BF704788B0002005900690B9
:100AA0000790134B0FCBCDE90323CDE90101114D85
:100AB00000260024FFF704FEFFF7C6FEFFF77CFCCC
:100AC00014E0002407E03046761C00B205A921F8A6
:100AD0001400601CC4B2062CF5DB01A905A8FFF7C1
:100AE000DBFD00E06D1E002DFCD1034DE9E70000A9
:100AF000080B0008A0860100809698004FF0407017
:100B0000E1EE100A704700005000000000000000F5
:100B10000000000000004500380B00080000002025
:100B200024000000C40100085C0B00082400002021
:100B300064060000E0010008007A030A00000000DB
:100B4000000000000102030406070809000000007D
:0C0B500001020304010203040607080967
:040000050800018965
:00000001FF
