:020000040800F2
:100000009806002029020008250B000813060008A6
:10001000210B000833040008BF1E00080000000088
:10002000000000000000000000000000A50E000815
:100030003704000800000000B50B00081510000888
:10004000430200084302000843020008430200087C
:10005000430200084302000843020008430200086C
:10006000430200084302000843020008430200085C
:10007000430200084302000843020008430200084C
:10008000430200084302000843020008430200083C
:10009000430200084302000843020008430200082C
:1000A000430200084302000843020008430200081C
:1000B000430200084302000843020008430200080C
:1000C00043020008430200084302000843020008FC
:1000D00043020008430200084302000843020008EC
:1000E00043020008430200084302000843020008DC
:1000F00043020008430200084302000843020008CC
:1001000043020008430200084302000843020008BB
:10011000430200084302000843020008611500087A
:10012000430200084302000843020008430200089B
:10013000430200084302000843020008430200088B
:10014000430200084302000843020008430200087B
:10015000430200084302000843020008430200086B
:10016000430200084302000843020008430200085B
:10017000430200084302000843020008430200084B
:10018000430200084302000800F002F800F03CF8C7
:100190000AA090E8000C82448344AAF10107DA45E2
:1001A00001D100F031F8AFF2090EBAE80F0013F0F8
:1001B000010F18BFFB1A43F001031847501E00003F
:1001C000701E0000103A24BF78C878C1FAD85207D0
:1001D00024BF30C830C144BF04680C6070470000C1
:1001E0000023002400250026103A28BF78C1FBD840
:1001F000520728BF30C148BF0B6070471FB501F0E0
:10020000F7FE1FBD10B510BD00F033F81146FFF723
:10021000F5FF01F059FE00F051F803B4FFF7F2FFCB
:1002200003BC01F04EFE0000094880470948004722
:10023000FEE7FEE7FEE7FEE7FEE7FEE7FEE7FEE796
:10024000FEE7FEE704480549054A064B70470000F3
:1002500085100008890100089800002098060020F9
:10026000980200209802002070477047704770473E
:100270007047754600F02CF8AE46050069465346B7
:1002800020F00700854618B020B5FFF7DBFFBDE87A
:1002900020404FF000064FF000074FF000084FF0ED
:1002A000000B21F00701AC46ACE8C009ACE8C0097E
:1002B000ACE8C009ACE8C0098D46704710B50446EB
:1002C000AFF300802046BDE81040FFF7A6BF000056
:1002D0000048704734000020F3B585B000240025A5
:1002E0000027AA222146641C0DF80120FF22214686
:1002F000641C0DF80120F1222146641C0DF8012038
:1003000004222146641C0DF801209DF8142021468A
:10031000641C0DF801209DF815202146641C0DF881
:1003200001209DF818202146641C0DF801209DF83D
:1003300019202046611CCCB20DF80020002607E0F1
:100340001DF806002844C5B27819C7B2701CC6B2A1
:100350009DF80300001DB042F2DC2046611CCCB2C7
:100360000DF800502046611CCCB20DF800706946B3
:10037000204601F0B7FC07B0F0BD00001FB500F04B
:1003800045F800F01FF80121880400F0D7FC4FF475
:10039000E13000900020ADF80400ADF80600ADF8A3
:1003A0000800ADF80C000C20ADF80A0069460448BE
:1003B00001F004FD0121024801F0ACFC1FBD00006A
:1003C000004800401CB50121022000F0A7FC0722D4
:1003D0000A210D4800F0FAF807220B210A4800F024
:1003E000F5F84FF44060009002208DF804008DF87D
:1003F000050000208DF8060001208DF807006946F1
:10040000014800F09BF81CBD0004024008B54FF401
:10041000806000F0C5FB27208DF8000001208DF8DA
:1004200001008DF802008DF80300684600F07CFBA7
:1004300008BD00BFFEE7704710B501F0C5F801F038
:10044000EDF810BD10B500F0E5FF01F00FF810BD9C
:1004500010B500F0A1FE00F0D1FE10BD10B500F007
:1004600045FE00F06FFE10BD10B500F0F1FE00F08B
:100470005BFF10BD10B501F023F801F04BF810BD83
:1004800070B50546072D3DD2DFE805F03C040D169A
:10049000212A33001D4801F02AFA04B200211B482A
:1004A00001F08DFB2FE01A4801F021FA04B200217F
:1004B000174801F084FB26E04FF0804001F017FA66
:1004C00004B200214FF0804001F079FB1BE011489D
:1004D00001F00DFA04B200210E4801F070FB12E0A9
:1004E0000D4801F004FA04B200210B4801F067FB4B
:1004F00009E00A4801F0FBF904B20021074801F0C5
:100500005EFB00E000BF00BF204670BD000401405C
:10051000000800400000014000040040000C0040C2
:1005200010B5FFF789FFFFF78DFFFFF791FFFFF78A
:1005300095FFFFF799FFFFF79DFF10BDF0B50A4645
:1005400000210023002400BF3DE0012505FA01F34E
:10055000156805EA03049C4234D105684F00032660
:10056000BE40B543056015794E00B5400668354379
:1005700005601579012D02D01579022D16D18568F7
:100580004F000326BE40B543856055794E00B54007
:10059000866835438560456801268E40B5434560D1
:1005A000456896798E40B6B235434560C5684F00C0
:1005B0000326BE40B543C560D5794E00B540C66838
:1005C0003543C560491C1029BFD3F0BDF0B50023E9
:1005D00000244D07ED0E02FA05F3CE1000F12005C0
:1005E00055F826504E07F70E0F26BE40B543CF10E4
:1005F00000F1200646F82750CE1000F1200555F8EE
:10060000265045EA0304CE1000F1200545F82640A7
:10061000F0BD00BFFEE7000070B503461E689D6D8B
:10062000AC1B002C01DB254600E065420AB93226EE
:1006300000E0C826B54203DD0C784CB9002007E085
:1006400001200C7814B90124024D2C7001240C7087
:1006500070BD0000040000202DE9FC4781460C46D7
:1006600015461E46DDE90A7809F1440000F0A3FAB8
:1006700004F1440000F09FFA05F1440000F09BFAF9
:1006800006F1440000F097FA07F1440000F093FAF5
:1006900008F1440000F08FFA99ED1D0ABDEEC00A82
:1006A00089ED090A94ED1D0ABDEEC00A84ED090A20
:1006B00095ED1D0ABDEEC00A85ED090A96ED1D0AED
:1006C000BDEEC00A86ED090A97ED1D0ABDEEC00A0F
:1006D00087ED090A98ED1D0ABDEEC00A88ED090AEA
:1006E00033462A4621464846CDE9007800F0F8F81E
:1006F000BDE8FC872DE9FC4781460C4615461E46A1
:10070000DDE90A78484600F0F5F9204600F0F2F9F4
:10071000284600F0EFF9304600F0ECF9384600F0DA
:10072000E9F9404600F0E6F933462A4621464846B4
:10073000CDE90078FFF790FFBDE8FC872DE9F04791
:1007400004460D4616461F46DDE908890120207340
:10075000022028730320307304203873052088F8A2
:100760000C00062089F80C004FF47A7341F26802FD
:1007700000219FED551AF1EE040A9FED540A04F191
:10078000100000F0A7FA4FF47A731A460A219FED81
:100790004E1ADFED4D0A9FED4E0A04F1440000F0C1
:1007A00099FA4FF47A7341F2680200219FED461ADC
:1007B000F1EE040A9FED450A05F1100000F08AFAF7
:1007C0004FF47A731A460A219FED3F1ADFED3E0A75
:1007D0009FED3F0A05F1440000F07CFA4FF47A7374
:1007E00041F2680200219FED381AF1EE040A9FEDF4
:1007F000370A06F1100000F06DFA4FF47A731A46CA
:100800000A219FED311ADFED300A9FED310A06F122
:10081000440000F05FFA4FF47A7341F2680200215D
:10082000B7EE001AF0EE080A9FED2A0A07F1100051
:1008300000F050FA4FF47A731A460F219FED221AF6
:10084000DFED210A9FED220A07F1440000F042FA91
:100850004FF47A7341F2680200219FED1B1AF1EE0A
:10086000040A9FED1D0A08F1100000F033FA4FF45E
:100870007A7328220A219FED141ADFED130A9FEDE7
:10088000140A08F1440000F025FA4FF47A7341F29B
:10089000680200219FED0C1AF1EE040A9FED0F0A89
:1008A00009F1100000F016FA4FF47A731A460A2183
:1008B0009FED051ADFED040A9FED050A09F14400DA
:1008C00000F008FABDE8F08700000000008009444D
:1008D000CDCCCC3D0000FA430000164400C00F44CC
:1008E0002DE9F04704460D4616461F46DDE9088906
:1008F00004F1100000F05FF905F1100000F05BF961
:1009000006F1100000F057F907F1100000F053F95C
:1009100008F1100000F04FF909F1100000F04BF958
:1009200094ED100A84ED020A95ED100A85ED020A95
:1009300096ED100A86ED020A97ED100A87ED020A7D
:1009400098ED100A88ED020A99ED100A89ED020A65
:1009500094ED020ADFED500AB4EEE00AF1EE10FA6F
:1009600004DD9FED4D0A84ED020A0CE094ED020ACD
:10097000DFED4A0AB4EEE00AF1EE10FA03D29FED81
:10098000470A84ED020A95ED020ADFED430AB4EE50
:10099000E00AF1EE10FA04DD9FED3F0A85ED020A50
:1009A0000CE095ED020ADFED3D0AB4EEE00AF1EE4F
:1009B00010FA03D29FED390A85ED020A96ED020A7C
:1009C000DFED350AB4EEE00AF1EE10FA04DD9FED3A
:1009D000320A86ED020A0CE096ED020ADFED2F0ADC
:1009E000B4EEE00AF1EE10FA03D29FED2C0A86ED88
:1009F000020A97ED020ADFED280AB4EEE00AF1EEF2
:100A000010FA04DD9FED240A87ED020A0CE097ED51
:100A1000020ADFED220AB4EEE00AF1EE10FA03D288
:100A20009FED1E0A87ED020A98ED020ADFED1A0A11
:100A3000B4EEE00AF1EE10FA04DD9FED170A88ED3E
:100A4000020A0CE098ED020ADFED140AB4EEE00AA7
:100A5000F1EE10FA03D29FED110A88ED020A99ED2A
:100A6000020ADFED0D0AB4EEE00AF1EE10FA04DD41
:100A70009FED090A89ED020A0CE099ED020ADFED0B
:100A8000070AB4EEE00AF1EE10FA03D29FED030A72
:100A900089ED020ABDE8F08700408345004083C528
:100AA0002DE9FC4781460C4615461E46DDE90A78CD
:100AB000484600F01FF8204600F01CF8284600F0D9
:100AC00019F8304600F016F8384600F013F84046A2
:100AD00000F010F833462A4621464846CDE9007812
:100AE000FFF7FEFEBDE8FC8710B500F0DBFB00F071
:100AF00045FC10BD70B50446207BFFF7C1FC0546E0
:100B000020682844206041F28461206890FBF1F263
:100B100001FB120000B2A0802168E165A56270BDF2
:100B200000BFFEE77047000070B5002100230F22D0
:100B3000C4781CB3174C246804F4E064C4F5E06482
:100B4000C4F30721C1F10404E3B20A4144789C4094
:100B5000E1B28478144021430C07210E0E4C057835
:100B60006155047804F01F050124AC4005786D112F
:100B7000AD0005F1E025C5F8004109E0047804F076
:100B80001F050124AC40054D0678761145F8264036
:100B900070BD00000CED00E000E400E080E100E04A
:100BA00002490143024A1160704700000000FA0543
:100BB0000CED00E07047818A028B891A09B28183AB
:100BC000B0F91C10002901DB0A4600E04A42B0F9E6
:100BD0000C309A4202DA002181830184D0ED000AB0
:100BE000B0F91C1000EE101AB8EEC00A20EE800A10
:100BF00080ED090AD0ED010AB0F9201000EE101ABC
:100C0000B8EEC00A20EE800A80ED0A0AB0F91C1086
:100C1000B0F91E20891A00EE101AB8EEC00AD0ED05
:100C2000020A20EE200A80ED0B0A90ED090AD0EDB1
:100C30000A0A30EE200AD0ED0B0A30EE200A80EDD1
:100C40000C0AD0ED0C0AB0F90E1000EE101AB8EE36
:100C5000C00AF4EEC00AF1EE10FA08DDB0F90E1089
:100C600000EE101AB8EEC00A80ED0C0A16E0D0EDC6
:100C70000C0AB0F90E10494200EE101AB8EEC00A84
:100C8000F4EEC00AF1EE10FA08D2B0F90E104942A3
:100C900000EE101AB8EEC00A80ED0C0A018C828BAF
:100CA000114409B20184B0F92010B0F9102091422A
:100CB00002DD018A01840AE0B0F92010B0F91020A9
:100CC0005242914203DA018A494209B20184818B7E
:100CD000C183704710B580ED000AC0ED010A80EDB8
:100CE000021A8181C2810382002444618461848369
:100CF000C4830484DFED081AC0ED091ADFED061A7B
:100D0000C0ED0A1ADFED041AC0ED0B1ADFED021A6E
:100D1000C0ED0C1A10BD00000000000029B1064A09
:100D200012680243044B1A6004E0034A12688243CB
:100D3000014B1A60704700003038024029B1064A62
:100D400012680243044B1A6004E0034A12688243AB
:100D5000014B1A60704700004038024029B1064A32
:100D600012680243044B1A6004E0034A126882438B
:100D7000014B1A60704700002038024029B1064A32
:100D800012680243044B1A6004E0034A126882436B
:100D9000014B1A60704700004438024029B1064AEE
:100DA00012680243044B1A6004E0034A126882434B
:100DB000014B1A607047000024380240F0B5002152
:100DC00000220024022500260223324F3F6807F04C
:100DD0000C0121B1042905D0082937D105E02E4F97
:100DE000076036E02D4F076033E02A4F3F1F3F6812
:100DF000C7F38056274F3F1F3F6807F03F036EB190
:100E0000264FB7FBF3F7DFF88CC0ACF1040CDCF82D
:100E100000C0CCF3881C07FB0CF40CE01E4FB7FBA2
:100E2000F3F7DFF870C0ACF1040CDCF800C0CCF3D1
:100E3000881C07FB0CF4174F3F1F3F68C7F301479F
:100E40007F1C7D00B4FBF5F7076002E0124F0760DE
:100E500000BF00BF0F4F3F6807F0F0010909104FB6
:100E60007A5C0768D74047600A4F3F6807F4E05153
:100E7000890A0B4F7A5C4768D7408760054F3F6807
:100E800007F46041490B064F7A5C4768D740C7605A
:100E9000F0BD0000083802400024F40000127A007F
:100EA00024000020704700000CB500200190009045
:100EB0003448006840F480303249086000BF31484F
:100EC000006800F4003000900198401C01900098E8
:100ED00018B90198B0F5A04FF1D12A48006800F484
:100EE000003010B10120009001E000200090009837
:100EF000012846D123484030006840F08050214905
:100F0000403108602048006840F440401E490860B5
:100F10001C48083000681B49083108600846006812
:100F200040F4004008600846006840F4A0500860A3
:100F30001648091F0860081F006840F08070091FEC
:100F4000086000BF0F48006800F000700028F9D06A
:100F500040F205700E4908600A480830006820F029
:100F600003000849083108600846006840F00200A4
:100F7000086000BF03480830006800F00C00082833
:100F8000F8D10CBD00380240007000400854400702
:100F9000003C02402DE9F04704460D4616461F4628
:100FA000DDE9099ADDF8208095ED020ABDEEC00A60
:100FB00010EE100A00B2608096ED020ABDEEC00A83
:100FC00010EE100A00B2A08097ED020ABDEEC00A32
:100FD00010EE100A00B2E08098ED020ABDEEC00AE1
:100FE00010EE100A00B2208199ED020ABDEEC00A8F
:100FF00010EE100A00B260819AED020ABDEEC00A3E
:1010000010EE100A00B2A0812146082000F028FE50
:10101000BDE8F08710B500F017FE10BD30B51648DA
:1010200000684FF47A72B0FBF2F1481EB0F1807F95
:1010300001D301201BE0481E4FF0E0225061501701
:101040000F22002807DA13071D0E0C4B00F00F04C7
:10105000241F1D5503E013071C0E094B1C5400BF31
:1010600000204FF0E022906107201061002008B1BD
:1010700000BFFEE730BD00000800002018ED00E0D2
:1010800000E400E010B51548006840F47000134912
:1010900008601348006840F0010011490860002012
:1010A0000F49083108600E4800680E4908400C4995
:1010B00008600D48091D0860081F006820F48020A2
:1010C000091F0860002006490C310860FFF7ECFE9C
:1010D0004FF0006001498039086010BD88ED00E0E4
:1010E00000380240FFFFF6FE103000241CB501213D
:1010F0001020FFF713FE012209211148FFF766FABD
:101100004FF40070009002208DF8040003208DF849
:10111000050000208DF8060001208DF807006946C3
:101120000748FFF70BFA01220B210548FFF74EFA9B
:101130004FF40060009069460148FFF7FFF91CBDBD
:10114000001002400EB501210846FFF717FE1148B6
:1011500000F0E4FA0020ADF800001020ADF8020025
:101160004FF6FF7001900020ADF80800694609486D
:1011700000F028FD02231A460321064800F096FBE2
:101180000021044800F01BFD0121024800F0BAFADA
:101190000EBD0000000001401CB501210220FFF738
:1011A000BDFD01210846FFF7B9FD01220F211148BD
:1011B000FFF70CFA4FF40040009002208DF8040075
:1011C00003208DF8050000208DF8060001208DF821
:1011D000070069460748FFF7B1F9012203210648D5
:1011E000FFF7F4F90820009069460348FFF7A6F9D5
:1011F0001CBD000000000240000402400EB50121A9
:101200000846FFF79BFD4FF0804000F087FA002072
:10121000ADF800001020ADF802004FF6FF7001900D
:101220000020ADF8080069464FF0804000F0CAFC8D
:1012300002231A460321580700F038FB00214FF023
:10124000804000F0BCFC0121880700F05BFA0EBD75
:101250001CB501210846FFF761FD02220621104856
:10126000FFF7B4F94020009002208DF8040003201D
:101270008DF8050000208DF8060001208DF807008C
:1012800069460748FFF75AF9022207210448FFF789
:101290009DF98020009069460148FFF74FF91CBD79
:1012A000000002401CB501210320FFF737FD022298
:1012B00006211B48FFF78AF94020009002208DF894
:1012C000040003208DF8050000208DF806000120A1
:1012D0008DF8070069461248FFF730F9022207210E
:1012E0000F48FFF773F98020009069460C48FFF71C
:1012F00025F9022200210B48FFF768F90120009030
:1013000069460848FFF71AF9022201210548FFF74C
:101310005DF90220009069460248FFF70FF91CBDF5
:1013200000000240000402400EB501210220FFF738
:1013300005FD114800F0F2F90020ADF80000102082
:10134000ADF802004FF6FF7001900020ADF80800E4
:101350006946094800F036FC0223002203210648B2
:1013600000F0A4FA0021044800F029FC0121024801
:1013700000F0C8F90EBD00000004004000B589B0BF
:1013800001210220FFF7DAFC0020ADF81800ADF8CB
:101390001A0041F2670007900020ADF8200006A96E
:1013A0001B4800F00FFC6020ADF804000120ADF8F0
:1013B000060000200390ADF8100001A9144800F0C9
:1013C000B3FA01A9124800F0F7FA01A9104800F099
:1013D00053FB01A90E4800F0A9FB08210C4800F0BE
:1013E000E1FA08210A4800F039FB0821084800F01A
:1013F00093FB0821064800F0D5FB0121044800F0CA
:1014000072F90121024800F07DF909B000BD000029
:10141000000400401CB501210820FFF77FFC0222D8
:101420000C211148FFF7D2F84FF4805000900220B1
:101430008DF8040003208DF8050000208DF80600CB
:1014400001208DF8070069460748FFF777F8022268
:101450000D210548FFF7BAF84FF400500090694697
:101460000148FFF76BF81CBD000C02400EB50121CE
:101470000420FFF763FC114800F050F90020ADF89C
:1014800000001020ADF802004FF6FF700190002020
:10149000ADF808006946094800F094FB02231A469B
:1014A0000321064800F002FA0021044800F087FBFF
:1014B0000121024800F026F90EBD0000000800409E
:1014C0001CB501210846FFF729FC02220021104823
:1014D000FFF77CF80120009002208DF80400032023
:1014E0008DF8050000208DF8060001208DF807001A
:1014F00069460748FFF722F8022201210448FFF756
:1015000065F80220009069460148FFF717F81CBDF6
:10151000000002400EB501210820FFF70FFC00205B
:10152000ADF800001020ADF802004FF6FF700190FA
:101530000020ADF808006946084800F043FB02238C
:1015400000220321054800F0B1F90021034800F012
:1015500036FB0121014800F0D5F80EBD000C00401B
:1015600010B50121134800F0C5F908B312480078FE
:1015700001280AD111480088401E104908800846F9
:10158000008810B900200C4908700D480078012827
:101590000AD10C480088401E0A4908800846008885
:1015A00010B90020064908700121024800F0A7F890
:1015B00010BD0000001400400000002002000020C8
:1015C00004000020060000201CB501210420FFF7C4
:1015D000A5FB032206211048FEF7F8FF40200090EB
:1015E00002208DF8040003208DF8050000208DF8FE
:1015F000060001208DF8070069460748FEF79EFFA8
:10160000032207210448FEF7E1FF8020009069468D
:101610000148FEF793FF1CBD000802400EB50121F2
:101620000220FFF7ABFB114800F078F80020ADF87E
:1016300000001020ADF802004FF6FF70019000206E
:10164000ADF808006946094800F0BCFA02231A46C2
:101650000321064800F02AF90021044800F0AFFAFF
:101660000121024800F04EF80EBD000000040140C8
:101670000EB501212020FFF761FB00F01FF80E4896
:1016800000F04CF85320ADF800000020ADF8020047
:101690004FF47A7001900020ADF8080069460648C2
:1016A00000F090FA01221146034800F034F90121BC
:1016B000014800F027F80EBD0014004008B54FF4B3
:1016C000C060FFF76DFA37208DF8000001208DF81B
:1016D000010003208DF8020001208DF80300684608
:1016E000FFF722FA08BD21B1028842F08002028091
:1016F00004E002884FF67F731A4002807047CA43A5
:101700000282704721B1028842F00102028004E0A7
:1017100002884FF6FE731A400280704710B50446E7
:101720005548844208D101210846FFF737FB0021C4
:101730000120FFF733FB9DE0B4F1804F08D1012178
:101740000846FFF70BFB00210120FFF707FB91E0A4
:101750004A48844208D101210220FFF7FFFA002104
:101760000220FFF7FBFA85E04548844208D10121B9
:101770000420FFF7F3FA00210420FFF7EFFA79E0E5
:101780004048844208D101210820FFF7E7FA0021F0
:101790000820FFF7E3FA6DE03B48844208D10121BD
:1017A0001020FFF7DBFA00211020FFF7D7FA61E0E5
:1017B0003648844208D101212020FFF7CFFA0021CA
:1017C0002020FFF7CBFA55E03148844208D10121AF
:1017D0000220FFF7E3FA00210220FFF7DFFA49E0D9
:1017E0002C48844209D101210804FFF7D7FA0021CF
:1017F0004FF48030FFF7D2FA3CE02748844209D109
:1018000001214804FFF7CAFA00214FF40030FFF726
:10181000C5FA2FE02148844209D101218804FFF74D
:10182000BDFA00214FF48020FFF7B8FA22E01C48EF
:10183000844208D101214020FFF790FA0021402086
:10184000FFF78CFA16E01748844208D10121802066
:10185000FFF784FA00218020FFF780FA0AE012489F
:10186000844207D101218015FFF778FA0021A015E5
:10187000FFF774FA10BD00000000014000040040B2
:1018800000080040000C0040001000400014004020
:101890000004014000400140004401400048014074
:1018A00000180040001C004000200040F0B50C462D
:1018B00015461E460021002200230189028B038C5D
:1018C0004FF6F877394021434FF6FC473A4040F253
:1018D00001173A434FF6DD773B404FF6FF7707EAB3
:1018E00006172F433B43018102830384F0BD014669
:1018F000486A704730B50246002000230024158A4C
:1019000005EA0103958905EA010413B10CB1012030
:1019100000E0002030BD1AB183890B43838102E0CF
:1019200083898B438381704770B500240022002394
:10193000058C4FF6FE7635400584028C8388048B37
:101940004FF68F752C40B51E2C400D882C43751E0C
:101950002A408D892A434D882A43104DA84202D03F
:101960000F4DA84213D14FF6F7752A40CD892A436F
:101970004FF6FB752A408D882A434FF6FF652B40B2
:101980004FF6FF552B400D8A2B434D8A2B43838006
:1019900004838D684563028470BD0000000001402F
:1019A000000401400A460021018B4FF6F7731940ED
:1019B000114301837047000070B50024002200230A
:1019C000058C4FF6EF7635400584028C8388048BB6
:1019D00048F6FF752C404FF6FF452C400D884FF61A
:1019E000FF7606EA05252C434FF6DF752A408D89E0
:1019F00006EA05152A434D8806EA05152A43154DC2
:101A0000A84202D0144DA8421DD14FF67F752A403E
:101A1000CD894FF6FF7606EA05152A434FF6BF75C6
:101A20002A408D8806EA05152A434FF6FF352B40DC
:101A30004FF2FF752B400D8A06EA85052B434D8A30
:101A400006EA85052B43838004838D6885630284C1
:101A500070BD000000000140000401400A46002162
:101A6000018B4FF2FF7319404FF6FF7303EA022315
:101A7000194301837047000070B500240022002341
:101A8000058C4FF6FF6635400584028C8388848B75
:101A90004FF68F752C404FF6FC752C400D882C436B
:101AA0004FF6FF552A408D894FF6FF7606EA052549
:101AB0002A434D8806EA05252A43154DA84202D03F
:101AC000144DA8421DD14FF2FF752A40CD894FF623
:101AD000FF7606EA05252A434FF6FF352A408D8812
:101AE00006EA05252A434EF6FF752B404DF6FF7595
:101AF0002B400D8A06EA05152B434D8A06EA05158B
:101B00002B43838084838D68C563028470BD00008D
:101B100000000140000401400A460021818B4FF67D
:101B2000F7731940114381837047000070B500229C
:101B300000230024058C4EF6FF7635400584038C87
:101B40008488828B48F6FF752A404FF6FF452A406D
:101B50000D884FF6FF7606EA05252A434DF6FF75F8
:101B60002B408D8906EA05352B434D8806EA05355D
:101B70002B430A4DA84202D0094DA84208D14BF68A
:101B8000FF752C400D8A4FF6FF7606EA85152C432B
:101B9000848082838D680564038470BD00000140E9
:101BA000000401400A460021818B4FF2FF73194067
:101BB0004FF6FF7303EA02231943818370474162A2
:101BC0007047000000220288184B98420ED0184B34
:101BD00098420BD0B0F1804F08D0164B984205D0F8
:101BE000154B984202D0154B984204D14FF68F7393
:101BF0001A404B881A43124B984207D0114B984217
:101C000004D04FF6FF431A400B891A4302804B68F9
:101C1000C3620B880385054B984202D0044B98425F
:101C200001D18B7A03860123838270470000014033
:101C3000000401400004004000080040000C004087
:101C400000100040001400400448006820B1034820
:101C50000068401E01490860704700001C00002019
:101C600070B506460D46002435F8140081B21C48B4
:101C700000F021F900BF1A48008800F04000002859
:101C8000F9D001241BE015F81410154800F013F9E1
:101C900000BF1348008800F040000028F9D035F854
:101CA0001400C0F307210E4800F005F900BF0C48EE
:101CB000008800F040000028F9D0601CC4B2701EFB
:101CC000A042E0DC35F8140081B2054800F0F3F8DA
:101CD00000BF0348008800F040000028F9D070BD24
:101CE0000010014070B505460E4600240CE0315D41
:101CF000074800F0E0F800BF0548008800F0400009
:101D00000028F9D0601CC4B2AC42F0DB70BD00000A
:101D10000048004021B1828942F40052828104E0EF
:101D200082894DF6FF731A40828170471FB500F01B
:101D300021F800F0ADF801211020FFF71FF84FF453
:101D4000E13000900020ADF80400ADF80600ADF8D9
:101D50000800ADF80C000C20ADF80A0069460448F4
:101D600000F02CF801210248FFF7D4FF1FBD00004E
:101D7000001001401CB501210846FEF7CFFF0722E5
:101D800009210D48FEF722FC07220A210A48FEF726
:101D90001DFC4FF4C060009002208DF804008DF807
:101DA000050000208DF8060001208DF80700694627
:101DB0000148FEF7C3FB1CBD000002402DE9FF47B0
:101DC00005460E460024A14600BFA046B08900B1DA
:101DD00000BF2C8A24F44054F08804432C82AC8940
:101DE00041F20C608443B08831890843718908430B
:101DF0000443AC81AC8A24F44074B0890443AC82BF
:101E00006846FEF7DBFF2048854202D01F48854226
:101E100002D1DDF80C9001E0DDF80890A88900F40B
:101E2000004040B109EBC90000EB091031684900DE
:101E3000B0FBF1F707E009EBC90000EB09103168CE
:101E40008900B0FBF1F76420B7FBF0F00401200932
:101E5000642101FB1078A88900F4004040B13220D1
:101E600000EBC800B0FBF1F000F00700044308E00D
:101E7000322000EB08106421B0FBF1F000F00F00FD
:101E800004432C81BDE8FF8700100140001401408D
:101E900008B54FF4C060FEF783FE25208DF80000E2
:101EA00001208DF801008DF802008DF803006846CE
:101EB000FEF73AFE08BDC1F308028280704700BFFA
:101EC000FEE700BF70470000ADF53C7D00200790A5
:101ED000424B0FCBCDE90523CDE903010125FFF7E7
:101EE0009DF8FFF723FFFEF749FAFFF7C1FBFEF766
:101EF000FBFDFEF715FB08A826A944AB62AACDE9B5
:101F0000001080A99EA8FEF719FC01203449087032
:101F100000203449087041F203419EA881655BE0CE
:101F200031480088002857D101202D49087005202C
:101F30002D4908802A4607A99EA8FEF76DFB044696
:101F400094B91DB903219EA8416202E01C219EA8FC
:101F5000416208A826A944AB62AACDE9001080A975
:101F60009EA8FEF79DFD09E008A826A944AB62AA39
:101F7000CDE9001080A99EA8FEF7BCFB1B48008895
:101F8000B0B94FF4FA701949088045B99EA8806D20
:101F900041F2034101449EA88165012506E09EA807
:101FA000806D00F522709EA98865002500200790AD
:101FB00008A826A944AA62ABCDE90021029080AA14
:101FC0009EA903A8FEF7E6FFBDF8D42211B2BDF822
:101FD000D02210B2FEF780F9A2E70000FC1F000833
:101FE0000000002004000020020000200600002065
:101FF0004FF04070E1EE100A704700005000000002
:102000000000000000000000000045002C20000837
:102010000000002034000000C40100086020000817
:102020003400002064060000E00100080000050004
:102030000000F401007A030A000000000000000024
:102040000102030406070809000000000000000068
:10205000000000000102030401020304060708094E
:040000050800018965
:00000001FF
