:020000040800F2
:1000000098060020290200083B0900089B0500080B
:1000100037090008BB030008A31C0008000000000B
:10002000000000000000000000000000B90C000803
:10003000BF03000800000000C9090008290E0008DD
:10004000430200084302000843020008430200087C
:10005000430200084302000843020008430200086C
:10006000430200084302000843020008430200085C
:10007000430200084302000843020008430200084C
:10008000430200084302000843020008430200083C
:10009000430200084302000843020008430200082C
:1000A000430200084302000843020008430200081C
:1000B000430200084302000843020008430200080C
:1000C00043020008430200084302000843020008FC
:1000D00043020008430200084302000843020008EC
:1000E00043020008430200084302000843020008DC
:1000F00043020008430200084302000843020008CC
:1001000043020008430200084302000843020008BB
:100110004302000843020008430200087513000868
:10012000430200084302000843020008430200089B
:10013000430200084302000843020008430200088B
:10014000430200084302000843020008430200087B
:10015000430200084302000843020008430200086B
:10016000430200084302000843020008430200085B
:10017000430200084302000843020008430200084B
:10018000430200084302000800F002F800F03CF8C7
:100190000AA090E8000C82448344AAF10107DA45E2
:1001A00001D100F031F8AFF2090EBAE80F0013F0F8
:1001B000010F18BFFB1A43F0010318477C1D000014
:1001C0009C1D0000103A24BF78C878C1FAD85207A5
:1001D00024BF30C830C144BF04680C6070470000C1
:1001E0000023002400250026103A28BF78C1FBD840
:1001F000520728BF30C148BF0B6070471FB501F0E0
:100200008DFE1FBD10B510BD00F033F81146FFF78D
:10021000F5FF01F061FD00F051F803B4FFF7F2FFC4
:1002200003BC01F056FD000009488047094800471B
:10023000FEE7FEE7FEE7FEE7FEE7FEE7FEE7FEE796
:10024000FEE7FEE704480549054A064B70470000F3
:10025000990E0008890100089800002098060020E7
:10026000980200209802002070477047704770473E
:100270007047754600F02CF8AE46050069465346B7
:1002800020F00700854618B020B5FFF7DBFFBDE87A
:1002900020404FF000064FF000074FF000084FF0ED
:1002A000000B21F00701AC46ACE8C009ACE8C0097E
:1002B000ACE8C009ACE8C0098D46704710B50446EB
:1002C000AFF300802046BDE81040FFF7A6BF000056
:1002D00000487047340000201FB500F045F800F0DA
:1002E0001FF80121880400F033FC4FF4E130009046
:1002F0000020ADF80400ADF80600ADF80800ADF838
:100300000C000C20ADF80A006946044801F048FCD6
:100310000121024801F0F0FB1FBD00000048004031
:100320001CB50121022000F003FC07220A210D4820
:1003300000F010F907220B210A4800F00BF94FF4E6
:100340004060009002208DF804008DF80500002028
:100350008DF8060001208DF807006946014800F07D
:10036000B1F81CBD0004024008B54FF4806000F0F5
:1003700021FB27208DF8000001208DF801008DF869
:1003800002008DF80300684600F0D8FA08BD70B589
:1003900003461E689D6DAC1B002C01DB254600E06A
:1003A00065420AB9C82600E03226B54203DD0C7862
:1003B00014B9002000E0012070BD00BFFEE77047C7
:1003C00010B501F00BF801F033F810BD10B500F0D6
:1003D0002BFF00F055FF10BD10B500F0E7FD00F059
:1003E00017FE10BD10B500F08BFD00F0B5FD10BD7F
:1003F00010B500F037FE00F0A1FE10BD10B500F002
:1004000069FF00F091FF10BD70B50546072D3DD284
:10041000DFE805F03C040D16212A33001D4801F0E9
:1004200070F904B200211B4801F0D3FA2FE01A48FA
:1004300001F067F904B20021174801F0CAFA26E07A
:100440004FF0804001F05DF904B200214FF0804090
:1004500001F0BFFA1BE0114801F053F904B200218A
:100460000E4801F0B6FA12E00D4801F04AF904B264
:1004700000210B4801F0ADFA09E00A4801F041F90A
:1004800004B20021074801F0A4FA00E000BF00BF59
:10049000204670BD000401400008004000000140FB
:1004A00000040040000C004010B5FFF789FFFFF783
:1004B0008DFFFFF791FFFFF795FFFFF799FFFFF71C
:1004C0009DFF10BDF0B50A4600210023002400BFA7
:1004D0003DE0012505FA01F3156805EA03049C4295
:1004E00034D105684F000326BE40B5430560157939
:1004F0004E00B5400668354305601579012D02D0E0
:100500001579022D16D185684F000326BE40B543EC
:10051000856055794E00B5408668354385604568ED
:1005200001268E40B5434560456896798E40B6B247
:1005300035434560C5684F000326BE40B543C560DE
:10054000D5794E00B540C6683543C560491C1029B1
:10055000BFD3F0BDF0B5002300244D07ED0E02FA25
:1005600005F3CE1000F1200555F826504E07F70E82
:100570000F26BE40B543CF1000F1200646F82750A5
:10058000CE1000F1200555F8265045EA0304CE10A0
:1005900000F1200545F82640F0BD00BFFEE72DE93B
:1005A000FC4704460D4616461F46DDE90A8904F15C
:1005B000440000F00AFA05F1440000F006FA06F1E2
:1005C000440000F002FA94ED1D0ABDEEC00A84ED6D
:1005D000090A95ED1D0ABDEEC00A85ED090A96EDE2
:1005E0001D0ABDEEC00A86ED090A3B463246294681
:1005F0002046CDE9008900F0EFF8BDE8FC872DE941
:10060000FC4706460C4615461F46DDE90A8930467A
:1006100000F07BF9204600F078F9284600F075F9E3
:100620003B462A4621463046CDE90089FFF7B7FF11
:10063000BDE8FC872DE9F04704460D4616461F46E7
:10064000DDE908890120207302202873032030731C
:1006500004203873052088F80C00062089F80C0067
:100660004FF47A7341F2680200219FED551AF1EEC2
:10067000040A9FED540A04F1100000F035FA4FF41B
:100680007A731A460A219FED4E1ADFED4D0A9FED4F
:100690004E0A04F1440000F027FA4FF47A7341F255
:1006A000680200219FED461AF1EE040A9FED450A0B
:1006B00005F1100000F018FA4FF47A731A460A2177
:1006C0009FED3F1ADFED3E0A9FED3F0A05F1440022
:1006D00000F00AFA4FF47A7341F2680200219FEDAC
:1006E000381AF1EE040A9FED370A06F1100000F007
:1006F000FBF94FF47A731A460A219FED311ADFEDA8
:10070000300A9FED310A06F1440000F0EDF94FF494
:100710007A7341F268020021B7EE001AF0EE080A7F
:100720009FED2A0A07F1100000F0DEF94FF47A730A
:100730001A460F219FED221ADFED210A9FED220AB2
:1007400007F1440000F0D0F94FF47A7341F26802E7
:1007500000219FED1B1AF1EE040A9FED1D0A08F11E
:10076000100000F0C1F94FF47A7328220A219FED9E
:10077000141ADFED130A9FED140A08F1440000F08B
:10078000B3F94FF47A7341F2680200219FED0C1A1D
:10079000F1EE040A9FED0F0A09F1100000F0A4F930
:1007A0004FF47A731A460A219FED051ADFED040A09
:1007B0009FED050A09F1440000F096F9BDE8F087C5
:1007C0000000000000800944CDCCCC3D0000FA437D
:1007D0000000164400C00F442DE9F04704460D46C2
:1007E00016469946DDE9087804F1100000F0EDF8AE
:1007F00005F1100000F0E9F806F1100000F0E5F84E
:1008000094ED100A84ED020A95ED100A85ED020AB6
:1008100096ED100A86ED020A94ED020ADFED280A31
:10082000B4EEE00AF1EE10FA04DD9FED250A84ED46
:10083000020A0CE094ED020ADFED220AB4EEE00AAF
:10084000F1EE10FA03D29FED1F0A84ED020A95ED36
:10085000020ADFED1B0AB4EEE00AF1EE10FA04DD45
:100860009FED170A85ED020A0CE095ED020ADFED17
:10087000150AB4EEE00AF1EE10FA03D29FED110A68
:1008800085ED020A96ED020ADFED0D0AB4EEE00AEC
:10089000F1EE10FA04DD9FED0A0A86ED020A0CE083
:1008A00096ED020ADFED070AB4EEE00AF1EE10FA67
:1008B00003D29FED040A86ED020ABDE8F08700002E
:1008C00000408345004083C52DE9FC4706460C46A1
:1008D00015461F46DDE90A89304600F016F8204625
:1008E00000F013F8284600F010F83B462A4621464F
:1008F0003046CDE90089FFF76FFFBDE8FC8710B5F2
:1009000000F0DAFB00F044FC10BD70B50446207B1B
:10091000FFF77AFD054620682844206041F2846193
:10092000206890FBF1F201FB120000B2A080216868
:10093000E165A56270BD00BFFEE7704770B500219C
:1009400000230F22C4781CB3174C246804F4E0641D
:10095000C4F5E064C4F30721C1F10404E3B20A4121
:1009600044789C40E1B28478144021430C07210E66
:100970000E4C05786155047804F01F050124AC4045
:1009800005786D11AD0005F1E025C5F8004109E0DD
:10099000047804F01F050124AC40054D067876115B
:1009A00045F8264070BD00000CED00E000E400E0DA
:1009B00080E100E002490143024A116070470000F3
:1009C0000000FA050CED00E07047818A028B891A5D
:1009D00009B28183B0F91C10002901DB0A4600E04E
:1009E0004A42B0F90C309A4202DA00218183018434
:1009F000D0ED000AB0F91C1000EE101AB8EEC00AD3
:100A000020EE800A80ED090AD0ED010AB0F920102D
:100A100000EE101AB8EEC00A20EE800A80ED0A0A35
:100A2000B0F91C10B0F91E20891A00EE101AB8EEA9
:100A3000C00AD0ED020A20EE200A80ED0B0A90EDEC
:100A4000090AD0ED0A0A30EE200AD0ED0B0A30EE8A
:100A5000200A80ED0C0AD0ED0C0AB0F90E1000EE61
:100A6000101AB8EEC00AF4EEC00AF1EE10FA08DD72
:100A7000B0F90E1000EE101AB8EEC00A80ED0C0AA4
:100A800016E0D0ED0C0AB0F90E10494200EE101A33
:100A9000B8EEC00AF4EEC00AF1EE10FA08D2B0F9CE
:100AA0000E10494200EE101AB8EEC00A80ED0C0A92
:100AB000018C828B114409B20184B0F92010B0F985
:100AC0001020914202DD018A01840AE0B0F9201071
:100AD000B0F910205242914203DA018A494209B228
:100AE0000184818BC183704710B580ED000AC0ED91
:100AF000010A80ED021A8181C281038200244461CF
:100B000084618483C4830484DFED081AC0ED091A6C
:100B1000DFED061AC0ED0A1ADFED041AC0ED0B1A5C
:100B2000DFED021AC0ED0C1A10BD0000000000003D
:100B300029B1064A12680243044B1A6004E0034AD2
:100B400012688243014B1A6070470000303802403F
:100B500029B1064A12680243044B1A6004E0034AB2
:100B600012688243014B1A6070470000403802400F
:100B700029B1064A12680243044B1A6004E0034A92
:100B800012688243014B1A6070470000203802400F
:100B900029B1064A12680243044B1A6004E0034A72
:100BA00012688243014B1A607047000044380240CB
:100BB00029B1064A12680243044B1A6004E0034A52
:100BC00012688243014B1A607047000024380240CB
:100BD000F0B5002100220024022500260223324F16
:100BE0003F6807F00C0121B1042905D0082937D14D
:100BF00005E02E4F076036E02D4F076033E02A4FA7
:100C00003F1F3F68C7F38056274F3F1F3F6807F0DD
:100C10003F036EB1264FB7FBF3F7DFF88CC0ACF1A2
:100C2000040CDCF800C0CCF3881C07FB0CF40CE0CF
:100C30001E4FB7FBF3F7DFF870C0ACF1040CDCF823
:100C400000C0CCF3881C07FB0CF4174F3F1F3F6814
:100C5000C7F301477F1C7D00B4FBF5F7076002E096
:100C6000124F076000BF00BF0F4F3F6807F0F00151
:100C70000909104F7A5C0768D74047600A4F3F6800
:100C800007F4E051890A0B4F7A5C4768D7408760C8
:100C9000054F3F6807F46041490B064F7A5C47688F
:100CA000D740C760F0BD0000083802400024F400BF
:100CB00000127A0024000020704700000CB50020CC
:100CC000019000903448006840F480303249086058
:100CD00000BF3148006800F4003000900198401CCB
:100CE0000190009818B90198B0F5A04FF1D12A48A9
:100CF000006800F4003010B10120009001E00020F5
:100D000000900098012846D123484030006840F008
:100D100080502149403108602048006840F440403C
:100D20001E4908601C48083000681B4908310860EB
:100D30000846006840F4004008600846006840F437
:100D4000A05008601648091F0860081F006840F09E
:100D50008070091F086000BF0F48006800F0007035
:100D60000028F9D040F205700E4908600A480830A2
:100D7000006820F003000849083108600846006850
:100D800040F00200086000BF03480830006800F02F
:100D90000C000828F8D10CBD00380240007000405B
:100DA00008544007003C02402DE9F04704460D4638
:100DB00016461F46DDE9099ADDF8208095ED020A06
:100DC000BDEEC00A10EE100A00B2608096ED020A75
:100DD000BDEEC00A10EE100A00B2A08097ED020A24
:100DE000BDEEC00A10EE100A00B2E08098ED020AD3
:100DF000BDEEC00A10EE100A00B2208199ED020A81
:100E0000BDEEC00A10EE100A00B260819AED020A2F
:100E1000BDEEC00A10EE100A00B2A08121460820E3
:100E200000F028FEBDE8F08710B500F017FE10BDF9
:100E300030B5164800684FF47A72B0FBF2F1481EE4
:100E4000B0F1807F01D301201BE0481E4FF0E0226B
:100E5000506150170F22002807DA13071D0E0C4BA4
:100E600000F00F04241F1D5503E013071C0E094B4F
:100E70001C5400BF00204FF0E02290610720106159
:100E8000002008B100BFFEE730BD000008000020D0
:100E900018ED00E000E400E010B51548006840F4EB
:100EA0007000134908601348006840F001001149C0
:100EB000086000200F49083108600E4800680E499C
:100EC00008400C4908600D48091D0860081F0068AB
:100ED00020F48020091F0860002006490C310860BA
:100EE000FFF7ECFE4FF0006001498039086010BD4B
:100EF00088ED00E000380240FFFFF6FE10300024CD
:100F00001CB501211020FFF713FE01220921114811
:100F1000FFF720FB4FF40070009002208DF80400D2
:100F200003208DF8050000208DF8060001208DF8C3
:100F3000070069460748FFF7C5FA01220B2105485B
:100F4000FFF708FB4FF40060009069460148FFF787
:100F5000B9FA1CBD001002400EB501210846FFF78A
:100F600017FE114800F0E4FA0020ADF80000102050
:100F7000ADF802004FF6FF7001900020ADF80800B8
:100F80006946094800F028FD02231A460321064855
:100F900000F096FB0021044800F01BFD01210248EF
:100FA00000F0BAFA0EBD0000000001401CB501219E
:100FB0000220FFF7BDFD01210846FFF7B9FD012220
:100FC0000F211148FFF7C6FA4FF4004000900220AD
:100FD0008DF8040003208DF8050000208DF8060030
:100FE00001208DF8070069460748FFF76BFA0122D8
:100FF00003210648FFF7AEFA08200090694603482F
:10100000FFF760FA1CBD000000000240000402402F
:101010000EB501210846FFF79BFD4FF0804000F020
:1010200087FA0020ADF800001020ADF802004FF65E
:10103000FF7001900020ADF8080069464FF0804035
:1010400000F0CAFC02231A460321580700F038FBBF
:1010500000214FF0804000F0BCFC0121880700F027
:101060005BFA0EBD1CB501210846FFF761FD0222A7
:1010700006211048FFF76EFA4020009002208DF8FC
:10108000040003208DF8050000208DF806000120E3
:101090008DF8070069460748FFF714FA0222072176
:1010A0000448FFF757FA8020009069460148FFF78F
:1010B00009FA1CBD000002401CB501210320FFF706
:1010C00037FD022206211B48FFF744FA402000901A
:1010D00002208DF8040003208DF8050000208DF813
:1010E000060001208DF8070069461248FFF7EAF96B
:1010F000022207210F48FFF72DFA80200090694651
:101100000C48FFF7DFF9022200210B48FFF722FA13
:101110000120009069460848FFF7D4F90222012116
:101120000548FFF717FA0220009069460248FFF7CA
:10113000C9F91CBD00000240000402400EB50121A7
:101140000220FFF705FD114800F0F2F90020ADF88C
:1011500000001020ADF802004FF6FF700190002053
:10116000ADF808006946094800F036FC0223002269
:101170000321064800F0A4FA0021044800F029FCED
:101180000121024800F0C8F90EBD00000004004033
:1011900000B589B001210220FFF7DAFC0020ADF88C
:1011A0001800ADF81A0041F2670007900020ADF872
:1011B000200006A91B4800F00FFC6020ADF80400D9
:1011C0000120ADF8060000200390ADF8100001A941
:1011D000144800F0B3FA01A9124800F0F7FA01A987
:1011E000104800F053FB01A90E4800F0A9FB0821AC
:1011F0000C4800F0E1FA08210A4800F039FB082108
:10120000084800F093FB0821064800F0D5FB0121B7
:10121000044800F072F90121024800F07DF909B09C
:1012200000BD0000000400401CB501210820FFF7AC
:101230007FFC02220C211148FFF78CF94FF48050FB
:10124000009002208DF8040003208DF80500002096
:101250008DF8060001208DF8070069460748FFF762
:1012600031F902220D210548FFF774F94FF40050BF
:10127000009069460148FFF725F91CBD000C0240AB
:101280000EB501210420FFF763FC114800F050F96E
:101290000020ADF800001020ADF802004FF6FF70FE
:1012A00001900020ADF808006946094800F094FB61
:1012B00002231A460321064800F002FA00210448DE
:1012C00000F087FB0121024800F026F90EBD000066
:1012D000000800401CB501210846FFF729FC022246
:1012E00000211048FFF736F90120009002208DF808
:1012F000040003208DF8050000208DF80600012071
:101300008DF8070069460748FFF7DCF80222012143
:101310000448FFF71FF90220009069460148FFF7D3
:10132000D1F81CBD000002400EB501210820FFF7D6
:101330000FFC0020ADF800001020ADF802004FF6C1
:10134000FF7001900020ADF808006946084800F0E1
:1013500043FB022300220321054800F0B1F90021DC
:10136000034800F036FB0121014800F0D5F80EBD1E
:10137000000C004010B50121134800F0C5F908B376
:101380001248007801280AD111480088401E1049EF
:1013900008800846008810B900200C4908700D48E4
:1013A000007801280AD10C480088401E0A490880AC
:1013B0000846008810B9002006490870012102483B
:1013C00000F0A7F810BD000000140040000000204D
:1013D0000200002004000020060000201CB50121AE
:1013E0000420FFF7A5FB032206211048FFF7B2F8FF
:1013F0004020009002208DF8040003208DF80500A5
:1014000000208DF8060001208DF807006946074886
:10141000FFF758F8032207210448FFF79BF88020C4
:10142000009069460148FFF74DF81CBD00080240D6
:101430000EB501210220FFF7ABFB114800F078F850
:101440000020ADF800001020ADF802004FF6FF704C
:1014500001900020ADF808006946094800F0BCFA88
:1014600002231A460321064800F02AF90021044805
:1014700000F0AFFA0121024800F04EF80EBD000066
:10148000000401400EB501212020FFF761FB00F0B0
:101490001FF80E4800F04CF85320ADF80000002073
:1014A000ADF802004FF47A7001900020ADF808000A
:1014B0006946064800F090FA01221146034800F000
:1014C00034F90121014800F027F80EBD0014004056
:1014D00008B54FF4C060FFF76DFA37208DF80000B3
:1014E00001208DF8010003208DF8020001208DF805
:1014F00003006846FFF722FA08BD21B1028842F0D6
:101500008002028004E002884FF67F731A40028056
:101510007047CA430282704721B1028842F001023B
:10152000028004E002884FF6FE731A400280704782
:1015300010B504465548844208D101210846FFF7FA
:1015400037FB00210120FFF733FB9DE0B4F1804F12
:1015500008D101210846FFF70BFB00210120FFF70E
:1015600007FB91E04A48844208D101210220FFF79D
:10157000FFFA00210220FFF7FBFA85E0454884428C
:1015800008D101210420FFF7F3FA00210420FFF71E
:10159000EFFA79E04048844208D101210820FFF7A2
:1015A000E7FA00210820FFF7E3FA6DE03B488442A8
:1015B00008D101211020FFF7DBFA00211020FFF7EE
:1015C000D7FA61E03648844208D101212020FFF794
:1015D000CFFA00212020FFF7CBFA55E031488442B2
:1015E00008D101210220FFF7E3FA00210220FFF7D2
:1015F000DFFA49E02C48844209D101210804FFF7B1
:10160000D7FA00214FF48030FFF7D2FA3CE02748A8
:10161000844209D101214804FFF7CAFA00214FF49E
:101620000030FFF7C5FA2FE02148844209D101219B
:101630008804FFF7BDFA00214FF48020FFF7B8FAC5
:1016400022E01C48844208D101214020FFF790FA93
:1016500000214020FFF78CFA16E01748844208D199
:1016600001218020FFF784FA00218020FFF780FA13
:101670000AE01248844207D101218015FFF778FA69
:101680000021A015FFF774FA10BD00000000014012
:101690000004004000080040000C00400010004022
:1016A000001400400004014000400140004401409B
:1016B0000048014000180040001C0040002000408D
:1016C000F0B50C4615461E46002100220023018974
:1016D000028B038C4FF6F877394021434FF6FC47D5
:1016E0003A4040F201173A434FF6DD773B404FF660
:1016F000FF7707EA06172F433B43018102830384E8
:10170000F0BD0146486A704730B50246002000230C
:101710000024158A05EA0103958905EA010413B13D
:101720000CB1012000E0002030BD1AB183890B43C9
:10173000838102E083898B438381704770B50024E5
:1017400000220023058C4FF6FE7635400584028C7E
:101750008388048B4FF68F752C40B51E2C400D8866
:101760002C43751E2A408D892A434D882A43104DEB
:10177000A84202D00F4DA84213D14FF6F7752A4068
:10178000CD892A434FF6FB752A408D882A434FF6B0
:10179000FF652B404FF6FF552B400D8A2B434D8A9A
:1017A0002B43838004838D684563028470BD0000F1
:1017B00000000140000401400A460021018B4FF661
:1017C000F7731940114301837047000070B500247E
:1017D00000220023058C4FF6EF7635400584028CFD
:1017E0008388048B48F6FF752C404FF6FF452C404C
:1017F0000D884FF6FF7606EA05252C434FF6DF7578
:101800002A408D8906EA05152A434D8806EA051502
:101810002A43154DA84202D0144DA8421DD14FF6BF
:101820007F752A40CD894FF6FF7606EA05152A43D3
:101830004FF6BF752A408D8806EA05152A434FF6F4
:10184000FF352B404FF2FF752B400D8A06EA8505C8
:101850002B434D8A06EA85052B43838004838D68DC
:101860008563028470BD0000000001400004014057
:101870000A460021018B4FF2FF7319404FF6FF73A8
:1018800003EA0223194301837047000070B5002466
:1018900000220023058C4FF6FF6635400584028C3C
:1018A0008388848B4FF68F752C404FF6FC752C4047
:1018B0000D882C434FF6FF552A408D894FF6FF7651
:1018C00006EA05252A434D8806EA05252A43154DD3
:1018D000A84202D0144DA8421DD14FF2FF752A40F4
:1018E000CD894FF6FF7606EA05252A434FF6FF35E8
:1018F0002A408D8806EA05252A434EF6FF752B40BF
:101900004DF6FF752B400D8A06EA05152B434D8ACF
:1019100006EA05152B43838084838D68C5630284A2
:1019200070BD000000000140000401400A46002193
:10193000818B4FF6F7731940114381837047000084
:1019400070B5002200230024058C4EF6FF7635404A
:101950000584038C8488828B48F6FF752A404FF6F5
:10196000FF452A400D884FF6FF7606EA05252A43F3
:101970004DF6FF752B408D8906EA05352B434D88C2
:1019800006EA05352B430A4DA84202D0094DA8426C
:1019900008D14BF6FF752C400D8A4FF6FF7606EA0C
:1019A00085152C43848082838D680564038470BD13
:1019B00000000140000401400A460021818B4FF2E3
:1019C000FF7319404FF6FF7303EA02231943818323
:1019D000704741627047000000220288184B98420D
:1019E0000ED0184B98420BD0B0F1804F08D0164B58
:1019F000984205D0154B984202D0154B984204D11D
:101A00004FF68F731A404B881A43124B984207D0F7
:101A1000114B984204D04FF6FF431A400B891A43EA
:101A200002804B68C3620B880385054B984202D045
:101A3000044B984201D18B7A03860123838270473D
:101A40000000014000040140000400400008004084
:101A5000000C0040001000400014004004480068E2
:101A600020B103480068401E01490860704700002B
:101A70001C00002070B506460D46002435F8140001
:101A800081B21C4800F009F900BF1A48008800F034
:101A900040000028F9D001241BE015F81410154867
:101AA00000F0FBF800BF1348008800F04000002859
:101AB000F9D035F81400C0F307210E4800F0EDF816
:101AC00000BF0C48008800F040000028F9D0601CDE
:101AD000C4B2701EA042E0DC35F8140081B20548A3
:101AE00000F0DBF800BF0348008800F04000002849
:101AF000F9D070BD0010014021B1828942F400523A
:101B0000828104E082894DF6FF731A40828170471A
:101B10001FB500F021F800F0ADF801211020FFF70B
:101B200037F84FF4E13000900020ADF80400ADF834
:101B30000600ADF80800ADF80C000C20ADF80A0066
:101B40006946044800F02CF801210248FFF7D4FF51
:101B50001FBD0000001001401CB501210846FEF722
:101B6000E7FF072209210D48FEF7F4FC07220A21AE
:101B70000A48FEF7EFFC4FF4C060009002208DF899
:101B800004008DF8050000208DF8060001208DF876
:101B9000070069460148FEF795FC1CBD00000240A5
:101BA0002DE9FF4705460E460024A14600BFA0468A
:101BB000B08900B100BF2C8A24F44054F08804435B
:101BC0002C82AC8941F20C608443B088318908438F
:101BD000718908430443AC81AC8A24F44074B08911
:101BE0000443AC826846FEF7F3FF2048854202D0EA
:101BF0001F48854202D1DDF80C9001E0DDF8089025
:101C0000A88900F4004040B109EBC90000EB0910BD
:101C100031684900B0FBF1F707E009EBC90000EBC0
:101C2000091031688900B0FBF1F76420B7FBF0F0D0
:101C300004012009642101FB1078A88900F4004008
:101C400040B1322000EBC800B0FBF1F000F007001B
:101C5000044308E0322000EB08106421B0FBF1F0EF
:101C600000F00F0004432C81BDE8FF870010014005
:101C70000014014008B54FF4C060FEF79BFE25201C
:101C80008DF8000001208DF801008DF802008DF81C
:101C900003006846FEF752FE08BDC1F308028280C9
:101CA000704700BFFEE770B503461E689D6DAC1B14
:101CB000002C01DB254600E065420AB9322600E02F
:101CC000C826B54203DD0C7814B9002000E00120DD
:101CD00070BD00BF70470000ADF53E7D002009904B
:101CE0000890894B0FCBCDE90623CDE904010125EE
:101CF000FFF79EF8FFF70CFFFEF7EEFAFFF7C2FBC7
:101D0000FEF7FDFDFEF7D0FB0AA828A946AB64AAA2
:101D1000CDE9001082A9A0A8FEF78CFC01207B4928
:101D2000087000207A49087041F20341A0A881653B
:101D300064A8816528A881654FF4227182A8816515
:101D40004FF4207146A881654FF422710AA881657D
:101D5000D8E0704800880028FAD101206B4908704B
:101D600005206C4908802A4608A9A0A8FFF79BFF18
:101D700006462A4609A982A8FEF709FB0446D6B9F9
:101D80003DB90321A0A8416264A8416228A841622C
:101D900006E01C21A0A8416264A8416228A8416213
:101DA0000AA828A946AB28AACDE9001064A9A0A8D2
:101DB000FEF78AFD09E00AA828A946AB28AACDE9C2
:101DC000001064A9A0A8FEF71AFCC4B935B91C21FB
:101DD00082A8416246A84162139105E0032182A8CE
:101DE000416246A8416213910AA828A946AB0AAAF3
:101DF000CDE9001046A982A8FEF766FD09E00AA811
:101E000028A946AB0AAACDE9001046A982A8FEF788
:101E1000F6FB012C0DD1012E0BD19DF8200028B925
:101E20009DF8240010B9012039490870012008905C
:101E3000099039480088002858D14FF4FA70364983
:101E4000088045BBA0A8806D41F203410144A0A8D1
:101E5000816564A8806D41F20341014464A88165F5
:101E600028A8806D41F20341014428A8816582A819
:101E7000806D00F5227082A9886546A8806D00F506
:101E8000227046A988650AA8806D00F520700AA90D
:101E90008865012527E0A0A8806D00F52270A0A923
:101EA000886564A8806D00F5227064A9886528A8FB
:101EB000806D00F5207028A9886582A8806D41F2A8
:101EC0000341014482A8816546A8806D41F2034127
:101ED000014446A881650AA8806D41F2034101448E
:101EE0000AA8816500250020089009900AA828A961
:101EF00046AA64ABCDE90021029082AAA0A904A859
:101F0000FEF752FF25E70000281F00080000002010
:101F10000400002002000020060000204FF0407066
:101F2000E1EE100A704700005000000000000000C1
:101F30000000000000004500581F000800000020BD
:101F400034000000C40100088C1F00083400002089
:101F500064060000E0010008000005000000F40134
:101F6000007A030A000000000000000001020304E0
:101F70000607080900000000000000000000000043
:0C1F800001020304010203040607080923
:040000050800018965
:00000001FF
