:020000040800F2
:10000000A006002031020008BF0B0008D707000837
:10001000BB0B0008F7050008912000080000000055
:10002000000000000000000000000000750F000844
:10003000FB050008000000004D0C0008E51000085A
:100040004B0200084B0200084B0200084B0200085C
:100050004B0200084B0200084B0200084B0200084C
:100060004B0200084B0200084B0200084B0200083C
:100070004B0200084B0200084B0200084B0200082C
:100080004B0200084B0200084B0200084B0200081C
:100090004B0200084B0200084B0200084B0200080C
:1000A0004B0200084B0200084B0200084B020008FC
:1000B0004B0200084B0200084B0200084B020008EC
:1000C0004B0200084B0200084B0200084B020008DC
:1000D0004B0200084B0200084B020008191E0008E2
:1000E0004B0200084B0200084B0200084B020008BC
:1000F0004B0200084B0200084B0200084B020008AC
:100100004B0200084B0200084B0200084B0200089B
:100110004B0200084B0200084B0200089116000831
:100120004B0200084B0200084B0200084B0200087B
:100130004B0200084B0200084B0200084B0200086B
:100140004B0200084B0200084B0200084B0200085B
:100150004B0200084B0200084B0200084B0200084B
:100160004B0200084B0200084B0200084B0200083B
:100170004B0200084B0200084B0200084B0200082B
:100180004B0200084B02000800F002F800F041F8B2
:100190000AA090E8000C82448344AAF10107DA45E2
:1001A00001D100F036F8AFF2090EBAE80F0013F0F3
:1001B000010F18BFFB1A43F001031847B82A0000CB
:1001C000D82A0000103A24BF78C878C1FAD852075C
:1001D00024BF30C830C144BF04680C6070470000C1
:1001E0000023002400250026103A28BF78C1FBD840
:1001F000520728BF30C148BF0B607047642900F028
:100200007980002070471FB502F027FD1FBD10B593
:1002100010BD00F037F91146FFF7F5FF01F070FF50
:1002200000F055F903B4FFF7F2FF03BC01F058FFEB
:100230000948804709480047FEE7FEE7FEE7FEE77A
:10024000FEE7FEE7FEE7FEE7FEE7FEE704480549B6
:10025000054A064B70470000551100088901000847
:10026000A0000020A0060020A0020020A002002084
:10027000704700000FB4044910B503AA029800F0BB
:10028000D3F810BC5DF814FB2C0000202DE9F041E0
:100290000E460446002020622046E168884730B3BD
:1002A000252805D0D4E901219047206A401CF2E7B7
:1002B000E168204600278847050018D0A5F14100D5
:1002C000192802D820354FF40067324629462046C7
:1002D0002760FFF793FF40B1012804D0F61D26F0F8
:1002E00007060836D8E7361DD6E72846DAE7206A3B
:1002F000BDE8F0812DE9F04106460024106875291B
:10030000314616A510D0AFF30080002802DA404233
:1003100013A507E031688A0701D512A502E0490755
:1003200004D511A5012401E0AFF3008000210A22C9
:1003300006F1240709E0B0FBF2FCB0FBF2F302FB8C
:100340001C00303078541846491C0028F3D123464D
:100350002A463046BDE8F04100F00CB8000000002D
:100360002D0000002B0000002000000070477047A7
:10037000704770472DE9F0470D469946924604466E
:1003800000F124080168880604D5E06921F0100115
:10039000216000E00120A84201DD471B00E00027AA
:1003A000A1697A1902EB0900081AA0612078C00639
:1003B00002D42046AFF30080002608E0D4E90121F2
:1003C0001AF806009047206A401C761C20624E45B1
:1003D000F4DB2078C0060AD52046AFF3008006E0A3
:1003E000D4E9012130209047206A401C2062381E49
:1003F000A7F10107F4DC07E0D4E9012118F80500B2
:100400009047206A401C2062281EA5F10105F3DCFC
:100410002046AFF300802078000602D50220BDE818
:10042000F0870120FBE70000074B70B50D467B44C9
:1004300000F011F80446284600F020F810B14FF003
:10044000FF3070BD204670BDB31C000001694A1C1E
:1004500002610878704700B58FB0CDE90131002105
:10046000059105497944CDE9031011466846FFF727
:100470000DFF0FB000BD0000E5FFFFFF007B00F0A7
:1004800080007047754600F02BF8AE4605006946BF
:10049000534620F00700854618B020B5FFF7D6FE7A
:1004A000BDE820404FF000064FF000074FF0000875
:1004B0004FF0000B21F00701AC46ACE8C009ACE8F6
:1004C000C009ACE8C009ACE8C0098D46704710B55A
:1004D0000446AFF300802046BDE81040FFF7A2BEFF
:1004E00000487047400000201FB500F04BF800F0B6
:1004F00025F80121880400F089FC4FF4E1300090D8
:100500000020ADF80400ADF80600ADF80800ADF825
:100510000C000C20ADF80A006946074801F032FDD6
:100520000121054801F08AFC012240F225510248D0
:1005300001F002FD1FBD0000004800401CB5012174
:10054000022000F053FC07220A210D4800F020F998
:1005500007220B210A4800F01BF94FF4406000907D
:1005600002208DF804008DF8050000208DF80600AB
:1005700001208DF807006946014800F0C1F81CBD54
:100580000004024008B54FF4806000F055FB2720BE
:100590008DF8000001208DF801008DF802008DF823
:1005A0000300684600F00CFB08BD2DE9F04104464D
:1005B0000E46174694ED1A1BB0EE410AF0EE610AA2
:1005C00051EC100B02F048F92168A0EB0108B8F1DA
:1005D000000F01DB404601E0C8F100000FB9C8215F
:1005E00000E04621884202DD16B9002500E0012521
:1005F0002846BDE8F08100BFFEE7704710B501F066
:100600007DF801F0A5F810BD10B500F09BFF00F0DB
:10061000C5FF10BD10B500F057FE00F087FE10BDFD
:1006200010B500F0FBFD00F025FE10BD10B500F088
:10063000A7FE00F011FF10BD10B500F0D9FF01F0CA
:1006400001F810BD70B50546072D3DD2DFE805F075
:100650003C040D16212A33001D4801F0E2F904B2D2
:1006600000211B4801F045FB2FE01A4801F0D9F9A1
:1006700004B20021174801F03CFB26E04FF0804017
:1006800001F0CFF904B200214FF0804001F031FBBE
:100690001BE0114801F0C5F904B200210E4801F039
:1006A00028FB12E00D4801F0BCF904B200210B4810
:1006B00001F01FFB09E00A4801F0B3F904B2002180
:1006C000074801F016FB00E000BF00BF204670BDE8
:1006D0000004014000080040000001400004004008
:1006E000000C004010B5FFF789FFFFF78DFFFFF703
:1006F00091FFFFF795FFFFF799FFFFF79DFF10BDF3
:10070000F0B50A4600210023002400BF3DE001258A
:1007100005FA01F3156805EA03049C4234D1056823
:100720004F000326BE40B543056015794E00B54025
:100730000668354305601579012D02D01579022D23
:1007400016D185684F000326BE40B54385605579B4
:100750004E00B540866835438560456801268E4069
:10076000B5434560456896798E40B6B235434560DD
:10077000C5684F000326BE40B543C560D5794E001D
:10078000B540C6683543C560491C1029BFD3F0BDCC
:10079000F0B5002300244D07ED0E02FA05F3CE104C
:1007A00000F1200555F826504E07F70E0F26BE40E3
:1007B000B543CF1000F1200646F82750CE1000F1C7
:1007C000200555F8265045EA0304CE1000F1200517
:1007D00045F82640F0BD00BFFEE7000070B5DDE93A
:1007E000045440F2DF560660134E0E60124E133E64
:1007F000166040F2DC561E600F4E0A3E2E600E4E12
:10080000173E26609FED0D0B80ED1A0B9FED0B0B35
:1008100082ED1A0B9FED090B85ED1A0B9FED090B6D
:1008200081ED1A0B9FED070B83ED1A0B9FED050B66
:1008300084ED1A0B70BD000095F9FFFF0000000069
:1008400000007E4000000000000064C070B5044657
:100850000D46164604F1500000F0F9F905F150007C
:1008600000F0F5F906F1500000F0F1F994ED220ADC
:1008700010EE101A084602F07FF9C4E90A0195ED5E
:10088000220A10EE101A084602F076F9C5E90A01AC
:1008900096ED220A10EE101A084602F06DF9C6E92C
:1008A0000A0132462946204600F0E6F870BD70B5D0
:1008B00006460C461546304600F069F9204600F021
:1008C00066F9284600F063F92A4621463046FFF7CC
:1008D000BDFF70BD2DE9F04704460D4616461F4684
:1008E000DDE908890120207302202873032030737A
:1008F00004203873052088F80C00062089F80C00C5
:100900004FF47A7341F2680200219FED551AF1EE1F
:10091000040A9FED540A04F1100000F03DFA4FF470
:100920007A731A460A21B7EE001ADFED4D0A9FEDE1
:100930004E0A04F1500000F02FFA4FF47A7341F29E
:10094000680200219FED461AF1EE040A9FED450A68
:1009500005F1100000F020FA4FF47A731A460A21CC
:10096000B6EE001ADFED3E0A9FED3F0A05F150009A
:1009700000F012FA4FF47A7341F2680200219FED01
:10098000381AF1EE040A9FED370A06F1100000F064
:1009900003FA4FF47A731A460A219FED311ADFEDFC
:1009A000300A9FED310A06F1500000F0F5F94FF4DE
:1009B0007A7341F268020021B7EE001AF0EE080ADD
:1009C0009FED2A0A07F1100000F0E6F94FF47A7360
:1009D0001A460F219FED221ADFED210A9FED220A10
:1009E00007F1500000F0D8F94FF47A7341F2680231
:1009F00000219FED1B1AF1EE040A9FED1D0A08F17C
:100A0000100000F0C9F94FF47A7328220A219FEDF3
:100A1000141ADFED130A9FED140A08F1500000F0DC
:100A2000BBF94FF47A7341F2680200219FED0C1A72
:100A3000F1EE040A9FED0F0A09F1100000F0ACF985
:100A40004FF47A731A460A219FED051ADFED040A66
:100A50009FED050A09F1500000F09EF9BDE8F0870E
:100A60000000000000800944CDCCCC3D0000FA43DA
:100A70000000164400C00F4470B506460C461546EB
:100A800006F1100000F0E3F804F1100000F0DFF8C8
:100A900005F1100000F0DBF896ED120A86ED020A6F
:100AA00094ED120A84ED020A95ED120A85ED020A10
:100AB00096ED020ADFED270AB4EEE00AF1EE10FA35
:100AC00004DD9FED240A86ED020A0CE096ED020A91
:100AD000DFED210AB4EEE00AF1EE10FA03D29FED49
:100AE0001E0A86ED020A94ED020ADFED1A0AB4EE40
:100AF000E00AF1EE10FA04DD9FED160A84ED020A19
:100B00000CE094ED020ADFED140AB4EEE00AF1EE17
:100B100010FA03D29FED100A84ED020A95ED020A45
:100B2000DFED0C0AB4EEE00AF1EE10FA04DD9FED01
:100B3000090A85ED020A0CE095ED020ADFED060ACE
:100B4000B4EEE00AF1EE10FA03D29FED030A85ED50
:100B5000020A70BD00408345004083C570B506465B
:100B60000C461546304600F012F8204600F00FF80B
:100B7000284600F00CF82A4621463046FFF77CFF55
:100B800070BD10B500F026FC00F090FC10BD70B5F3
:100B90000446207BFFF756FD054620682844206068
:100BA00041F28461206890FBF1F201FB120000B277
:100BB000A08021682167256370BD00BFFEE77047F4
:100BC00070B5002100230F22C4781CB3174C246891
:100BD00004F4E064C4F5E064C4F30721C1F1040443
:100BE000E3B20A4144789C40E1B284781440214346
:100BF0000C07210E0E4C05786155047804F01F0592
:100C00000124AC4005786D11AD0005F1E025C5F873
:100C1000004109E0047804F01F050124AC40054DB3
:100C20000678761145F8264070BD00000CED00E016
:100C300000E400E080E100E002490143024A116063
:100C4000704700000000FA050CED00E0704710B599
:100C50002DED048B0446206A01F02DFE41EC190BAA
:100C600094ED061BB0EE410AF0EE610A53EC102B36
:100C700001F08CFE41EC180B01F0EEFD00B2A084F7
:100C8000B4F92400002801DB014600E04142B4F938
:100C90000C20914202DA0020A0842085D4ED000AC5
:100CA000B4F9240000EE100AB8EEC00A20EE800A63
:100CB00084ED0B0AD4ED010AB4F9280000EE100A05
:100CC000B8EEC00A20EE800A84ED0C0AB4F92400C4
:100CD000B4F92610401A00EE100AB8EEC00AD4ED9E
:100CE000020A20EE200A84ED0D0A94ED0B0AD4EDE1
:100CF0000C0A30EE200AD4ED0D0A30EE200A84ED05
:100D00000E0AD4ED0E0AB4F90E0000EE100AB8EE89
:100D1000C00AF4EEC00AF1EE10FA08DDB4F90E00D4
:100D200000EE100AB8EEC00A84ED0E0A16E0D4ED0B
:100D30000E0AB4F90E00404200EE100AB8EEC00AE6
:100D4000F4EEC00AF1EE10FA08D2B4F90E004042F7
:100D500000EE100AB8EEC00A84ED0E0A208DA18CB8
:100D6000084400B22085B4F92800B4F91010884274
:100D700002DD208A20850AE0B4F92800B4F91010B9
:100D80004942884203DA208A404200B22085A08C82
:100D9000E084BDEC048B10BD10B580ED000AC0ED01
:100DA000010A80ED021A8181C28103829FED0C2B22
:100DB00080ED062B002404628484C4840485DFED66
:100DC0000A1AC0ED0B1ADFED081AC0ED0C1ADFEDA0
:100DD000061AC0ED0D1ADFED041AC0ED0E1A10BD93
:100DE00000000000000000000000000029B1064AD9
:100DF00012680243044B1A6004E0034A12688243FB
:100E0000014B1A60704700003038024029B1064A91
:100E100012680243044B1A6004E0034A12688243DA
:100E2000014B1A60704700004038024029B1064A61
:100E300012680243044B1A6004E0034A12688243BA
:100E4000014B1A60704700002038024029B1064A61
:100E500012680243044B1A6004E0034A126882439A
:100E6000014B1A60704700004438024029B1064A1D
:100E700012680243044B1A6004E0034A126882437A
:100E8000014B1A607047000024380240F0B5002181
:100E900000220024022500260223324F3F6807F07B
:100EA0000C0121B1042905D0082937D105E02E4FC6
:100EB000076036E02D4F076033E02A4F3F1F3F6841
:100EC000C7F38056274F3F1F3F6807F03F036EB1BF
:100ED000264FB7FBF3F7DFF88CC0ACF1040CDCF85D
:100EE00000C0CCF3881C07FB0CF40CE01E4FB7FBD2
:100EF000F3F7DFF870C0ACF1040CDCF800C0CCF301
:100F0000881C07FB0CF4174F3F1F3F68C7F30147CE
:100F10007F1C7D00B4FBF5F7076002E0124F07600D
:100F200000BF00BF0F4F3F6807F0F0010909104FE5
:100F30007A5C0768D74047600A4F3F6807F4E05182
:100F4000890A0B4F7A5C4768D7408760054F3F6836
:100F500007F46041490B064F7A5C4768D740C76089
:100F6000F0BD0000083802400024F40000127A00AE
:100F700030000020704700000CB500200190009068
:100F80003448006840F480303249086000BF31487E
:100F9000006800F4003000900198401C0190009817
:100FA00018B90198B0F5A04FF1D12A48006800F4B3
:100FB000003010B10120009001E000200090009866
:100FC000012846D123484030006840F08050214934
:100FD000403108602048006840F440401E490860E5
:100FE0001C48083000681B49083108600846006842
:100FF00040F4004008600846006840F4A0500860D3
:101000001648091F0860081F006840F08070091F1B
:10101000086000BF0F48006800F000700028F9D099
:1010200040F205700E4908600A480830006820F058
:1010300003000849083108600846006840F00200D3
:10104000086000BF03480830006800F00C00082862
:10105000F8D10CBD00380240007000400854400731
:10106000003C02402DE9F04704460D4616461F4657
:10107000DDE9099ADDF8208095ED020ABDEEC00A8F
:1010800010EE100A00B2608096ED020ABDEEC00AB2
:1010900010EE100A00B2A08097ED020ABDEEC00A61
:1010A00010EE100A00B2E08098ED020ABDEEC00A10
:1010B00010EE100A00B2208199ED020ABDEEC00ABE
:1010C00010EE100A00B260819AED020ABDEEC00A6D
:1010D00010EE100A00B2A0812146082000F05AFE4E
:1010E000BDE8F08710B500F049FE10BD30B51648D8
:1010F00000684FF47A72B0FBF2F1481EB0F1807FC5
:1011000001D301201BE0481E4FF0E0225061501730
:101110000F22002807DA13071D0E0C4B00F00F04F6
:10112000241F1D5503E013071C0E094B1C5400BF60
:1011300000204FF0E022906107201061002008B1EC
:1011400000BFFEE730BD00001000002018ED00E0F9
:1011500000E400E010B51548006840F47000134941
:1011600008601348006840F0010011490860002041
:101170000F49083108600E4800680E4908400C49C4
:1011800008600D48091D0860081F006820F48020D1
:10119000091F0860002006490C310860FFF7ECFECB
:1011A0004FF0006001498039086010BD88ED00E013
:1011B00000380240FFFFF6FE103000242DE9FC4706
:1011C00006460F4690469946DDE90A45FFF78EFF31
:1011D00000F040FEFFF788F900F0E4FAFFF7D1FCD9
:1011E000FFF780FA4B46424639463046CDE9004586
:1011F000FFF770FB4B46424639463046CDE9004585
:10120000FFF7ECFA0120034908700020024908703A
:10121000BDE8FC8700000020040000201CB501216F
:101220001020FFF7E3FD012209211148FFF7B0FA72
:101230004FF40070009002208DF8040003208DF818
:10124000050000208DF8060001208DF80700694692
:101250000748FFF755FA01220B210548FFF798FAD6
:101260004FF40060009069460148FFF749FA1CBD41
:10127000001002400EB501210846FFF7E7FD1148B6
:1012800000F0E6FA0020ADF800001020ADF80200F2
:101290004FF6FF7001900020ADF80800694609483C
:1012A00000F02AFD02231A460321064800F098FBAD
:1012B0000021044800F01DFD0121024800F0BCFAA5
:1012C0000EBD0000000001401CB501210220FFF707
:1012D0008DFD01210846FFF789FD01220F211148EC
:1012E000FFF756FA4FF40040009002208DF80400FA
:1012F00003208DF8050000208DF8060001208DF8F0
:10130000070069460748FFF7FBF901220321064859
:10131000FFF73EFA0820009069460348FFF7F0F90E
:101320001CBD000000000240000402400EB5012177
:101330000846FFF76BFD4FF0804000F089FA00206F
:10134000ADF800001020ADF802004FF6FF700190DC
:101350000020ADF8080069464FF0804000F0CCFC5A
:1013600002231A460321580700F03AFB00214FF0F0
:10137000804000F0BEFC0121880700F05DFA0EBD40
:101380001CB501210846FFF731FD02220621104855
:10139000FFF7FEF94020009002208DF804000320A2
:1013A0008DF8050000208DF8060001208DF807005B
:1013B00069460748FFF7A4F9022207210448FFF70E
:1013C000E7F98020009069460148FFF799F91CBDB4
:1013D000000002401CB501210320FFF707FD022297
:1013E00006211B48FFF7D4F94020009002208DF819
:1013F000040003208DF8050000208DF80600012070
:101400008DF8070069461248FFF77AF90222072192
:101410000F48FFF7BDF98020009069460C48FFF7A0
:101420006FF9022200210B48FFF7B2F9012000906A
:1014300069460848FFF764F9022201210548FFF7D1
:10144000A7F90220009069460248FFF759F91CBD30
:1014500000000240000402400EB501210220FFF707
:10146000D5FC114800F0F4F90020ADF80000102080
:10147000ADF802004FF6FF7001900020ADF80800B3
:101480006946094800F038FC02230022032106487F
:1014900000F0A6FA0021044800F02BFC01210248CC
:1014A00000F0CAF90EBD00000004004000B589B08C
:1014B00001210220FFF7AAFC0020ADF81800ADF8CA
:1014C0001A0041F2670007900020ADF8200006A93D
:1014D0001B4800F011FC6020ADF804000120ADF8BD
:1014E000060000200390ADF8100001A9144800F098
:1014F000B5FA01A9124800F0F9FA01A9104800F064
:1015000055FB01A90E4800F0ABFB08210C4800F088
:10151000E3FA08210A4800F03BFB0821084800F0E4
:1015200095FB0821064800F0D7FB0121044800F094
:1015300074F90121024800F07FF909B000BD0000F4
:10154000000400401CB501210820FFF74FFC0222D7
:101550000C211148FFF71CF94FF480500090022035
:101560008DF8040003208DF8050000208DF806009A
:1015700001208DF8070069460748FFF7C1F80222ED
:101580000D210548FFF704F94FF40050009069461B
:101590000148FFF7B5F81CBD000C02400EB5012153
:1015A0000420FFF733FC114800F052F90020ADF899
:1015B00000001020ADF802004FF6FF7001900020EF
:1015C000ADF808006946094800F096FB02231A4668
:1015D0000321064800F004FA0021044800F089FBCA
:1015E0000121024800F028F90EBD0000000800406B
:1015F0001CB501210846FFF7F9FB02220021104823
:10160000FFF7C6F80120009002208DF804000320A7
:101610008DF8050000208DF8060001208DF80700E8
:1016200069460748FFF76CF8022201210448FFF7DA
:10163000AFF80220009069460148FFF761F81CBD31
:10164000000002400EB501210820FFF7DFFB00205B
:10165000ADF800001020ADF802004FF6FF700190C9
:101660000020ADF808006946084800F045FB022359
:1016700000220321054800F0B3F90021034800F0DF
:1016800038FB0121014800F0D7F80EBD000C0040E6
:1016900010B50121144800F0C7F920B313480078B1
:1016A00001280AD112480088401E114908800846C6
:1016B000008810B900200D4908700E4800780128F4
:1016C0000DD10D48008820B10B480088401E0A4902
:1016D00008800948008810B90020064908700121D7
:1016E000014800F0A6F810BD0014004000000020E2
:1016F0000200002004000020060000201CB501218B
:101700000420FFF773FB032206211048FFF740F87F
:101710004020009002208DF8040003208DF8050081
:1017200000208DF8060001208DF807006946074863
:10173000FEF7E6FF032207210448FFF729F880207F
:10174000009069460148FEF7DBFF1CBD000802401F
:101750000EB501210220FFF779FB114800F078F85F
:101760000020ADF800001020ADF802004FF6FF7029
:1017700001900020ADF808006946094800F0BCFA65
:1017800002231A460321064800F02AF900210448E2
:1017900000F0AFFA0121024800F04EF80EBD000043
:1017A000000401400EB501212020FFF72FFB00F0BF
:1017B0001FF80E4800F04CF85320ADF80000002050
:1017C000ADF802004FF47A7001900020ADF80800E7
:1017D0006946064800F090FA01221146034800F0DD
:1017E00034F90121014800F027F80EBD0014004033
:1017F00008B54FF4C060FFF71FFA37208DF80000DE
:1018000001208DF8010003208DF8020001208DF8E1
:1018100003006846FFF7D4F908BD21B1028842F001
:101820008002028004E002884FF67F731A40028033
:101830007047CA430282704721B1028842F0010218
:10184000028004E002884FF6FE731A40028070475F
:1018500010B504465548844208D101210846FFF7D7
:1018600005FB00210120FFF701FB9DE0B4F1804F53
:1018700008D101210846FFF7D9FA00210120FFF71E
:10188000D5FA91E04A48844208D101210220FFF7AD
:10189000CDFA00210220FFF7C9FA85E045488442CD
:1018A00008D101210420FFF7C1FA00210420FFF72D
:1018B000BDFA79E04048844208D101210820FFF7B1
:1018C000B5FA00210820FFF7B1FA6DE03B488442E9
:1018D00008D101211020FFF7A9FA00211020FFF7FD
:1018E000A5FA61E03648844208D101212020FFF7A3
:1018F0009DFA00212020FFF799FA55E031488442F3
:1019000008D101210220FFF7B1FA00210220FFF7E0
:10191000ADFA49E02C48844209D101210804FFF7BF
:10192000A5FA00214FF48030FFF7A0FA3CE02748E9
:10193000844209D101214804FFF798FA00214FF4AD
:101940000030FFF793FA2FE02148844209D10121AA
:101950008804FFF78BFA00214FF48020FFF786FA06
:1019600022E01C48844208D101214020FFF75EFAA2
:1019700000214020FFF75AFA16E01748844208D1A8
:1019800001218020FFF752FA00218020FFF74EFA54
:101990000AE01248844207D101218015FFF746FA78
:1019A0000021A015FFF742FA10BD00000000014021
:1019B0000004004000080040000C004000100040FF
:1019C0000014004000040140004001400044014078
:1019D0000048014000180040001C0040002000406A
:1019E000F0B50C4615461E46002100220023018951
:1019F000028B038C4FF6F877394021434FF6FC47B2
:101A00003A4040F201173A434FF6DD773B404FF63C
:101A1000FF7707EA06172F433B43018102830384C4
:101A2000F0BD0146486A704730B5024600200023E9
:101A30000024158A05EA0103958905EA010413B11A
:101A40000CB1012000E0002030BD1AB183890B43A6
:101A5000838102E083898B438381704770B50024C2
:101A600000220023058C4FF6FE7635400584028C5B
:101A70008388048B4FF68F752C40B51E2C400D8843
:101A80002C43751E2A408D892A434D882A43104DC8
:101A9000A84202D00F4DA84213D14FF6F7752A4045
:101AA000CD892A434FF6FB752A408D882A434FF68D
:101AB000FF652B404FF6FF552B400D8A2B434D8A77
:101AC0002B43838004838D684563028470BD0000CE
:101AD00000000140000401400A460021018B4FF63E
:101AE000F7731940114301837047000070B500245B
:101AF00000220023058C4FF6EF7635400584028CDA
:101B00008388048B48F6FF752C404FF6FF452C4028
:101B10000D884FF6FF7606EA05252C434FF6DF7554
:101B20002A408D8906EA05152A434D8806EA0515DF
:101B30002A43154DA84202D0144DA8421DD14FF69C
:101B40007F752A40CD894FF6FF7606EA05152A43B0
:101B50004FF6BF752A408D8806EA05152A434FF6D1
:101B6000FF352B404FF2FF752B400D8A06EA8505A5
:101B70002B434D8A06EA85052B43838004838D68B9
:101B80008563028470BD0000000001400004014034
:101B90000A460021018B4FF2FF7319404FF6FF7385
:101BA00003EA0223194301837047000070B5002443
:101BB00000220023058C4FF6FF6635400584028C19
:101BC0008388848B4FF68F752C404FF6FC752C4024
:101BD0000D882C434FF6FF552A408D894FF6FF762E
:101BE00006EA05252A434D8806EA05252A43154DB0
:101BF000A84202D0144DA8421DD14FF2FF752A40D1
:101C0000CD894FF6FF7606EA05252A434FF6FF35C4
:101C10002A408D8806EA05252A434EF6FF752B409B
:101C20004DF6FF752B400D8A06EA05152B434D8AAC
:101C300006EA05152B43838084838D68C56302847F
:101C400070BD000000000140000401400A46002170
:101C5000818B4FF6F7731940114381837047000061
:101C600070B5002200230024058C4EF6FF76354027
:101C70000584038C8488828B48F6FF752A404FF6D2
:101C8000FF452A400D884FF6FF7606EA05252A43D0
:101C90004DF6FF752B408D8906EA05352B434D889F
:101CA00006EA05352B430A4DA84202D0094DA84249
:101CB00008D14BF6FF752C400D8A4FF6FF7606EAE9
:101CC00085152C43848082838D680564038470BDF0
:101CD00000000140000401400A460021818B4FF2C0
:101CE000FF7319404FF6FF7303EA02231943818300
:101CF000704741627047000000220288184B9842EA
:101D00000ED0184B98420BD0B0F1804F08D0164B34
:101D1000984205D0154B984202D0154B984204D1F9
:101D20004FF68F731A404B881A43124B984207D0D4
:101D3000114B984204D04FF6FF431A400B891A43C7
:101D400002804B68C3620B880385054B984202D022
:101D5000044B984201D18B7A03860123838270471A
:101D60000000014000040140000400400008004061
:101D7000000C0040001000400014004004480068BF
:101D800020B103480068401E014908607047000008
:101D90002400002070B506460D46002435F81400D6
:101DA00081B21C4800F070F900BF1A48008800F0AA
:101DB00040000028F9D001241BE015F81410154844
:101DC00000F062F900BF1348008800F040000028CE
:101DD000F9D035F81400C0F307210E4800F054F98B
:101DE00000BF0C48008800F040000028F9D0601CBB
:101DF000C4B2701EA042E0DC35F8140081B2054880
:101E000000F042F900BF0348008800F040000028BD
:101E1000F9D070BD0010014010B540F225510548C1
:101E200000F060F820B1034800F029F90249087079
:101E300010BD0000004800400800002021B1828948
:101E400042F40052828104E082894DF6FF731A4009
:101E5000828170471FB500F021F800F0FDF80121E4
:101E60001020FEF7F3FF4FF4E13000900020ADF8B2
:101E70000400ADF80600ADF80800ADF80C000C2029
:101E8000ADF80A006946044800F07CF801210248D8
:101E9000FFF7D4FF1FBD0000001001401CB5012159
:101EA0000846FEF7A3FF072209210D48FEF770FC44
:101EB00007220A210A48FEF76BFC4FF4C06000902D
:101EC00002208DF804008DF8050000208DF8060032
:101ED00001208DF8070069460148FEF711FC1CBD82
:101EE0000000024070B502460024002300250020B7
:101EF00040F66A16B14200D100BFC1F3421501F0AD
:101F00001F03012606FA03F3012D02D196893340FF
:101F100006E0022D02D1168A334001E0968A334052
:101F20000C12012606FA04F41688344013B10CB1E1
:101F3000012000E0002070BDF0B50346002400261B
:101F40000025002040F66A17B94200D100BF1846AC
:101F5000C1F3421401F01F06012707FA06F5012C10
:101F600001D10C3004E0022C01D1103000E014301B
:101F70001AB107682F43076002E00768AF430760A4
:101F8000F0BD00002DE9FF4705460E460024A1469E
:101F900000BFA046B08900B100BF2C8A24F4405491
:101FA000F08804432C82AC8941F20C608443B088F1
:101FB00031890843718908430443AC81AC8A24F415
:101FC0004074B0890443AC826846FEF75FFF204846
:101FD000854202D01F48854202D1DDF80C9001E015
:101FE000DDF80890A88900F4004040B109EBC90071
:101FF00000EB091031684900B0FBF1F707E009EB8D
:10200000C90000EB091031688900B0FBF1F76420CA
:10201000B7FBF0F004012009642101FB1078A889C6
:1020200000F4004040B1322000EBC800B0FBF1F0FA
:1020300000F00700044308E0322000EB08106421A0
:10204000B0FBF1F000F00F0004432C81BDE8FF87E6
:10205000001001400014014008B54FF4C060FEF7C5
:10206000EBFD25208DF8000001208DF801008DF892
:1020700002008DF803006846FEF7A2FD08BD014688
:102080008888C0F308007047C1F308028280704757
:1020900000BFFEE72DE9F04104460E46174694EDD9
:1020A0001A1BB0EE410AF0EE610A51EC100B00F081
:1020B000D3FB2168A0EB0108B8F1000F01DB40461B
:1020C00001E0C8F100000FB9462100E0C8218842B4
:1020D00002DD16B9002500E001252846BDE8F081A3
:1020E00000BF704700BF054A128802F04002002A74
:1020F000F9D0C2B2014B1B1D1A8070470048004046
:10210000ADF5627D002009900890FE48D0E90053AB
:10211000D0E90212CDE90453CDE906120120039063
:10212000824600240AA82EA952AB76AACDE9001057
:102130009AA9BEA8FFF742F84DE1F34800880028AD
:10214000FAD10120F14908700520EF490880F048D4
:10215000007820B1EF480088401CEE490880ED4827
:102160000088B0F5C87F00D136E12EAA76A9BEA8B6
:10217000FEF79DFB0AAA52A99AA8FEF798FB9DEDCF
:10218000C00ADFEDE50AB4EEE00AF1EE10FA04DD74
:102190009FEDE10A8DEDC00A0CE09DEDC00ADFED78
:1021A000DF0AB4EEE00AF1EE10FA03D29FEDDB0A8B
:1021B0008DEDC00A9DED9C0ADFEDD70AB4EEE00A72
:1021C000F1EE10FA04DD9FEDD40A8DED9C0A0CE0CF
:1021D0009DED9C0ADFEDD10AB4EEE00AF1EE10FAB3
:1021E00003D29FEDCE0A8DED9C0A9DED780ADFEDBE
:1021F000CA0AB4EEE00AF1EE10FA04DD9FEDC60A59
:102200008DED780A0CE09DED780ADFEDC40AB4EE9E
:10221000E00AF1EE10FA03D29FEDC00A8DED780AC4
:102220009DED540ADFEDBC0AB4EEE00AF1EE10FABF
:1022300004DD9FEDB90A8DED540A0CE09DED540AC2
:10224000DFEDB60AB4EEE00AF1EE10FA03D29FED2C
:10225000B30A8DED540A9DED300ADFEDAF0AB4EEFE
:10226000E00AF1EE10FA04DD9FEDAB0A8DED300AC5
:102270000CE09DED300ADFEDA90AB4EEE00AF1EEC4
:1022800010FA03D29FEDA50A8DED300A9DED0C0AE0
:10229000DFEDA10AB4EEE00AF1EE10FA04DD9FEDE5
:1022A0009E0A8DED0C0A0CE09DED0C0ADFED9B0AF9
:1022B000B4EEE00AF1EE10FA03D29FED980A8DED2C
:1022C0000C0A0AA82EA952AA76ABCDE900210290E9
:1022D0009AAABEA904A8FEF7C5FE9DEDD81BB0EED4
:1022E000410AF0EE610A51EC100B00F0B5FABE990C
:1022F000A0EB010BBBF1000F01DB584601E0CBF175
:102300000000322867DA9DEDB41BB0EE410AF0EE12
:10231000610A51EC100B00F09FFA9A99A0EB0109A9
:10232000B9F1000F01DB484601E0C9F10000322895
:1023300051DA9DED901BB0EE410AF0EE610A51ECCE
:10234000100B00F089FA7699A0EB0108B8F1000FA4
:1023500001DB404601E0C8F1000032283BDA9DED88
:102360006C1BB0EE410AF0EE610A51EC100B00F06C
:1023700073FA5299471A002F01DB384600E0784281
:10238000322828DA9DED481BB0EE410AF0EE610AD2
:1023900051EC100B00F060FA2E99461A002E01DB6A
:1023A000304600E07042322815DA9DED241BB0EE75
:1023B000410AF0EE610A51EC100B00F04DFA0A9957
:1023C000451A002D01DB284600E06842322802DA77
:1023D00001204F490870B0E600BF8BE14A480088F1
:1023E0000028FAD101204949087005204649088093
:1023F0002246BEA80899FFF74DFE824622469AA8BB
:102400000999FEF7D2F80390BAF1000F1FD164B911
:102410009FED430B8DEDC80B9FED410B8DED800BB8
:102420009FED3F0B8DED380B0BE09FED3F0B8DEDDE
:10243000C80B9FED3D0B8DED800B9FED3B0B8DEDA4
:10244000380B2EAA76A9BEA8FEF788FB04E02EAAB8
:1024500076A9BEA8FEF72BFA0398F8B964B99FEDE8
:10246000320B8DEDA40B9FED300B8DED5C0B9FEDD2
:102470002E0B8DED140B0BE09FED290B8DEDA40BB6
:102480009FED270B8DED5C0B9FED250B8DED140B58
:102490000AAA52A99AA8FEF761FB04E00AAA52A967
:1024A0009AA8FEF704FA039801280CD1BAF1010F9B
:1024B00009D1089820B9099810B901201C49087061
:1024C0000120089009901B4801881BA0FDF7D2FE4F
:1024D0001848008800287CD119480078012878D154
:1024E000C8201449088064B99DEDD81BB0EE410A9C
:1024F000F0EE610A9FED131B53EC112B51EC100B06
:1025000024E081E0642C000802000020000000208C
:102510000C0000200A00002000006145000061C599
:1025200033333333333313400000000000003C40AA
:10253000040000200600002025640D0A00000000B1
:1025400008000020000000000003B44000F0DCF8A8
:10255000BEAAC2E91A019DED901BB0EE410AF0EE51
:10256000610A1FED081B53EC112B51EC100B00F00E
:10257000CBF876AAC2E91A019DED481BB0EE410ADC
:10258000F0EE610A1FED111B53EC112B51EC100BF7
:1025900000F0BAF82EAAC2E91A019DEDB41BB0EE04
:1025A000410AF0EE610A9FED541B53EC112B51ECE4
:1025B000100B00F0A9F89AAAC2E91A019DED6C1B54
:1025C000B0EE410AF0EE610A9FED4B1B53EC112B6C
:1025D00000E083E051EC100B00F096F852AAC2E93B
:1025E0001A019DED241BB0EE410AF0EE610A9FED49
:1025F000441B53EC112B51EC100B00F085F80AAA88
:10260000C2E91A01012466E09DEDD81BB0EE410A33
:10261000F0EE610A9FED381B53EC112B51EC100BBF
:1026200000F072F8BEAAC2E91A019DED901BB0EE4F
:10263000410AF0EE610A9FED301B53EC112B51EC77
:10264000100B00F061F876AAC2E91A019DED481B53
:10265000B0EE410AF0EE610A9FED291B53EC112BFD
:1026600051EC100B00F050F82EAAC2E91A019DEDB2
:10267000B41BB0EE410AF0EE610A1FED4E1B53ECA5
:10268000112B51EC100B00F03FF89AAAC2E91A0185
:102690009DED6C1BB0EE410AF0EE610A1FED571B79
:1026A00053EC112B51EC100B00F02EF852AAC2E99A
:1026B0001A019DED241BB0EE410AF0EE610A1FEDF8
:1026C0005F1B53EC112B51EC100B00F01DF80AAA04
:1026D000C2E91A0100240020089009900AA82EA936
:1026E00052AA76ABCDE9002102909AAABEA904A80D
:1026F000FEF7B8FC72E600000000000000408440D5
:10270000000000000000844010B591EA030F48BFAC
:1027100083F0004300F14E81841A71EB030C05D263
:10272000121943EB0C03001B61EB0C01DFF824E1F1
:102730004FEA1154A4EB135C1EEA430F18BF9EEA44
:10274000445F73D023EA0E03DCF1200E21EA04512A
:1027500043F4801332D322FA0CFE10EB0E0023FA5E
:102760000CFE41EB0E01CCF1200E03FA0EFE10EB35
:102770000E0051F10001B1F5801FCCF1200E32D2D4
:1027800001EB045112FA0EF2BDE8104058BF704739
:10279000401C38BF5FEA420218BF7047002814BFD0
:1027A00020F0010041F100014FEA410313F5001F41
:1027B00038BF7047A1F1C04100F0E2B8012A43EBF5
:1027C0000302ACF1200CDCF11F0E32BF4FF0000E03
:1027D00023FA0CF310EB030041EB0451B4EB115F4F
:1027E000D0D0A1EB045101F5801149085FEA300017
:1027F00001EB04510ED350F1000038BF12FA0EFE67
:1028000008D1BDE81040C9E7401C38BF5FEA42026A
:10281000CAD1C3E7BDE810404FEA410313F5001FDA
:1028200038BF7047A1F1C04100F0AAB89EEA445FEA
:1028300008D011EA5E0FBDE8104004BF01F000416E
:1028400000207047BDE8104070B500F04BF800BFA5
:1028500064FBBE3E0000E0FF4FEA41034FEA5353E2
:10286000A3F58063D3F11E03C8BFD3F1210C0CDDA7
:102870004FF0004242EAC12242EA505232FA03FCCF
:102880008CEAE17CACEBE1707047102BC4BF0020F8
:10289000704703F5787CBCF1FF3F04D06FF0004235
:1028A00082EA2100704770B500F01CF8499224803C
:1028B00000207047F2E710F0004248BF4042B0FAF3
:1028C00080F310FA03F10AD0C3F11D0303F580630E
:1028D0004FEA415002EB035202EBD12170474FF017
:1028E000000070470EF1020E2EF0030E5EF8046B2E
:1028F000364205D4012A43EB030515F5001F12D813
:10290000012841EB010C1CF5001F0CD80ED14FEA39
:10291000D17C15F5001F0CEB4C0C0CF1020C08BF20
:102920004CEBD37C04E04FF0080C01E04FEAD37C81
:102930000CEB4C0526FA05F606F00706B6F1040C7A
:1029400006D20EEB860CBDE870404CF0010C6047DF
:10295000DFE80CF0090B02024FF000414FF00000DD
:10296000A1F5002170BD19461046012851EB010464
:1029700018BFD4F5001484BF002001F0004170BDE1
:102980000808A0F500114FEA3101704791EA030FE2
:1029900010B581F000413FF5BFAE83F0004300F079
:1029A00009B8000010B591EA030F48BF83F0004357
:1029B0003FF5B2AE841A71EB030C07D212198CF0FA
:1029C000004C43EB0C03001B61EB0C01DFF8A4E1AE
:1029D0004FEA1154A4EB135C1EEA430F18BF9EEAA2
:1029E000445F00F0B08023EA6E03524221EA0451B2
:1029F000C3EB6E0338BF5B1EDCF1200E25D322FA39
:102A00000CFE10EB0E0043FA0CFE41EB0E01CCF174
:102A1000200E03FA0EFE10EB0E0051F10001CCF176
:102A2000200E29D412FA0EF201EB0451BDE8104039
:102A300058BF7047401C1CBFB2F1004F70470028C0
:102A40000CBF491C20F00100704712EB020E43EB53
:102A5000030218BF4FF0010E4EEA4202ACF1200C07
:102A6000DCF11E0E54D943FA0CFE10EB0E0051F1AE
:102A7000FF31CCF11E0ED5D50EF1010E12FA0EFE6D
:102A8000404141EB010101EB445C5FEA5C5C10D921
:102A900010EBDE7001EB045138BFBEF1004FBDE812
:102AA000104018BF704700280CBF491C20F00100DF
:102AB000704730D24FEAD42C11F5001124F4006491
:102AC0001BD0B1FA81F20B3AA41AA41ED2F1200352
:102AD000914030FA03F31943904001EBCC71002C84
:102AE00001EB0451BDE81040A8BF704701F1C0419F
:102AF0004FF0000001F000417047B0FA80F310FA87
:102B000003F100D110BDE41A173C4805C90AE4E7F7
:102B100001EB045110BD491001EB0451BDE8104018
:102B20004FEA300002E04FF0000170474A0008BF52
:102B30000042F8D0B2F5001F28BF704701F00041F5
:102B40004FF0000070479EEA445F07D011EA5E0F25
:102B5000BDE8104004BF002100207047BDE81040D0
:102B600070B5FFF7BFFE00BF40DFF63E83F00041C7
:102B7000104670470000E0FF43004FEAD30C4FEAD5
:102B80003C0C43401FBF40070CF1605113F0FE4F57
:102B900070471CF0006F03D100200CF0004170471B
:102BA0000CF0004343EA507010B540EACC0000F04E
:102BB0000EF800BF000000924FEA0001FFF7E0BEF0
:102BC0004FF000414FF00000A1F5002170470EF1D9
:102BD000020E2EF0030E5EF8044B244204D44FEA9A
:102BE0004102B2F17F4F11D84FEA4003B3F17F4F5A
:102BF0000CD80ED14FEAD07CB2F17F4F0CEB4C0CCD
:102C00000CF1020C08BF4CEBD17C04E04FF0080C37
:102C100001E04FEAD17C0CEB4C0324FA03F404F0FE
:102C20000704B4F1040C06D20EEB840CBDE810408E
:102C30004CF0010C6047DFE80CF0070802024FF08F
:102C40000040A0F5800010BD0846420018BFD2F138
:102C5000807288BF00F0004010BD4FF04070E1EE80
:102C6000100A704750000000000000000000000043
:102C700000004500942C00080000002040000000E7
:102C8000C4010008D42C00084000002060060000A9
:102C9000E0010008000005000000C800000000007E
:102CA00000000000007A030A00000000000000009D
:102CB00001020304060708090000000000000000EC
:102CC00000000000000000000102030401020304F0
:042CD00006070809E2
:040000050800018965
:00000001FF
