:020000040800F2
:100000009806002029020008ED080008C90500082C
:10001000E90800089B030008311D000800000000EB
:10002000000000000000000000000000A50C000817
:100030009F030008000000007D090008DD0D000896
:10004000430200084302000843020008430200087C
:10005000430200084302000843020008430200086C
:10006000430200084302000843020008430200085C
:10007000430200084302000843020008430200084C
:10008000430200084302000843020008430200083C
:10009000430200084302000843020008430200082C
:1000A000430200084302000843020008430200081C
:1000B000430200084302000843020008430200080C
:1000C00043020008430200084302000843020008FC
:1000D000430200084302000843020008B91A00085E
:1000E00043020008430200084302000843020008DC
:1000F00043020008430200084302000843020008CC
:1001000043020008430200084302000843020008BB
:100110004302000843020008430200085D13000880
:10012000430200084302000843020008430200089B
:10013000430200084302000843020008430200088B
:10014000430200084302000843020008430200087B
:10015000430200084302000843020008430200086B
:10016000430200084302000843020008430200085B
:10017000430200084302000843020008430200084B
:10018000430200084302000800F002F800F03CF8C7
:100190000AA090E8000C82448344AAF10107DA45E2
:1001A00001D100F031F8AFF2090EBAE80F0013F0F8
:1001B000010F18BFFB1A43F0010318478025000008
:1001C000A0250000103A24BF78C878C1FAD8520799
:1001D00024BF30C830C144BF04680C6070470000C1
:1001E0000023002400250026103A28BF78C1FBD840
:1001F000520728BF30C148BF0B6070471FB502F0DF
:1002000090FA1FBD10B510BD00F033F81146FFF78E
:10021000F5FF01F091FD00F051F803B4FFF7F2FF94
:1002200003BC01F087FD00000948804709480047EA
:10023000FEE7FEE7FEE7FEE7FEE7FEE7FEE7FEE796
:10024000FEE7FEE704480549054A064B70470000F3
:100250004D0E000889010008980000209806002033
:10026000980200209802002070477047704770473E
:100270007047754600F02CF8AE46050069465346B7
:1002800020F00700854618B020B5FFF7DBFFBDE87A
:1002900020404FF000064FF000074FF000084FF0ED
:1002A000000B21F00701AC46ACE8C009ACE8C0097E
:1002B000ACE8C009ACE8C0098D46704710B50446EB
:1002C000AFF300802046BDE81040FFF7A6BF000056
:1002D00000487047380000201FB500F04BF800F0D0
:1002E00025F80121880400F029FC4FF4E13000904A
:1002F0000020ADF80400ADF80600ADF80800ADF838
:100300000C000C20ADF80A006946074801F08AFC91
:100310000121054801F0E2FB012240F2255102488B
:1003200001F05AFC1FBD0000004800401CB501212F
:10033000022000F0F3FB07220A210D4800F0FAF832
:1003400007220B210A4800F0F5F84FF440600090B6
:1003500002208DF804008DF8050000208DF80600BD
:1003600001208DF807006946014800F09BF81CBD8C
:100370000004024008B54FF4806000F0F5FA272031
:100380008DF8000001208DF801008DF802008DF835
:100390000300684600F0ACFA08BD00BFFEE77047F6
:1003A00010B500F0FBFF01F023F810BD10B500F010
:1003B0002FFF00F059FF10BD10B500F0EBFD00F06D
:1003C0001BFE10BD10B500F08FFD00F0B9FD10BD93
:1003D00010B500F03BFE00F0A5FE10BD10B500F01A
:1003E0006DFF00F095FF10BD70B50546072D3DD29D
:1003F000DFE805F03C040D16212A33001D4801F00A
:1004000060F904B200211B4801F0C3FA2FE01A483A
:1004100001F057F904B20021174801F0BAFA26E0BA
:100420004FF0804001F04DF904B200214FF08040C0
:1004300001F0AFFA1BE0114801F043F904B20021CA
:100440000E4801F0A6FA12E00D4801F03AF904B2A4
:1004500000210B4801F09DFA09E00A4801F031F94A
:1004600004B20021074801F094FA00E000BF00BF89
:10047000204670BD0004014000080040000001401B
:1004800000040040000C004010B5FFF789FFFFF7A3
:100490008DFFFFF791FFFFF795FFFFF799FFFFF73C
:1004A0009DFF10BDF0B50A4600210023002400BFC7
:1004B0003DE0012505FA01F3156805EA03049C42B5
:1004C00034D105684F000326BE40B5430560157959
:1004D0004E00B5400668354305601579012D02D000
:1004E0001579022D16D185684F000326BE40B5430D
:1004F000856055794E00B54086683543856045680E
:1005000001268E40B5434560456896798E40B6B267
:1005100035434560C5684F000326BE40B543C560FE
:10052000D5794E00B540C6683543C560491C1029D1
:10053000BFD3F0BDF0B5002300244D07ED0E02FA45
:1005400005F3CE1000F1200555F826504E07F70EA2
:100550000F26BE40B543CF1000F1200646F82750C5
:10056000CE1000F1200555F8265045EA0304CE10C0
:1005700000F1200545F82640F0BD70B50546002481
:100580001EE004EBC40005EB001090ED1A1BB0EE6A
:10059000410AF0EE610A51EC100B01F017FE04EB7A
:1005A000C40105EB01110968461A002E01DB304633
:1005B00000E07042322801DD002070BD601CC4B232
:1005C000062CDEDB0120F8E700BFFEE740F2DF513A
:1005D00001601649C0F8901014491339C0F8201171
:1005E00040F2DC51C0F8B01110490A39C0F840128D
:1005F0000E491739C0F8D0129FED0D0B80ED1A0B84
:100600009FED0B0B80ED620B9FED090B80EDAA0BAC
:100610009FED070B80ED3E0B9FED050B80ED860BEC
:100620009FED030B80EDCE0B7047000095F9FFFFA7
:10063000000000000000000010B5044604F1500066
:1006400000F09DF994ED220A10EE101A084601F010
:10065000F7FFC4E90A01204600F0D4F810BD0000FD
:1006600010B504460120207302219C20015503216E
:100670004FF49670015504214FF4DE7001550521A9
:100680004FF41370015506214FF4377001554FF4A4
:100690007A7341F2680200219FED541AF1EE040AC8
:1006A0009FED530A04F1100000F00EFA4FF47A7334
:1006B0001A460A21B7EE001ADFED4C0A9FED4D0AEB
:1006C00004F1500000F000FA4FF47A7341F268022E
:1006D00000219FED461AF1EE040A9FED470A04F14E
:1006E000A00000F0F1F94FF47A731A460A21B6EE31
:1006F000001ADFED3E0A9FED3F0A04F1E00000F032
:10070000E3F94FF47A7341F2680200219FED371A42
:10071000F1EE040A9FED360A04F5987000F0D4F962
:100720004FF47A731A460A219FED301ADFED2F0A33
:100730009FED300A04F5B87000F0C6F94FF47A73F3
:1007400041F268020021B7EE001AF0EE080A9FEDB0
:100750002B0A04F5E07000F0B7F94FF47A731A46EB
:100760000F219FED221ADFED210A9FED220A04F5E9
:10077000007000F0A9F94FF47A7341F26802002189
:100780009FED1A1AF1EE040A9FED1B0A04F514708E
:1007900000F09AF94FF47A7328220A219FED131A78
:1007A000DFED120A9FED130A04F5247000F08CF9B6
:1007B0004FF47A7341F2680200219FED0C1AF1EEBA
:1007C000040A9FED0F0A04F5387000F07DF94FF42C
:1007D0007A731A460A219FED051ADFED040A9FED90
:1007E000050A04F5487000F06FF910BD0000000024
:1007F00000800944CDCCCC3D000016440000FA43F3
:1008000000C00F4410B5044604F1100000F0B7F822
:1008100094ED120A84ED020A94ED020ADFED0C0A4F
:10082000B4EEE00AF1EE10FA04DD9FED090A84ED62
:10083000020A0CE094ED020ADFED060AB4EEE00ACB
:10084000F1EE10FA03D29FED030A84ED020A10BD07
:1008500000408345004083C510B500F021FC00F046
:100860008BFC10BD70B52DED088B0446207BFFF787
:10087000BBFD0546206828442060B4F9060001F05D
:10088000D4FC41EC1B0B9FED140B53EC102B01F02F
:10089000E3FC41EC190B284601F0C7FC41EC1B0BB3
:1008A0009FED0F0B53EC102B01F0D6FC41EC1A0B13
:1008B00053EC192B01F0E2FB41EC180B01F086FC24
:1008C00000B2A08021682167B4F904102163A088D8
:1008D000E080BDEC088B70BD000000000000D03F40
:1008E000000000000000E83F00BFFEE77047000086
:1008F00070B5002100230F22C4781CB3174C246864
:1009000004F4E064C4F5E064C4F30721C1F1040415
:10091000E3B20A4144789C40E1B284781440214318
:100920000C07210E0E4C05786155047804F01F0564
:100930000124AC4005786D11AD0005F1E025C5F846
:10094000004109E0047804F01F050124AC40054D86
:100950000678761145F8264070BD00000CED00E0E9
:1009600000E400E080E100E002490143024A116036
:10097000704700000000FA050CED00E0704710B56C
:100980002DED048B0446206A01F04FFC41EC190B5D
:1009900094ED061BB0EE410AF0EE610A53EC102B09
:1009A00001F058FD41EC180B01F010FC00B2A084DE
:1009B000B4F92400002801DB014600E04142B4F90B
:1009C0000C20914202DA0020A0842085D4ED000A98
:1009D000B4F9240000EE100AB8EEC00A20EE800A36
:1009E00084ED0B0AD4ED010AB4F9280000EE100AD8
:1009F000B8EEC00A20EE800A84ED0C0AB4F9240097
:100A0000B4F92610401A00EE100AB8EEC00AD4ED70
:100A1000020A20EE200A84ED0D0A94ED0B0AD4EDB3
:100A20000C0A30EE200AD4ED0D0A30EE200A84EDD7
:100A30000E0AD4ED0E0AB4F90E0000EE100AB8EE5C
:100A4000C00AF4EEC00AF1EE10FA08DDB4F90E00A7
:100A500000EE100AB8EEC00A84ED0E0A16E0D4EDDE
:100A60000E0AB4F90E00404200EE100AB8EEC00AB9
:100A7000F4EEC00AF1EE10FA08D2B4F90E004042CA
:100A800000EE100AB8EEC00A84ED0E0A208DA18C8B
:100A9000084400B22085B4F92800B4F91010884247
:100AA00002DD208A20850AE0B4F92800B4F910108C
:100AB0004942884203DA208A404200B22085A08C55
:100AC000E084BDEC048B10BD10B580ED000AC0EDD4
:100AD000010A80ED021A8181C28103829FED0C2BF5
:100AE00080ED062B002404628484C4840485DFED39
:100AF0000A1AC0ED0B1ADFED081AC0ED0C1ADFED73
:100B0000061AC0ED0D1ADFED041AC0ED0E1A10BD65
:100B100000000000000000000000000029B1064AAB
:100B200012680243044B1A6004E0034A12688243CD
:100B3000014B1A60704700003038024029B1064A64
:100B400012680243044B1A6004E0034A12688243AD
:100B5000014B1A60704700004038024029B1064A34
:100B600012680243044B1A6004E0034A126882438D
:100B7000014B1A60704700002038024029B1064A34
:100B800012680243044B1A6004E0034A126882436D
:100B9000014B1A60704700004438024029B1064AF0
:100BA00012680243044B1A6004E0034A126882434D
:100BB000014B1A607047000024380240F0B5002154
:100BC00000220024022500260223324F3F6807F04E
:100BD0000C0121B1042905D0082937D105E02E4F99
:100BE000076036E02D4F076033E02A4F3F1F3F6814
:100BF000C7F38056274F3F1F3F6807F03F036EB192
:100C0000264FB7FBF3F7DFF88CC0ACF1040CDCF82F
:100C100000C0CCF3881C07FB0CF40CE01E4FB7FBA4
:100C2000F3F7DFF870C0ACF1040CDCF800C0CCF3D3
:100C3000881C07FB0CF4174F3F1F3F68C7F30147A1
:100C40007F1C7D00B4FBF5F7076002E0124F0760E0
:100C500000BF00BF0F4F3F6807F0F0010909104FB8
:100C60007A5C0768D74047600A4F3F6807F4E05155
:100C7000890A0B4F7A5C4768D7408760054F3F6809
:100C800007F46041490B064F7A5C4768D740C7605C
:100C9000F0BD0000083802400024F40000127A0081
:100CA00028000020704700000CB500200190009043
:100CB0003448006840F480303249086000BF314851
:100CC000006800F4003000900198401C01900098EA
:100CD00018B90198B0F5A04FF1D12A48006800F486
:100CE000003010B10120009001E000200090009839
:100CF000012846D123484030006840F08050214907
:100D0000403108602048006840F440401E490860B7
:100D10001C48083000681B49083108600846006814
:100D200040F4004008600846006840F4A0500860A5
:100D30001648091F0860081F006840F08070091FEE
:100D4000086000BF0F48006800F000700028F9D06C
:100D500040F205700E4908600A480830006820F02B
:100D600003000849083108600846006840F00200A6
:100D7000086000BF03480830006800F00C00082835
:100D8000F8D10CBD00380240007000400854400704
:100D9000003C024070B505460E4600240EE004EB10
:100DA000C40006EB001090ED020ABDEEC00A10EE82
:100DB000100A01B2601C25F81010C4B2062CEEDB3C
:100DC0002946082000F036FE70BD10B504462046C6
:100DD000FFF748FD2046FFF72FFC10BD10B500F0CF
:100DE0001DFE10BD30B5164800684FF47A72B0FB96
:100DF000F2F1481EB0F1807F01D301201BE0481EB4
:100E00004FF0E022506150170F22002807DA130735
:100E10001D0E0C4B00F00F04241F1D5503E013079B
:100E20001C0E094B1C5400BF00204FF0E0229061C3
:100E300007201061002008B100BFFEE730BD0000B0
:100E40000C00002018ED00E000E400E010B51548AB
:100E5000006840F47000134908601348006840F0CF
:100E600001001149086000200F49083108600E4850
:100E700000680E4908400C4908600D48091D0860CB
:100E8000081F006820F48020091F08600020064920
:100E90000C310860FFF708FF4FF00060014980390E
:100EA000086010BD88ED00E000380240FFFFF6FE4C
:100EB0001030002410B50446FFF794FF00F01AFE2E
:100EC000FFF70AFA00F0BEFAFFF7C6FCFFF7DCFAFC
:100ED0002046FFF7C5FB2046FFF778FB01200149BC
:100EE000087010BD000000201CB501211020FFF784
:100EF00015FE012209211148FFF71CFB4FF4007079
:100F0000009002208DF8040003208DF805000020D9
:100F10008DF8060001208DF8070069460748FFF7A5
:100F2000C1FA01220B210548FFF704FB4FF40060D2
:100F3000009069460148FFF7B5FA1CBD0010024059
:100F40000EB501210846FFF719FE114800F0D0FA4E
:100F50000020ADF800001020ADF802004FF6FF7041
:100F600001900020ADF808006946094800F014FD22
:100F700002231A460321064800F082FB00210448A0
:100F800000F007FD0121024800F0A6FA0EBD0000A6
:100F9000000001401CB501210220FFF7BFFD012127
:100FA0000846FFF7BBFD01220F211148FFF7C2FAE7
:100FB0004FF40040009002208DF8040003208DF8CB
:100FC000050000208DF8060001208DF80700694615
:100FD0000748FFF767FA012203210648FFF7AAFA3C
:100FE0000820009069460348FFF75CFA1CBD00002A
:100FF00000000240000402400EB501210846FFF740
:101000009DFD4FF0804000F073FA0020ADF8000025
:101010001020ADF802004FF6FF7001900020ADF8EF
:10102000080069464FF0804000F0B6FC02231A46E3
:101030000321580700F024FB00214FF0804000F00E
:10104000A8FC0121880700F047FA0EBD1CB501215C
:101050000846FFF763FD022206211048FFF76AFAEF
:101060004020009002208DF8040003208DF8050038
:1010700000208DF8060001208DF80700694607481A
:10108000FFF710FA022207210448FFF753FA8020E5
:10109000009069460148FFF705FA1CBD00000240B8
:1010A0001CB501210320FFF739FD022206211B4850
:1010B000FFF740FA4020009002208DF80400032042
:1010C0008DF8050000208DF8060001208DF807003E
:1010D00069461248FFF7E6F9022207210F48FFF799
:1010E00029FA8020009069460C48FFF7DBF90222BC
:1010F00000210B48FFF71EFA0120009069460848BE
:10110000FFF7D0F9022201210548FFF713FA022068
:10111000009069460248FFF7C5F91CBD0000024077
:10112000000402400EB501210220FFF707FD11481F
:1011300000F0DEF90020ADF800001020ADF802004C
:101140004FF6FF7001900020ADF80800694609488D
:1011500000F022FC022300220321064800F090FA4E
:101160000021044800F015FC0121024800F0B4F908
:101170000EBD00000004004000B589B0012102202E
:10118000FFF7DCFC0020ADF81800ADF81A0041F2C2
:10119000670007900020ADF8200006A91B4800F06A
:1011A000FBFB6020ADF804000120ADF80600002034
:1011B0000390ADF8100001A9144800F09FFA01A9AE
:1011C000124800F0E3FA01A9104800F03FFB01A922
:1011D0000E4800F095FB08210C4800F0CDFA0821DC
:1011E0000A4800F025FB0821084800F07FFB082191
:1011F000064800F0C1FB0121044800F05EF901211E
:10120000024800F069F909B000BD00000004004088
:101210001CB501210820FFF781FC02220C21114896
:10122000FFF788F94FF48050009002208DF80400F9
:1012300003208DF8050000208DF8060001208DF8B0
:10124000070069460748FFF72DF902220D210548DE
:10125000FFF770F94FF40050009069460148FFF71E
:1012600021F91CBD000C02400EB501210420FFF73E
:1012700065FC114800F03CF90020ADF8000010209A
:10128000ADF802004FF6FF7001900020ADF80800A5
:101290006946094800F080FB02231A4603210648EC
:1012A00000F0EEF90021044800F073FB0121024830
:1012B00000F012F90EBD0000000800401CB501212D
:1012C0000846FFF72BFC022200211048FFF732F9F5
:1012D0000120009002208DF8040003208DF8050005
:1012E00000208DF8060001208DF8070069460748A8
:1012F000FFF7D8F8022201210448FFF71BF902206A
:10130000009069460148FFF7CDF81CBD000002407F
:101310000EB501210820FFF711FC0020ADF80000F8
:101320001020ADF802004FF6FF7001900020ADF8DC
:1013300008006946084800F02FFB02230022032121
:10134000054800F09DF90021034800F022FB01212F
:10135000014800F0C1F80EBD000C004010B501219D
:101360000B4800F0B1F990B10A48007801280AD181
:1013700009480088401E084908800846008810B9BE
:101380000020044908700121014800F0A2F810BDB6
:101390000014004000000020020000201CB50121C4
:1013A0000420FFF7BBFB032206211048FFF7C2F819
:1013B0004020009002208DF8040003208DF80500E5
:1013C00000208DF8060001208DF8070069460748C7
:1013D000FFF768F8032207210448FFF7ABF88020E5
:1013E000009069460148FFF75DF81CBD0008024007
:1013F0000EB501210220FFF7C1FB114800F078F87B
:101400000020ADF800001020ADF802004FF6FF708C
:1014100001900020ADF808006946094800F0BCFAC8
:1014200002231A460321064800F02AF90021044845
:1014300000F0AFFA0121024800F04EF80EBD0000A6
:10144000000401400EB501212020FFF777FB00F0DA
:101450001FF80E4800F04CF85320ADF800000020B3
:10146000ADF802004FF47A7001900020ADF808004A
:101470006946064800F090FA01221146034800F040
:1014800034F90121014800F027F80EBD0014004096
:1014900008B54FF4C060FFF767FA37208DF80000F9
:1014A00001208DF8010003208DF8020001208DF845
:1014B00003006846FFF71CFA08BD21B1028842F01C
:1014C0008002028004E002884FF67F731A40028097
:1014D0007047CA430282704721B1028842F001027C
:1014E000028004E002884FF6FE731A4002807047C3
:1014F00010B504465548844208D101210846FFF73B
:101500004DFB00210120FFF749FB9DE0B4F1804F26
:1015100008D101210846FFF721FB00210120FFF738
:101520001DFB91E04A48844208D101210220FFF7C7
:1015300015FB00210220FFF711FB85E0454884429E
:1015400008D101210420FFF709FB00210420FFF747
:1015500005FB79E04048844208D101210820FFF7CB
:10156000FDFA00210820FFF7F9FA6DE03B488442BC
:1015700008D101211020FFF7F1FA00211020FFF718
:10158000EDFA61E03648844208D101212020FFF7BE
:10159000E5FA00212020FFF7E1FA55E031488442C6
:1015A00008D101210220FFF7F9FA00210220FFF7FC
:1015B000F5FA49E02C48844209D101210804FFF7DB
:1015C000EDFA00214FF48030FFF7E8FA3CE02748BD
:1015D000844209D101214804FFF7E0FA00214FF4C9
:1015E0000030FFF7DBFA2FE02148844209D10121C6
:1015F0008804FFF7D3FA00214FF48020FFF7CEFADA
:1016000022E01C48844208D101214020FFF7A6FABD
:1016100000214020FFF7A2FA16E01748844208D1C3
:1016200001218020FFF79AFA00218020FFF796FA27
:101630000AE01248844207D101218015FFF78EFA93
:101640000021A015FFF78AFA10BD0000000001403C
:101650000004004000080040000C00400010004062
:1016600000140040000401400040014000440140DB
:101670000048014000180040001C004000200040CD
:10168000F0B50C4615461E460021002200230189B4
:10169000028B038C4FF6F877394021434FF6FC4715
:1016A0003A4040F201173A434FF6DD773B404FF6A0
:1016B000FF7707EA06172F433B4301810283038428
:1016C000F0BD0146486A704730B50246002000234D
:1016D0000024158A05EA0103958905EA010413B17E
:1016E0000CB1012000E0002030BD1AB183890B430A
:1016F000838102E083898B438381704770B5002426
:1017000000220023058C4FF6FE7635400584028CBE
:101710008388048B4FF68F752C40B51E2C400D88A6
:101720002C43751E2A408D892A434D882A43104D2B
:10173000A84202D00F4DA84213D14FF6F7752A40A8
:10174000CD892A434FF6FB752A408D882A434FF6F0
:10175000FF652B404FF6FF552B400D8A2B434D8ADA
:101760002B43838004838D684563028470BD000031
:1017700000000140000401400A460021018B4FF6A1
:10178000F7731940114301837047000070B50024BE
:1017900000220023058C4FF6EF7635400584028C3D
:1017A0008388048B48F6FF752C404FF6FF452C408C
:1017B0000D884FF6FF7606EA05252C434FF6DF75B8
:1017C0002A408D8906EA05152A434D8806EA051543
:1017D0002A43154DA84202D0144DA8421DD14FF600
:1017E0007F752A40CD894FF6FF7606EA05152A4314
:1017F0004FF6BF752A408D8806EA05152A434FF635
:10180000FF352B404FF2FF752B400D8A06EA850508
:101810002B434D8A06EA85052B43838004838D681C
:101820008563028470BD0000000001400004014097
:101830000A460021018B4FF2FF7319404FF6FF73E8
:1018400003EA0223194301837047000070B50024A6
:1018500000220023058C4FF6FF6635400584028C7C
:101860008388848B4FF68F752C404FF6FC752C4087
:101870000D882C434FF6FF552A408D894FF6FF7691
:1018800006EA05252A434D8806EA05252A43154D13
:10189000A84202D0144DA8421DD14FF2FF752A4034
:1018A000CD894FF6FF7606EA05252A434FF6FF3528
:1018B0002A408D8806EA05252A434EF6FF752B40FF
:1018C0004DF6FF752B400D8A06EA05152B434D8A10
:1018D00006EA05152B43838084838D68C5630284E3
:1018E00070BD000000000140000401400A460021D4
:1018F000818B4FF6F77319401143818370470000C5
:1019000070B5002200230024058C4EF6FF7635408A
:101910000584038C8488828B48F6FF752A404FF635
:10192000FF452A400D884FF6FF7606EA05252A4333
:101930004DF6FF752B408D8906EA05352B434D8802
:1019400006EA05352B430A4DA84202D0094DA842AC
:1019500008D14BF6FF752C400D8A4FF6FF7606EA4C
:1019600085152C43848082838D680564038470BD53
:1019700000000140000401400A460021818B4FF223
:10198000FF7319404FF6FF7303EA02231943818363
:10199000704741627047000000220288184B98424D
:1019A0000ED0184B98420BD0B0F1804F08D0164B98
:1019B000984205D0154B984202D0154B984204D15D
:1019C0004FF68F731A404B881A43124B984207D038
:1019D000114B984204D04FF6FF431A400B891A432B
:1019E00002804B68C3620B880385054B984202D086
:1019F000044B984201D18B7A03860123838270477E
:101A000000000140000401400004004000080040C4
:101A1000000C004000100040001400400448006822
:101A200020B103480068401E01490860704700006B
:101A30002000002070B506460D46002435F814003D
:101A400081B21C4800F070F900BF1A48008800F00D
:101A500040000028F9D001241BE015F814101548A7
:101A600000F062F900BF1348008800F04000002831
:101A7000F9D035F81400C0F307210E4800F054F9EE
:101A800000BF0C48008800F040000028F9D0601C1E
:101A9000C4B2701EA042E0DC35F8140081B20548E3
:101AA00000F042F900BF0348008800F04000002821
:101AB000F9D070BD0010014010B540F22551054825
:101AC00000F060F820B1034800F029F902490870DD
:101AD00010BD0000004800400400002021B18289B0
:101AE00042F40052828104E082894DF6FF731A406D
:101AF000828170471FB500F021F800F0FDF8012148
:101B00001020FFF73BF84FF4E13000900020ADF8D3
:101B10000400ADF80600ADF80800ADF80C000C208C
:101B2000ADF80A006946044800F07CF8012102483B
:101B3000FFF7D4FF1FBD0000001001401CB50121BC
:101B40000846FEF7EBFF072209210D48FEF7F2FCDD
:101B500007220A210A48FEF7EDFC4FF4C06000900E
:101B600002208DF804008DF8050000208DF8060095
:101B700001208DF8070069460148FEF793FC1CBD63
:101B80000000024070B5024600240023002500201A
:101B900040F66A16B14200D100BFC1F3421501F010
:101BA0001F03012606FA03F3012D02D19689334063
:101BB00006E0022D02D1168A334001E0968A3340B6
:101BC0000C12012606FA04F41688344013B10CB145
:101BD000012000E0002070BDF0B50346002400267F
:101BE0000025002040F66A17B94200D100BF184610
:101BF000C1F3421401F01F06012707FA06F5012C74
:101C000001D10C3004E0022C01D1103000E014307E
:101C10001AB107682F43076002E00768AF43076007
:101C2000F0BD00002DE9FF4705460E460024A14601
:101C300000BFA046B08900B100BF2C8A24F44054F4
:101C4000F08804432C82AC8941F20C608443B08854
:101C500031890843718908430443AC81AC8A24F478
:101C60004074B0890443AC826846FEF7A7FF204861
:101C7000854202D01F48854202D1DDF80C9001E078
:101C8000DDF80890A88900F4004040B109EBC900D4
:101C900000EB091031684900B0FBF1F707E009EBF0
:101CA000C90000EB091031688900B0FBF1F764202E
:101CB000B7FBF0F004012009642101FB1078A8892A
:101CC00000F4004040B1322000EBC800B0FBF1F05E
:101CD00000F00700044308E0322000EB0810642104
:101CE000B0FBF1F000F00F0004432C81BDE8FF874A
:101CF000001001400014014008B54FF4C060FEF729
:101D000033FE25208DF8000001208DF801008DF8AC
:101D100002008DF803006846FEF7EAFD08BD0146A3
:101D20008888C0F308007047C1F3080282807047BA
:101D300000BFFEE700BF7047ADF55C7DC548D0E948
:101D40000043D0E90212CDE90043CDE9021204A814
:101D5000FFF7B0F8002563E0BF48008800285FD196
:101D60000120BE4908700520BB490880002408E016
:101D700004EBC40104AA02EB0110FFF726F8601C73
:101D8000C4B2062CF4DB00242EE004EBC40004A94A
:101D900001EB001090ED020ADFEDB10AB4EEE00AAB
:101DA000F1EE10FA08DD9FEDAE0A04EBC40001EB82
:101DB000001080ED020A15E004EBC40004A901EB59
:101DC000001090ED020ADFEDA70AB4EEE00AF1EE92
:101DD00010FA07D29FEDA30A04EBC40001EB001038
:101DE00080ED020A601CC4B2062CCEDB04A9684652
:101DF000FEF7D0FF04A8FEF7C0FB10B101209A49FE
:101E000008709948007820B198480088401C97498C
:101E1000088096480088B0F5C87F00D101E000BF77
:101E20009AE700BF15E16D1CB5F5167F79D1002545
:101E30008F480078072875D2DFE800F0EA04284CC4
:101E4000759CC3009DED1E1BB0EE410AF0EE610AC9
:101E50009FED881B53EC112B51EC100B00F00EF989
:101E6000CDE91E019DED8A1BB0EE410AF0EE610A3C
:101E70009FED801B53EC112B51EC100B00F0FEF882
:101E80000A46014670A8C0E91A12C2E09DED1E1B69
:101E9000B0EE410AF0EE610A9FED761B53EC112B78
:101EA00051EC100B00F0E2FACDE91E019DED8A1B0A
:101EB000B0EE410AF0EE610A9FED6E1B53EC112B60
:101EC00051EC100B00F0D2FA0A46014670A8C0E9A6
:101ED0001A129EE09DED421BB0EE410AF0EE610A3F
:101EE0009FED641B53EC112B51EC100B00F0C6F866
:101EF0000A46014628A8C0E91A129DEDAE1BB0EEB5
:101F0000410AF0EE610A9FED5B1B53EC112B51EC83
:101F1000100B00F0B3F80A46014694A8C0E91A1263
:101F200077E077E074E09DED421BB0EE410AF0EE01
:101F3000610A9FED501B53EC112B51EC100B00F07C
:101F400095FA0A46014628A8C0E91A129DEDAE1B73
:101F5000B0EE410AF0EE610A9FED461B53EC112BE7
:101F600051EC100B00F082FA0A46014694A8C0E931
:101F70001A124EE09DED661BB0EE410AF0EE610ACA
:101F80009FED3C1B53EC112B51EC100B00F076F83D
:101F90000A4601464CA8C0E91A129DEDD21BB0EECC
:101FA000410AF0EE610A9FED331B53EC112B51EC0B
:101FB000100B00F063F80A460146B8A8C0E91A12EF
:101FC00027E09DED661BB0EE410AF0EE610A9FED41
:101FD000291B53EC112B51EC100B00F047FA0A4669
:101FE00001464CA8C0E91A129DEDD21BB0EE410A81
:101FF000F0EE610A9FED1F1B53EC112B51EC100BFF
:1020000000F034FA0A460146B8A8C0E91A1200E006
:1020100000BF00BF10480088D8B901200F490870E0
:1020200005200D49088004A8FEF7CFFE28A8FEF77A
:10203000CCFE4CA8FEF7C9FE70A8FEF7C6FE94A819
:10204000FEF7C3FEB8A8FEF7C0FE04A96846FEF777
:10205000A1FEE8E62C270008020000200000002076
:1020600000006145000061C5080000200600002056
:10207000040000207B14AE47E17AB43F10B591EA2A
:10208000030F48BF83F0004300F1F881841A71EB1D
:10209000030C05D2121943EB0C03001B61EB0C017E
:1020A000DFF824E14FEA1154A4EB135C1EEA430F5E
:1020B00018BF9EEA445F73D023EA0E03DCF1200EC2
:1020C00021EA045143F4801332D322FA0CFE10EBC0
:1020D0000E0023FA0CFE41EB0E01CCF1200E03FAA8
:1020E0000EFE10EB0E0051F10001B1F5801FCCF196
:1020F000200E32D201EB045112FA0EF2BDE810406C
:1021000058BF7047401C38BF5FEA420218BF704793
:10211000002814BF20F0010041F100014FEA410303
:1021200013F5001F38BF7047A1F1C04100F08CB912
:10213000012A43EB0302ACF1200CDCF11F0E32BF8D
:102140004FF0000E23FA0CF310EB030041EB0451A7
:10215000B4EB115FD0D0A1EB045101F58011490817
:102160005FEA300001EB04510ED350F1000038BF9C
:1021700012FA0EFE08D1BDE81040C9E7401C38BF76
:102180005FEA4202CAD1C3E7BDE810404FEA41030B
:1021900013F5001F38BF7047A1F1C04100F054B9DA
:1021A0009EEA445F08D011EA5E0FBDE8104004BF0C
:1021B00001F0004100207047BDE8104070B500F00C
:1021C000F5F800BF64FBBE3E0000E0FF4FEA4103AC
:1021D0004FEA5353A3F58063D3F11E03C8BFD3F175
:1021E000210C0CDD4FF0004242EAC12242EA50527B
:1021F00032FA03FC8CEAE17CACEBE1707047102B07
:10220000C4BF0020704703F5787CBCF1FF3F04D0C9
:102210006FF0004282EA2100704770B500F0C6F806
:102220004992248000207047F2E710F0004248BF36
:102230004042B0FA80F310FA03F10AD0C3F11D0353
:1022400003F580634FEA415002EB035202EBD121C8
:1022500070474FF000007047DFF848C170B51CEAC6
:10226000111E1EBF1CEA13159EEA0C0F95EA0C0FF7
:1022700000F06F8081EA030423EA4C134EEAD47E17
:1022800021EA4C1141F4801143F48013AE44A1FBC8
:10229000024CA0FB0365AEF17F7E361955EB0C05B1
:1022A000A1FB034C4CF10003A0FB021C16EB0C0637
:1022B000654153F10003094218BF46F0010613F4CB
:1022C000007F0BD14FEA03314FEA0530340341EA76
:1022D000155140EA16506FF003020AE04FEAC3219D
:1022E0004FEAC520F40241EA555140EA56506FF0DA
:1022F000020202EB2E4201EB025585EACE710AD0B2
:102300005FEA440C18BF24F0004450F1000041F192
:10231000000120EAD47040F2FE7C624500D270BD1C
:10232000A84214BF4FF080444FF04044002E08BF35
:102330000024BEF1806FA8BFA1F1C041BDE870408C
:1023400080F282804FF0000001F1C04101F00041B5
:1023500070479EEA0C0F0CEA131518BF95EA0C0F94
:1023600006D04FF0000081EA030E0EF0004170BD70
:1023700000F01CF88900013E00F007B800F009B831
:102380004FEA430C5FEA5C5C08D081EA030100F08D
:102390005BB84FEA410C5FEA5C5CF6D14FF000009D
:1023A000014970470000FF070000F87F0EF1020EA0
:1023B0002EF0030E5EF8046B364205D4012A43EB7F
:1023C000030515F5001F12D8012841EB010C1CF57F
:1023D000001F0CD80ED14FEAD17C15F5001F0CEB75
:1023E0004C0C0CF1020C08BF4CEBD37C04E04FF01A
:1023F000080C01E04FEAD37C0CEB4C0526FA05F6FD
:1024000006F00706B6F1040C06D20EEB860CBDE80A
:1024100070404CF0010C6047DFE80CF0090B020241
:102420004FF000414FF00000A1F5002170BD1946AA
:102430001046012851EB010418BFD4F5001484BFE5
:10244000002001F0004170BD0808A0F500114FEA1E
:102450003101704791EA030F10B581F000413FF55B
:1024600015AE83F0004300F009B8000010B591EA02
:10247000030F48BF83F000433FF508AE841A71EBA9
:10248000030C07D212198CF0004C43EB0C03001B19
:1024900061EB0C01DFF8A4E14FEA1154A4EB135CEB
:1024A0001EEA430F18BF9EEA445F00F0B08023EAA3
:1024B0006E03524221EA0451C3EB6E0338BF5B1E28
:1024C000DCF1200E25D322FA0CFE10EB0E0043FAAD
:1024D0000CFE41EB0E01CCF1200E03FA0EFE10EBC8
:1024E0000E0051F10001CCF1200E29D412FA0EF2A7
:1024F00001EB0451BDE8104058BF7047401C1CBFA1
:10250000B2F1004F704700280CBF491C20F00100B9
:10251000704712EB020E43EB030218BF4FF0010E9F
:102520004EEA4202ACF1200CDCF11E0E54D943FA03
:102530000CFE10EB0E0051F1FF31CCF11E0ED5D583
:102540000EF1010E12FA0EFE404141EB010101EBCA
:10255000445C5FEA5C5C10D910EBDE7001EB045167
:1025600038BFBEF1004FBDE8104018BF70470028CB
:102570000CBF491C20F00100704730D24FEAD42C28
:1025800011F5001124F400641BD0B1FA81F20B3A6A
:10259000A41AA41ED2F12003914030FA03F3194388
:1025A000904001EBCC71002C01EB0451BDE81040D0
:1025B000A8BF704701F1C0414FF0000001F0004199
:1025C0007047B0FA80F310FA03F100D110BDE41A9D
:1025D000173C4805C90AE4E701EB045110BD491056
:1025E00001EB0451BDE810404FEA300002E04FF02B
:1025F000000170474A0008BF0042F8D0B2F5001F42
:1026000028BF704701F000414FF0000070479EEA7C
:10261000445F07D011EA5E0FBDE8104004BF0021FF
:1026200000207047BDE8104070B5FFF7BFFE00BF47
:1026300040DFF63E83F00041104670470000E0FFA7
:1026400043004FEAD30C4FEA3C0C43401FBF400706
:102650000CF1605113F0FE4F70471CF0006F03D176
:1026600000200CF0004170470CF0004343EA50702A
:1026700010B540EACC0000F00EF800BF0000009258
:102680004FEA0001FFF7E0BE4FF000414FF00000BD
:10269000A1F5002170470EF1020E2EF0030E5EF838
:1026A000044B244204D44FEA4102B2F17F4F11D8C7
:1026B0004FEA4003B3F17F4F0CD80ED14FEAD07CE4
:1026C000B2F17F4F0CEB4C0C0CF1020C08BF4CEB41
:1026D000D17C04E04FF0080C01E04FEAD17C0CEB18
:1026E0004C0324FA03F404F00704B4F1040C06D2FA
:1026F0000EEB840CBDE810404CF0010C6047DFE8A5
:102700000CF0070802024FF00040A0F5800010BD59
:102710000846420018BFD2F1807288BF00F0004026
:1027200010BD4FF04070E1EE100A704750000000FD
:102730000000000000000000000045005C270008C9
:102740000000002038000000C401000894270008A1
:102750003800002060060000E001000800000500CD
:102760000000000000000000007A030A00000000E2
:102770000000000001020304060708090000000031
:102780000000000000000000010203040102030435
:042790000607080927
:040000050800018965
:00000001FF
