:020000040800F2
:10000000600800203102000879060008F1050008A8
:1000100075060008E90400086114000800000000EB
:10002000000000000000000000000000950800082B
:10003000ED04000800000000090700088509000819
:100040004B0200084B0200084B0200084B0200085C
:100050004B0200084B0200084B0200084B0200084C
:100060004B0200084B0200084B0200084B0200083C
:100070004B0200084B0200084B0200084B0200082C
:100080004B0200084B0200084B0200084B0200081C
:100090004B0200084B0200084B0200084B0200080C
:1000A0004B0200084B0200084B0200084B020008FC
:1000B0004B0200084B0200084B0200084B020008EC
:1000C0004B0200084B0200084B0200084B020008DC
:1000D0004B020008811100084B0200084B02000887
:1000E0004B0200084B0200084B0200084B020008BC
:1000F0004B0200084B0200084B0200084B020008AC
:100100004B0200084B0200084B0200084B0200089B
:100110004B0200084B0200084B0200084B0200088B
:100120004B0200084B0200084B0200084B0200087B
:100130004B0200084B0200084B0200084B0200086B
:100140004B0200084B0200084B0200084B0200085B
:100150004B0200084B0200084B0200084B0200084B
:100160004B0200084B0200084B0200084B0200083B
:100170004B0200084B0200084B0200084B0200082B
:100180004B0200084B02000800F002F800F041F8B2
:100190000AA090E8000C82448344AAF10107DA45E2
:1001A00001D100F036F8AFF2090EBAE80F0013F0F3
:1001B000010F18BFFB1A43F001031847601300003A
:1001C00080130000103A24BF78C878C1FAD85207CB
:1001D00024BF30C830C144BF04680C6070470000C1
:1001E0000023002400250026103A28BF78C1FBD840
:1001F000520728BF30C148BF0B607047642900F028
:100200007980002070471FB501F082F91FBD10B53D
:1002100010BD00F037F91146FFF7F5FF01F032F994
:1002200000F055F903B4FFF7F2FF03BC01F01AF92F
:100230000948804709480047FEE7FEE7FEE7FEE77A
:10024000FEE7FEE7FEE7FEE7FEE7FEE704480549B6
:10025000054A064B70470000F109000889010008B3
:10026000600200206008002060040020600400207C
:10027000704700000FB4044910B503AA029800F0BB
:10028000D3F810BC5DF814FB1C0000202DE9F041F0
:100290000E460446002020622046E168884730B3BD
:1002A000252805D0D4E901219047206A401CF2E7B7
:1002B000E168204600278847050018D0A5F14100D5
:1002C000192802D820354FF40067324629462046C7
:1002D0002760FFF793FF40B1012804D0F61D26F0F8
:1002E00007060836D8E7361DD6E72846DAE7206A3B
:1002F000BDE8F0812DE9F04106460024106875291B
:10030000314616A510D0AFF30080002802DA404233
:1003100013A507E031688A0701D512A502E0490755
:1003200004D511A5012401E0AFF3008000210A22C9
:1003300006F1240709E0B0FBF2FCB0FBF2F302FB8C
:100340001C00303078541846491C0028F3D123464D
:100350002A463046BDE8F04100F00CB8000000002D
:100360002D0000002B0000002000000070477047A7
:10037000704770472DE9F0470D469946924604466E
:1003800000F124080168880604D5E06921F0100115
:10039000216000E00120A84201DD471B00E00027AA
:1003A000A1697A1902EB0900081AA0612078C00639
:1003B00002D42046AFF30080002608E0D4E90121F2
:1003C0001AF806009047206A401C761C20624E45B1
:1003D000F4DB2078C0060AD52046AFF3008006E0A3
:1003E000D4E9012130209047206A401C2062381E49
:1003F000A7F10107F4DC07E0D4E9012118F80500B2
:100400009047206A401C2062281EA5F10105F3DCFC
:100410002046AFF300802078000602D50220BDE818
:10042000F0870120FBE70000074B70B50D467B44C9
:1004300000F011F80446284600F020F810B14FF003
:10044000FF3070BD204670BD3710000001694A1CA6
:1004500002610878704700B58FB0CDE90131002105
:10046000059105497944CDE9031011466846FFF727
:100470000DFF0FB000BD0000E5FFFFFF007B00F0A7
:1004800080007047754600F02BF8AE4605006946BF
:10049000534620F00700854618B020B5FFF7D6FE7A
:1004A000BDE820404FF000064FF000074FF0000875
:1004B0004FF0000B21F00701AC46ACE8C009ACE8F6
:1004C000C009ACE8C009ACE8C0098D46704710B55A
:1004D0000446AFF300802046BDE81040FFF7A2BEFF
:1004E00000487047FC01002000BFFEE77047000095
:1004F00001B504490098086000BF02480068002860
:10050000FBD108BD14000020F0B50A4600210023ED
:10051000002400BF3DE0012505FA01F3156805EA56
:1005200003049C4234D105684F000326BE40B54306
:10053000056015794E00B5400668354305601579AC
:10054000012D02D01579022D16D185684F000326A2
:10055000BE40B543856055794E00B5408668354349
:100560008560456801268E40B543456045689679AB
:100570008E40B6B235434560C5684F000326BE4085
:10058000B543C560D5794E00B540C6683543C560F2
:10059000491C1029BFD3F0BDF0B5002300244D073E
:1005A000ED0E02FA05F3CE1000F1200555F82650A5
:1005B0004E07F70E0F26BE40B543CF1000F12006C0
:1005C00046F82750CE1000F1200555F8265045EA90
:1005D0000304CE1000F1200545F82640F0BD024688
:1005E000002013690B400BB1012000E00020704790
:1005F00000BFFEE71CB50121084600F087F8012086
:10060000009000208DF8040003208DF805000120E3
:100610008DF8070069460248FFF776FF1CBD000011
:100620000000024010B501211048FFF7D8FF90B933
:100630000F48007878B10320FFF75AFF01210B48DB
:10064000FFF7CDFF78B90020094908700220FFF7B5
:100650004FFF012010BD01210448FFF7C0FF10B17A
:100660000120034908700020F4E700000000024068
:100670002300002000BFFEE77047000070B5002196
:1006800000230F22C4781CB3174C246804F4E064E0
:10069000C4F5E064C4F30721C1F10404E3B20A41E4
:1006A00044789C40E1B28478144021430C07210E29
:1006B0000E4C05786155047804F01F050124AC4008
:1006C00005786D11AD0005F1E025C5F8004109E0A0
:1006D000047804F01F050124AC40054D067876111E
:1006E00045F8264070BD00000CED00E000E400E09D
:1006F00080E100E002490143024A116070470000B6
:100700000000FA050CED00E07047000029B1064A30
:1007100012680243044B1A6004E0034A12688243E1
:10072000014B1A60704700003038024029B1064A78
:1007300012680243044B1A6004E0034A12688243C1
:10074000014B1A60704700004038024029B1064A48
:1007500012680243044B1A6004E0034A12688243A1
:10076000014B1A60704700002038024029B1064A48
:1007700012680243044B1A6004E0034A1268824381
:10078000014B1A60704700004438024029B1064A04
:1007900012680243044B1A6004E0034A1268824361
:1007A000014B1A607047000024380240F0B5002168
:1007B00000220024022500260223324F3F6807F062
:1007C0000C0121B1042905D0082937D105E02E4FAD
:1007D000076036E02D4F076033E02A4F3F1F3F6828
:1007E000C7F38056274F3F1F3F6807F03F036EB1A6
:1007F000264FB7FBF3F7DFF88CC0ACF1040CDCF844
:1008000000C0CCF3881C07FB0CF40CE01E4FB7FBB8
:10081000F3F7DFF870C0ACF1040CDCF800C0CCF3E7
:10082000881C07FB0CF4174F3F1F3F68C7F30147B5
:100830007F1C7D00B4FBF5F7076002E0124F0760F4
:1008400000BF00BF0F4F3F6807F0F0010909104FCC
:100850007A5C0768D74047600A4F3F6807F4E05169
:10086000890A0B4F7A5C4768D7408760054F3F681D
:1008700007F46041490B064F7A5C4768D740C76070
:10088000F0BD0000083802400024F40000127A0095
:1008900024000020704700000CB50020019000905B
:1008A0003448006840F480303249086000BF314865
:1008B000006800F4003000900198401C01900098FE
:1008C00018B90198B0F5A04FF1D12A48006800F49A
:1008D000003010B10120009001E00020009000984D
:1008E000012846D123484030006840F0805021491B
:1008F000403108602048006840F440401E490860CC
:100900001C48083000681B49083108600846006828
:1009100040F4004008600846006840F4A0500860B9
:100920001648091F0860081F006840F08070091F02
:10093000086000BF0F48006800F000700028F9D080
:1009400040F205700E4908600A480830006820F03F
:1009500003000849083108600846006840F00200BA
:10096000086000BF03480830006800F00C00082849
:10097000F8D10CBD00380240007000400854400718
:10098000003C02407047000030B5164800684FF444
:100990007A72B0FBF2F1481EB0F1807F01D30120E2
:1009A0001BE0481E4FF0E022506150170F22002834
:1009B00007DA13071D0E0C4B00F00F04241F1D5502
:1009C00003E013071C0E094B1C5400BF00204FF01E
:1009D000E022906107201061002008B100BFFEE70F
:1009E00030BD00000000002018ED00E000E400E051
:1009F00010B51548006840F47000134908601348AA
:100A0000006840F001001149086000200F490831DA
:100A100008600E4800680E4908400C4908600D48FF
:100A2000091D0860081F006820F48020091F086065
:100A3000002006490C310860FFF72EFF4FF00060E0
:100A400001498039086010BD88ED00E0003802409F
:100A5000FFFFF6FE103000241CB501210320FFF734
:100A600055FE022206211B48FFF796FD402000900C
:100A700002208DF8040003208DF8050000208DF879
:100A8000060001208DF8070069461248FFF73CFD7B
:100A9000022207210F48FFF77FFD80200090694662
:100AA0000C48FFF731FD022200210B48FFF774FDCF
:100AB0000120009069460848FFF726FD0222012127
:100AC0000548FFF769FD0220009069460248FFF7DC
:100AD0001BFD1CBD000002400004024010B5FFF7E2
:100AE000BBFF00F001F810BD00B589B00121022064
:100AF000FFF71CFE2920ADF818000020ADF81A0001
:100B0000632007900020ADF8200006A91E4800F0E1
:100B1000F5FA6020ADF804000120ADF806000020D1
:100B20000390ADF8100001A9174800F095F90020D6
:100B3000039001A9144800F0D7F90020039001A9FF
:100B4000114800F031FA0020039001A90E4800F08E
:100B500085FA08210C4800F0BDF908210A4800F088
:100B600015FA0821084800F06FFA0821064800F03D
:100B7000B1FA0121044800F067F80121024800F0B1
:100B800072F809B000BD0000000400401CB501214E
:100B90000220FFF7BBFD022206211048FFF7FCFCF4
:100BA0004020009002208DF8040003208DF80500FD
:100BB00000208DF8060001208DF8070069460748DF
:100BC000FFF7A2FC022207210448FFF7E5FC802082
:100BD000009069460148FFF797FC1CBD00040240E5
:100BE0000EB501210420FFF7A1FD134800F048F8DD
:100BF0000020ADF80000ADF802004FF6FF70019044
:100C00000020ADF8080069460B4800F077FA002391
:100C10001A460321084800F0FBF80121064800F0BD
:100C20001FF842F21071044800F065FA01210248F1
:100C300000F019F80EBD00000008004010B5FFF7E5
:100C4000A5FFFFF7CDFF10BD21B1028842F0800261
:100C5000028004E002884FF67F731A4002807047DA
:100C6000CA430282704721B1028842F00102028029
:100C700004E002884FF6FE731A40028070470000BD
:100C800010B504465548844208D101210846FFF7B3
:100C90007DFD00210120FFF779FD9DE0B4F1804F3B
:100CA00008D101210846FFF751FD00210120FFF77F
:100CB0004DFD91E04A48844208D101210220FFF70E
:100CC00045FD00210220FFF741FD85E045488442B3
:100CD00008D101210420FFF739FD00210420FFF78E
:100CE00035FD79E04048844208D101210820FFF712
:100CF0002DFD00210820FFF729FD6DE03B488442CF
:100D000008D101211020FFF721FD00211020FFF75D
:100D10001DFD61E03648844208D101212020FFF703
:100D200015FD00212020FFF711FD55E031488442D8
:100D300008D101210220FFF729FD00210220FFF741
:100D400025FD49E02C48844209D101210804FFF720
:100D50001DFD00214FF48030FFF718FD3CE02748CF
:100D6000844209D101214804FFF710FD00214FF40E
:100D70000030FFF70BFD2FE02148844209D101210B
:100D80008804FFF703FD00214FF48020FFF7FEFCED
:100D900022E01C48844208D101214020FFF7D6FC04
:100DA00000214020FFF7D2FC16E01748844208D10A
:100DB00001218020FFF7CAFC00218020FFF7C6FC3C
:100DC0000AE01248844207D101218015FFF7BEFCDA
:100DD0000021A015FFF7BAFC10BD00000000014083
:100DE0000004004000080040000C004000100040DB
:100DF0000014004000040140004001400044014054
:100E00000048014000180040001C00400020004045
:100E1000F0B50C4615461E4600210022002301892C
:100E2000028B038C4FF6F877394021434FF6FC478D
:100E30003A4040F201173A434FF6DD773B404FF618
:100E4000FF7707EA06172F433B43018102830384A0
:100E5000F0BD0146486A704770B5002400220023A7
:100E6000058C4FF6FE7635400584028C8388048B12
:100E70004FF68F752C40B51E2C400D882C43751EE7
:100E80002A408D892A434D882A43104DA84202D01A
:100E90000F4DA84213D14FF6F7752A40CD892A434A
:100EA0004FF6FB752A408D882A434FF6FF652B408D
:100EB0004FF6FF552B400D8A2B434D8A2B438380E1
:100EC00004838D684563028470BD0000000001400A
:100ED000000401400A460021018B4FF6F7731940C8
:100EE000114301837047000070B5002400220023E5
:100EF000058C4FF6EF7635400584028C8388048B91
:100F000048F6FF752C404FF6FF452C400D884FF6F4
:100F1000FF7606EA05252C434FF6DF752A408D89BA
:100F200006EA05152A434D8806EA05152A43154D9C
:100F3000A84202D0144DA8421DD14FF67F752A4019
:100F4000CD894FF6FF7606EA05152A434FF6BF75A1
:100F50002A408D8806EA05152A434FF6FF352B40B7
:100F60004FF2FF752B400D8A06EA85052B434D8A0B
:100F700006EA85052B43838004838D68856302849C
:100F800070BD000000000140000401400A4600213D
:100F9000018B4FF2FF7319404FF6FF7303EA0223F0
:100FA000194301837047000070B50024002200231C
:100FB000058C4FF6FF6635400584028C8388848B50
:100FC0004FF68F752C404FF6FC752C400D882C4346
:100FD0004FF6FF552A408D894FF6FF7606EA052524
:100FE0002A434D8806EA05252A43154DA84202D01A
:100FF000144DA8421DD14FF2FF752A40CD894FF6FE
:10100000FF7606EA05252A434FF6FF352A408D88EC
:1010100006EA05252A434EF6FF752B404DF6FF756F
:101020002B400D8A06EA05152B434D8A06EA051565
:101030002B43838084838D68C563028470BD000068
:1010400000000140000401400A460021818B4FF658
:10105000F7731940114381837047000070B5002277
:1010600000230024058C4EF6FF7635400584038C62
:101070008488828B48F6FF752A404FF6FF452A4048
:101080000D884FF6FF7606EA05252A434DF6FF75D3
:101090002B408D8906EA05352B434D8806EA053538
:1010A0002B430A4DA84202D0094DA84208D14BF665
:1010B000FF752C400D8A4FF6FF7606EA85152C4306
:1010C000848082838D680564038470BD00000140C4
:1010D000000401400A460021818B4FF2FF73194042
:1010E0004FF6FF7303EA022319438183704741637C
:1010F0007047C16370474162704700000022028858
:10110000184B98420ED0184B98420BD0B0F1804F3C
:1011100008D0164B984205D0154B984202D0154B7B
:10112000984204D14FF68F731A404B881A43124BE2
:10113000984207D0114B984204D04FF6FF431A4013
:101140000B891A4302804B68C3620B880385054BE9
:10115000984202D0044B984201D18B7A0386012336
:1011600083827047000001400004014000040040F9
:1011700000080040000C0040001000400014004037
:1011800010B540F225511D4800F098F810B31B48E7
:1011900000F061F9C4B21A48008800F40040C8B9F0
:1011A0001748008800F4804060B10A2C03D000206A
:1011B0001349088020E01248008840F4004010499C
:1011C000088019E00D2C06D10D48008840F48040BD
:1011D0000B49088010E00A480088C0F30D00094957
:1011E0000C5407480088401C0549088008460088C0
:1011F000C72801DD0020088010BD0000001001405C
:10120000200000203400002021B1828942F40052E5
:10121000828104E082894DF6FF731A408281704713
:101220001FB500F027F800F003F901211020FFF7A7
:101230009DFA4FF4E13000900020ADF80400ADF8C5
:101240000600ADF80800ADF80C000C20ADF80A005F
:101250006946074800F082F801210548FFF7D4FFEE
:10126000012240F22551024800F052F81FBD000053
:10127000001001401CB501210846FFF747FA07227C
:1012800009210D48FFF788F907220A210A48FFF7CC
:1012900083F94FF4C060009002208DF804008DF8AF
:1012A000050000208DF8060001208DF80700694632
:1012B0000148FFF729F91CBD0000024070B5024645
:1012C000002400230025002040F66A16B14200D118
:1012D00000BFC1F3421501F01F03012606FA03F314
:1012E000012D02D19689334006E0022D02D1168AE3
:1012F000334001E0968A33400C12012606FA04F4CA
:101300001688344013B10CB1012000E0002070BDFC
:10131000F0B50346002400260025002040F66A1799
:10132000B94200D100BF1846C1F3421401F01F06B4
:10133000012707FA06F5012C01D10C3004E0022C3C
:1013400001D1103000E014301AB107682F43076054
:1013500002E00768AF430760F0BD00002DE9FF47DA
:1013600005460E460024A14600BFA046B08900B144
:1013700000BF2C8A24F44054F08804432C82AC89AA
:1013800041F20C608443B088318908437189084375
:101390000443AC81AC8A24F44074B0890443AC8229
:1013A0006846FFF703FA2048854202D01F4885426D
:1013B00002D1DDF80C9001E0DDF80890A88900F476
:1013C000004040B109EBC90000EB09103168490049
:1013D000B0FBF1F707E009EBC90000EB0910316839
:1013E0008900B0FBF1F76420B7FBF0F0040120099D
:1013F000642101FB1078A88900F4004040B132203C
:1014000000EBC800B0FBF1F000F00700044308E077
:10141000322000EB08106421B0FBF1F000F00F0067
:1014200004432C81BDE8FF870010014000140140F7
:1014300008B54FF4C060FFF75DF925208DF8000076
:1014400001208DF801008DF802008DF80300684638
:10145000FFF714F908BD01468888C0F308007047FB
:1014600000BFFEE700BF704700BF054A128802F0C8
:101470004002002AF9D0C2B2014B9A8070470000A6
:101480000010014000241C4EFFF77EFAFFF7C8FE53
:10149000FFF7B0F8FFF722FBFFF7D0FB2BE0FFF7D9
:1014A000C1F808B1601CC4B2204604EBD0714910E9
:1014B000A4EB410151B14FF4FA711048FFF717FE48
:1014C0004FF448710D48FFF714FE07E000210B4868
:1014D000FFF70DFE00210948FFF70BFE0848FFF754
:1014E000B8FC85B2294607A0FEF7C4FE00E0761ED0
:1014F000002EFCD1054ED2E740420F000004004010
:101500000008004025640D0A00000000A0860100CC
:101510004FF04070E1EE100A704700003C150008E3
:101520000000002034000000C4010008701500080D
:10153000340000202C080000E0010008007A030AB3
:101540000000000000000000010203040607080973
:10155000000000000000000000000000000000008B
:101560000000000001020304010203040607080949
:040000050800018965
:00000001FF
