:020000040800F2
:100000009006002029020008690A00086F05000810
:10001000650A00088F030008B31D000800000000F7
:10002000000000000000000000000000E90D0008D2
:100030009303000800000000F90A00086F0F000891
:10004000430200084302000843020008430200087C
:10005000430200084302000843020008430200086C
:10006000430200084302000843020008430200085C
:10007000430200084302000843020008430200084C
:10008000430200084302000843020008430200083C
:10009000430200084302000843020008430200082C
:1000A000430200084302000843020008430200081C
:1000B000430200084302000843020008430200080C
:1000C00043020008430200084302000843020008FC
:1000D00043020008430200084302000843020008EC
:1000E00043020008430200084302000843020008DC
:1000F00043020008430200084302000843020008CC
:1001000043020008430200084302000843020008BB
:10011000430200084302000843020008BD1400081F
:10012000430200084302000843020008430200089B
:10013000430200084302000843020008430200088B
:10014000430200084302000843020008430200087B
:10015000430200084302000843020008430200086B
:10016000430200084302000843020008430200085B
:10017000430200084302000843020008430200084B
:10018000430200084302000800F002F800F03CF8C7
:100190000AA090E8000C82448344AAF10107DA45E2
:1001A00001D100F031F8AFF2090EBAE80F0013F0F8
:1001B000010F18BFFB1A43F001031847E01C0000B1
:1001C000001D0000103A24BF78C878C1FAD8520741
:1001D00024BF30C830C144BF04680C6070470000C1
:1001E0000023002400250026103A28BF78C1FBD840
:1001F000520728BF30C148BF0B6070471FB501F0E0
:100200003FFE1FBD10B510BD00F033F81146FFF7DB
:10021000F5FF01F0D3FD00F051F803B4FFF7F2FF52
:1002200003BC01F0C8FD00000948804709480047A9
:10023000FEE7FEE7FEE7FEE7FEE7FEE7FEE7FEE796
:10024000FEE7FEE704480549054A064B70470000F3
:10025000E10F0008890100089000002090060020AE
:10026000900200209002002070477047704770474E
:100270007047754600F02CF8AE46050069465346B7
:1002800020F00700854618B020B5FFF7DBFFBDE87A
:1002900020404FF000064FF000074FF000084FF0ED
:1002A000000B21F00701AC46ACE8C009ACE8C0097E
:1002B000ACE8C009ACE8C0098D46704710B50446EB
:1002C000AFF300802046BDE81040FFF7A6BF000056
:1002D00000487047300000201FB500F045F800F0DE
:1002E0001FF80121880400F0CBFC4FF4E1300090AE
:1002F0000020ADF80400ADF80600ADF80800ADF838
:100300000C000C20ADF80A006946044801F0D0FC4E
:100310000121024801F078FC1FBD000000480040A8
:100320001CB50121022000F09BFC07220A210D4888
:1003300000F0FAF807220B210A4800F0F5F84FF414
:100340004060009002208DF804008DF80500002028
:100350008DF8060001208DF807006946014800F07D
:100360009BF81CBD0004024008B54FF4806000F00B
:10037000B9FB27208DF8000001208DF801008DF8D1
:1003800002008DF80300684600F070FB08BD00BF56
:10039000FEE7704710B501F0A9F801F0D1F810BDE3
:1003A00010B500F0E5FF01F00FF810BD10B500F03A
:1003B000A1FE00F0D1FE10BD10B500F045FE00F02A
:1003C0006FFE10BD10B500F0F1FE00F05BFF10BD38
:1003D00010B501F023F801F04BF810BD70B50546DB
:1003E000072D3DD2DFE805F03C040D16212A33002D
:1003F0001D4801F00EFA04B200211B4801F071FB08
:100400002FE01A4801F005FA04B20021174801F064
:1004100068FB26E04FF0804001F0FBF904B20021B8
:100420004FF0804001F05DFB1BE0114801F0F1F955
:1004300004B200210E4801F054FB12E00D4801F017
:10044000E8F904B200210B4801F04BFB09E00A482F
:1004500001F0DFF904B20021074801F042FB00E09F
:1004600000BF00BF204670BD0004014000080040EE
:100470000000014000040040000C004010B5FFF7F0
:1004800089FFFFF78DFFFFF791FFFFF795FFFFF75C
:1004900099FFFFF79DFF10BDF0B50A46002100232C
:1004A000002400BF3DE0012505FA01F3156805EAC7
:1004B00003049C4234D105684F000326BE40B54377
:1004C000056015794E00B54006683543056015791D
:1004D000012D02D01579022D16D185684F00032613
:1004E000BE40B543856055794E00B54086683543BA
:1004F0008560456801268E40B5434560456896791C
:100500008E40B6B235434560C5684F000326BE40F5
:10051000B543C560D5794E00B540C6683543C56062
:10052000491C1029BFD3F0BDF0B5002300244D07AE
:10053000ED0E02FA05F3CE1000F1200555F8265015
:100540004E07F70E0F26BE40B543CF1000F1200630
:1005500046F82750CE1000F1200555F8265045EA00
:100560000304CE1000F1200545F82640F0BD00BF81
:10057000FEE730B50568846D631B002B01DB1C466C
:1005800000E05C42192C04DD0B782BB900231370BA
:1005900002E0012313700B7030BD2DE9FC4781464A
:1005A0000C4615461E46DDE90A7809F1440000F0C4
:1005B000A4FA04F1440000F0A0FA05F1440000F0B0
:1005C0009CFA06F1440000F098FA07F1440000F0AC
:1005D00094FA08F1440000F090FA99ED1D0ABDEE7E
:1005E000C00A89ED090A94ED1D0ABDEEC00A84ED2A
:1005F000090A95ED1D0ABDEEC00A85ED090A96EDC2
:100600001D0ABDEEC00A86ED090A97ED1D0ABDEE72
:10061000C00A87ED090A98ED1D0ABDEEC00A88EDF3
:10062000090A33462A4621464846CDE9007800F0BB
:10063000F9F8BDE8FC872DE9FC4781460C461546D4
:100640001E46DDE90A78484600F0F6F9204600F03B
:10065000F3F9284600F0F0F9304600F0EDF938469D
:1006600000F0EAF9404600F0E7F933462A46214611
:100670004846CDE90078FFF790FFBDE8FC87000011
:100680002DE9F04704460D4616461F46DDE9088968
:100690000120207302202873032030730420387354
:1006A000052088F80C00062089F80C004FF47A73B6
:1006B00041F2680200219FED551AF1EE040A9FED08
:1006C000540A04F1100000F0A7FA4FF47A731A46A6
:1006D0000A219FED4E1ADFED4D0A9FED4E0A04F1FF
:1006E000440000F099FA4FF47A7341F26802002155
:1006F0009FED461AF1EE040A9FED450A05F1100040
:1007000000F08AFA4FF47A731A460A219FED3F1AD5
:10071000DFED3E0A9FED3F0A05F1440000F07CFA50
:100720004FF47A7341F2680200219FED381AF1EE1E
:10073000040A9FED370A06F1100000F06DFA4FF43D
:100740007A731A460A219FED311ADFED300A9FEDC8
:10075000310A06F1440000F05FFA4FF47A7341F277
:1007600068020021B7EE001AF0EE080A9FED2A0A8F
:1007700007F1100000F050FA4FF47A731A460F2177
:100780009FED221ADFED210A9FED220A07F14400B6
:1007900000F042FA4FF47A7341F2680200219FEDB3
:1007A0001B1AF1EE040A9FED1D0A08F1100000F07B
:1007B00033FA4FF47A7328220A219FED141ADFEDE1
:1007C000130A9FED140A08F1440000F025FA4FF4D3
:1007D0007A7341F2680200219FED0C1AF1EE040ACF
:1007E0009FED0F0A09F1100000F016FA4FF47A732A
:1007F0001A460A219FED051ADFED040A9FED050A4E
:1008000009F1440000F008FABDE8F087000000009C
:1008100000800944CDCCCC3D0000FA4300001644D2
:1008200000C00F442DE9F04704460D4616461F460A
:10083000DDE9088904F1100000F05FF905F110000E
:1008400000F05BF906F1100000F057F907F1100015
:1008500000F053F908F1100000F04FF909F1100011
:1008600000F04BF994ED100A84ED020A95ED100AA0
:1008700085ED020A96ED100A86ED020A97ED100A40
:1008800087ED020A98ED100A88ED020A99ED100A28
:1008900089ED020A94ED020ADFED500AB4EEE00A97
:1008A000F1EE10FA04DD9FED4D0A84ED020A0CE032
:1008B00094ED020ADFED4A0AB4EEE00AF1EE10FA16
:1008C00003D29FED470A84ED020A95ED020ADFED9F
:1008D000430AB4EEE00AF1EE10FA04DD9FED3F0AA0
:1008E00085ED020A0CE095ED020ADFED3D0AB4EE5B
:1008F000E00AF1EE10FA03D29FED390A85ED020A03
:1009000096ED020ADFED350AB4EEE00AF1EE10FAD8
:1009100004DD9FED320A86ED020A0CE096ED020A34
:10092000DFED2F0AB4EEE00AF1EE10FA03D29FEDEC
:100930002C0A86ED020A97ED020ADFED280AB4EED2
:10094000E00AF1EE10FA04DD9FED240A87ED020AB9
:100950000CE097ED020ADFED220AB4EEE00AF1EEB8
:1009600010FA03D29FED1E0A87ED020A98ED020AE3
:10097000DFED1A0AB4EEE00AF1EE10FA04DD9FEDA5
:10098000170A88ED020A0CE098ED020ADFED140A5E
:10099000B4EEE00AF1EE10FA03D29FED110A88EDF1
:1009A000020A99ED020ADFED0D0AB4EEE00AF1EE5B
:1009B00010FA04DD9FED090A89ED020A0CE099EDB9
:1009C000020ADFED070AB4EEE00AF1EE10FA03D2F4
:1009D0009FED030A89ED020ABDE8F08700408345D8
:1009E000004083C52DE9FC4781460C4615461E464E
:1009F000DDE90A78484600F01FF8204600F01CF8B0
:100A0000284600F019F8304600F016F8384600F095
:100A100013F8404600F010F833462A46214648466F
:100A2000CDE90078FFF7FEFEBDE8FC8710B500F0C9
:100A3000E7FB00F051FC10BD70B50446207BFFF7CA
:100A4000CDFC054620682844206041F2846120687E
:100A500090FBF1F201FB120000B2A0802168E16579
:100A6000A56270BD00BFFEE77047000070B50021B1
:100A700000230F22C4781CB3174C246804F4E064EC
:100A8000C4F5E064C4F30721C1F10404E3B20A41F0
:100A900044789C40E1B28478144021430C07210E35
:100AA0000E4C05786155047804F01F050124AC4014
:100AB00005786D11AD0005F1E025C5F8004109E0AC
:100AC000047804F01F050124AC40054D067876112A
:100AD00045F8264070BD00000CED00E000E400E0A9
:100AE00080E100E002490143024A116070470000C2
:100AF0000000FA050CED00E07047818A028B891A2C
:100B000009B28183B0F91C10002901DB0A4600E01C
:100B10004A42B0F90C309A4202DA00218183018402
:100B2000D0ED000AB0F91C1000EE101AB8EEC00AA1
:100B300020EE800A80ED090AD0ED010AB0F92010FC
:100B400000EE101AB8EEC00A20EE800A80ED0A0A04
:100B5000B0F91C10B0F91E20891A00EE101AB8EE78
:100B6000C00AD0ED020A20EE200A80ED0B0A90EDBB
:100B7000090AD0ED0A0A30EE200AD0ED0B0A30EE59
:100B8000200A80ED0C0AD0ED0C0AB0F90E1000EE30
:100B9000101AB8EEC00AF4EEC00AF1EE10FA08DD41
:100BA000B0F90E1000EE101AB8EEC00A80ED0C0A73
:100BB00016E0D0ED0C0AB0F90E10494200EE101A02
:100BC000B8EEC00AF4EEC00AF1EE10FA08D2B0F99D
:100BD0000E10494200EE101AB8EEC00A80ED0C0A61
:100BE000018C828B114409B20184B0F92010B0F954
:100BF0001020914202DD018A01840AE0B0F9201040
:100C0000B0F910205242914203DA018A494209B2F6
:100C10000184818BC183704710B580ED000AC0ED5F
:100C2000010A80ED021A8181C2810382002444619D
:100C300084618483C4830484DFED081AC0ED091A3B
:100C4000DFED061AC0ED0A1ADFED041AC0ED0B1A2B
:100C5000DFED021AC0ED0C1A10BD0000000000000C
:100C600029B1064A12680243044B1A6004E0034AA1
:100C700012688243014B1A6070470000303802400E
:100C800029B1064A12680243044B1A6004E0034A81
:100C900012688243014B1A607047000040380240DE
:100CA00029B1064A12680243044B1A6004E0034A61
:100CB00012688243014B1A607047000020380240DE
:100CC00029B1064A12680243044B1A6004E0034A41
:100CD00012688243014B1A6070470000443802409A
:100CE00029B1064A12680243044B1A6004E0034A21
:100CF00012688243014B1A6070470000243802409A
:100D0000F0B5002100220024022500260223324FE4
:100D10003F6807F00C0121B1042905D0082937D11B
:100D200005E02E4F076036E02D4F076033E02A4F75
:100D30003F1F3F68C7F38056274F3F1F3F6807F0AC
:100D40003F036EB1264FB7FBF3F7DFF88CC0ACF171
:100D5000040CDCF800C0CCF3881C07FB0CF40CE09E
:100D60001E4FB7FBF3F7DFF870C0ACF1040CDCF8F2
:100D700000C0CCF3881C07FB0CF4174F3F1F3F68E3
:100D8000C7F301477F1C7D00B4FBF5F7076002E065
:100D9000124F076000BF00BF0F4F3F6807F0F00120
:100DA0000909104F7A5C0768D74047600A4F3F68CF
:100DB00007F4E051890A0B4F7A5C4768D740876097
:100DC000054F3F6807F46041490B064F7A5C47685E
:100DD000D740C760F0BD0000083802400024F4008E
:100DE00000127A0020000020704700000CB500209F
:100DF000019000903448006840F480303249086027
:100E000000BF3148006800F4003000900198401C99
:100E10000190009818B90198B0F5A04FF1D12A4877
:100E2000006800F4003010B10120009001E00020C3
:100E300000900098012846D123484030006840F0D7
:100E400080502149403108602048006840F440400B
:100E50001E4908601C48083000681B4908310860BA
:100E60000846006840F4004008600846006840F406
:100E7000A05008601648091F0860081F006840F06D
:100E80008070091F086000BF0F48006800F0007004
:100E90000028F9D040F205700E4908600A48083071
:100EA000006820F00300084908310860084600681F
:100EB00040F00200086000BF03480830006800F0FE
:100EC0000C000828F8D10CBD00380240007000402A
:100ED00008544007003C02402DE9F05F04460E46EE
:100EE00017469846DDE90BABDDF8289097ED020A2E
:100EF000BDEEC00A10EE100A00B2208098ED020A82
:100F0000BDEEC00A10EE100A00B2608099ED020A30
:100F1000BDEEC00A10EE100A00B2A0809AED020ADF
:100F2000BDEEC00A10EE100A00B2E0809BED020A8E
:100F3000BDEEC00A10EE100A00B220810D9890EDAF
:100F4000020ABDEEC00A10EE100A00B2608101254F
:100F500005E0681E34F8100026F815006D1C072DFA
:100F6000F7DB3146082000F00DFEBDE8F09F10B51C
:100F700000F0FCFD10BD000030B5164800684FF4CD
:100F80007A72B0FBF2F1481EB0F1807F01D30120EC
:100F90001BE0481E4FF0E022506150170F2200283E
:100FA00007DA13071D0E0C4B00F00F04241F1D550C
:100FB00003E013071C0E094B1C5400BF00204FF028
:100FC000E022906107201061002008B100BFFEE719
:100FD00030BD00000400002018ED00E000E400E057
:100FE00010B51548006840F47000134908601348B4
:100FF000006840F001001149086000200F490831E5
:1010000008600E4800680E4908400C4908600D4809
:10101000091D0860081F006820F48020091F08606F
:10102000002006490C310860FFF7E0FE4FF0006039
:1010300001498039086010BD88ED00E000380240A9
:10104000FFFFF6FE103000241CB501211020FFF731
:1010500007FE012209211148FFF766FA4FF40070DC
:10106000009002208DF8040003208DF80500002078
:101070008DF8060001208DF8070069460748FFF744
:101080000BFA01220B210548FFF74EFA4FF40060DE
:10109000009069460148FFF7FFF91CBD00100240AF
:1010A0000EB501210846FFF70BFE114800F0C8FA03
:1010B0000020ADF800001020ADF802004FF6FF70E0
:1010C00001900020ADF808006946094800F00CFDC9
:1010D00002231A460321064800F07AFB0021044847
:1010E00000F0FFFC0121024800F09EFA0EBD000056
:1010F000000001401CB501210220FFF7B1FD0121D4
:101100000846FFF7ADFD01220F211148FFF70CFA49
:101110004FF40040009002208DF8040003208DF869
:10112000050000208DF8060001208DF807006946B3
:101130000748FFF7B1F9012203210648FFF7F4F948
:101140000820009069460348FFF7A6F91CBD00007F
:1011500000000240000402400EB501210846FFF7DE
:101160008FFD4FF0804000F06BFA0020ADF80000DA
:101170001020ADF802004FF6FF7001900020ADF88E
:10118000080069464FF0804000F0AEFC02231A468A
:101190000321580700F01CFB00214FF0804000F0B5
:1011A000A0FC0121880700F03FFA0EBD1CB501210B
:1011B0000846FFF755FD022206211048FFF7B4F953
:1011C0004020009002208DF8040003208DF80500D7
:1011D00000208DF8060001208DF8070069460748B9
:1011E000FFF75AF9022207210448FFF79DF98020F2
:1011F000009069460148FFF74FF91CBD000002400E
:101200001CB501210320FFF72BFD022206211B48FC
:10121000FFF78AF94020009002208DF80400032097
:101220008DF8050000208DF8060001208DF80700DC
:1012300069461248FFF730F9022207210F48FFF7ED
:1012400073F98020009069460C48FFF725F90222C7
:1012500000210B48FFF768F9012000906946084813
:10126000FFF71AF9022201210548FFF75DF9022074
:10127000009069460248FFF70FF91CBD00000240CC
:10128000000402400EB501210220FFF7F9FC1148CD
:1012900000F0D6F90020ADF800001020ADF80200F3
:1012A0004FF6FF7001900020ADF80800694609482C
:1012B00000F01AFC022300220321064800F088FAFD
:1012C0000021044800F00DFC0121024800F0ACF9B7
:1012D0000EBD00000004004000B589B001210220CD
:1012E000FFF7CEFC0020ADF81800ADF81A0041F26F
:1012F000670007900020ADF8200006A91B4800F009
:10130000F3FB6020ADF804000120ADF806000020DA
:101310000390ADF8100001A9144800F097FA01A954
:10132000124800F0DBFA01A9104800F037FB01A9D0
:101330000E4800F08DFB08210C4800F0C5FA08218A
:101340000A4800F01DFB0821084800F077FB08213F
:10135000064800F0B9FB0121044800F056F90121CC
:10136000024800F061F909B000BD0000000400402F
:101370001CB501210820FFF773FC02220C21114843
:10138000FFF7D2F84FF48050009002208DF804004F
:1013900003208DF8050000208DF8060001208DF84F
:1013A000070069460748FFF777F802220D21054834
:1013B000FFF7BAF84FF40050009069460148FFF774
:1013C0006BF81CBD000C02400EB501210420FFF794
:1013D00057FC114800F034F90020ADF8000010204F
:1013E000ADF802004FF6FF7001900020ADF8080044
:1013F0006946094800F078FB02231A460321064893
:1014000000F0E6F90021044800F06BFB01210248DE
:1014100000F00AF90EBD0000000800401CB50121D3
:101420000846FFF71DFC022200211048FFF77CF858
:101430000120009002208DF8040003208DF80500A3
:1014400000208DF8060001208DF807006946074846
:10145000FFF722F8022201210448FFF765F8022075
:10146000009069460148FFF717F81CBD00000240D4
:101470000EB501210820FFF703FC0020ADF80000A5
:101480001020ADF802004FF6FF7001900020ADF87B
:1014900008006946084800F027FB022300220321C8
:1014A000054800F095F90021034800F01AFB0121DE
:1014B000014800F0B9F80EBD000C004010B5012144
:1014C000084800F0A9F958B10748008820B106483B
:1014D0000088401E044908800121024800F0A1F85C
:1014E00010BD000000140040000000201CB50121C8
:1014F0000420FFF7B5FB032206211048FFF714F87C
:101500004020009002208DF8040003208DF8050093
:1015100000208DF8060001208DF807006946074875
:10152000FEF7BAFF032207210448FEF7FDFF8020E3
:10153000009069460148FEF7AFFF1CBD000802405D
:101540000EB501210220FFF7BBFB114800F078F82F
:101550000020ADF800001020ADF802004FF6FF703B
:1015600001900020ADF808006946094800F0BCFA77
:1015700002231A460321064800F02AF900210448F4
:1015800000F0AFFA0121024800F04EF80EBD000055
:10159000000401400EB501212020FFF771FB00F08F
:1015A0001FF80E4800F04CF85320ADF80000002062
:1015B000ADF802004FF47A7001900020ADF80800F9
:1015C0006946064800F090FA01221146034800F0EF
:1015D00034F90121014800F027F80EBD0014004045
:1015E00008B54FF4C060FFF77DFA37208DF8000092
:1015F00001208DF8010003208DF8020001208DF8F4
:1016000003006846FFF732FA08BD21B1028842F0B4
:101610008002028004E002884FF67F731A40028045
:101620007047CA430282704721B1028842F001022A
:10163000028004E002884FF6FE731A400280704771
:1016400010B504465548844208D101210846FFF7E9
:1016500047FB00210120FFF743FB9DE0B4F1804FE1
:1016600008D101210846FFF71BFB00210120FFF7ED
:1016700017FB91E04A48844208D101210220FFF77C
:101680000FFB00210220FFF70BFB85E04548844259
:1016900008D101210420FFF703FB00210420FFF7FC
:1016A000FFFA79E04048844208D101210820FFF781
:1016B000F7FA00210820FFF7F3FA6DE03B48844277
:1016C00008D101211020FFF7EBFA00211020FFF7CD
:1016D000E7FA61E03648844208D101212020FFF773
:1016E000DFFA00212020FFF7DBFA55E03148844281
:1016F00008D101210220FFF7F3FA00210220FFF7B1
:10170000EFFA49E02C48844209D101210804FFF78F
:10171000E7FA00214FF48030FFF7E2FA3CE0274877
:10172000844209D101214804FFF7DAFA00214FF47D
:101730000030FFF7D5FA2FE02148844209D101217A
:101740008804FFF7CDFA00214FF48020FFF7C8FA94
:1017500022E01C48844208D101214020FFF7A0FA72
:1017600000214020FFF79CFA16E01748844208D178
:1017700001218020FFF794FA00218020FFF790FAE2
:101780000AE01248844207D101218015FFF788FA48
:101790000021A015FFF784FA10BD000000000140F1
:1017A0000004004000080040000C00400010004011
:1017B000001400400004014000400140004401408A
:1017C0000048014000180040001C0040002000407C
:1017D000F0B50C4615461E46002100220023018963
:1017E000028B038C4FF6F877394021434FF6FC47C4
:1017F0003A4040F201173A434FF6DD773B404FF64F
:10180000FF7707EA06172F433B43018102830384D6
:10181000F0BD0146486A704730B5024600200023FB
:101820000024158A05EA0103958905EA010413B12C
:101830000CB1012000E0002030BD1AB183890B43B8
:10184000838102E083898B438381704770B50024D4
:1018500000220023058C4FF6FE7635400584028C6D
:101860008388048B4FF68F752C40B51E2C400D8855
:101870002C43751E2A408D892A434D882A43104DDA
:10188000A84202D00F4DA84213D14FF6F7752A4057
:10189000CD892A434FF6FB752A408D882A434FF69F
:1018A000FF652B404FF6FF552B400D8A2B434D8A89
:1018B0002B43838004838D684563028470BD0000E0
:1018C00000000140000401400A460021018B4FF650
:1018D000F7731940114301837047000070B500246D
:1018E00000220023058C4FF6EF7635400584028CEC
:1018F0008388048B48F6FF752C404FF6FF452C403B
:101900000D884FF6FF7606EA05252C434FF6DF7566
:101910002A408D8906EA05152A434D8806EA0515F1
:101920002A43154DA84202D0144DA8421DD14FF6AE
:101930007F752A40CD894FF6FF7606EA05152A43C2
:101940004FF6BF752A408D8806EA05152A434FF6E3
:10195000FF352B404FF2FF752B400D8A06EA8505B7
:101960002B434D8A06EA85052B43838004838D68CB
:101970008563028470BD0000000001400004014046
:101980000A460021018B4FF2FF7319404FF6FF7397
:1019900003EA0223194301837047000070B5002455
:1019A00000220023058C4FF6FF6635400584028C2B
:1019B0008388848B4FF68F752C404FF6FC752C4036
:1019C0000D882C434FF6FF552A408D894FF6FF7640
:1019D00006EA05252A434D8806EA05252A43154DC2
:1019E000A84202D0144DA8421DD14FF2FF752A40E3
:1019F000CD894FF6FF7606EA05252A434FF6FF35D7
:101A00002A408D8806EA05252A434EF6FF752B40AD
:101A10004DF6FF752B400D8A06EA05152B434D8ABE
:101A200006EA05152B43838084838D68C563028491
:101A300070BD000000000140000401400A46002182
:101A4000818B4FF6F7731940114381837047000073
:101A500070B5002200230024058C4EF6FF76354039
:101A60000584038C8488828B48F6FF752A404FF6E4
:101A7000FF452A400D884FF6FF7606EA05252A43E2
:101A80004DF6FF752B408D8906EA05352B434D88B1
:101A900006EA05352B430A4DA84202D0094DA8425B
:101AA00008D14BF6FF752C400D8A4FF6FF7606EAFB
:101AB00085152C43848082838D680564038470BD02
:101AC00000000140000401400A460021818B4FF2D2
:101AD000FF7319404FF6FF7303EA02231943818312
:101AE000704741627047000000220288184B9842FC
:101AF0000ED0184B98420BD0B0F1804F08D0164B47
:101B0000984205D0154B984202D0154B984204D10B
:101B10004FF68F731A404B881A43124B984207D0E6
:101B2000114B984204D04FF6FF431A400B891A43D9
:101B300002804B68C3620B880385054B984202D034
:101B4000044B984201D18B7A03860123838270472C
:101B50000000014000040140000400400008004073
:101B6000000C0040001000400014004004480068D1
:101B700020B103480068401E01490860704700001A
:101B80001800002070B506460D46002435F81400F4
:101B900081B21C4800F009F900BF1A48008800F023
:101BA00040000028F9D001241BE015F81410154856
:101BB00000F0FBF800BF1348008800F04000002848
:101BC000F9D035F81400C0F307210E4800F0EDF805
:101BD00000BF0C48008800F040000028F9D0601CCD
:101BE000C4B2701EA042E0DC35F8140081B2054892
:101BF00000F0DBF800BF0348008800F04000002838
:101C0000F9D070BD0010014021B1828942F4005228
:101C1000828104E082894DF6FF731A408281704709
:101C20001FB500F021F800F0ADF801211020FFF7FA
:101C300047F84FF4E13000900020ADF80400ADF813
:101C40000600ADF80800ADF80C000C20ADF80A0055
:101C50006946044800F02CF801210248FFF7D4FF40
:101C60001FBD0000001001401CB501210846FEF711
:101C7000F7FF072209210D48FEF756FC07220A212B
:101C80000A48FEF751FC4FF4C060009002208DF826
:101C900004008DF8050000208DF8060001208DF865
:101CA000070069460148FEF7F7FB1CBD0000024033
:101CB0002DE9FF4705460E460024A14600BFA04679
:101CC000B08900B100BF2C8A24F44054F08804434A
:101CD0002C82AC8941F20C608443B088318908437E
:101CE000718908430443AC81AC8A24F44074B08900
:101CF0000443AC826846FFF703F82048854202D0CF
:101D00001F48854202D1DDF80C9001E0DDF8089013
:101D1000A88900F4004040B109EBC90000EB0910AC
:101D200031684900B0FBF1F707E009EBC90000EBAF
:101D3000091031688900B0FBF1F76420B7FBF0F0BF
:101D400004012009642101FB1078A88900F40040F7
:101D500040B1322000EBC800B0FBF1F000F007000A
:101D6000044308E0322000EB08106421B0FBF1F0DE
:101D700000F00F0004432C81BDE8FF8700100140F4
:101D80000014014008B54FF4C060FEF7ABFE2520FB
:101D90008DF8000001208DF801008DF802008DF80B
:101DA00003006846FEF762FE08BDC1F308028280A8
:101DB000704700BFFEE700BF70470000ADF5427DF1
:101DC00000BF00200D900A900B900C902A4B0FCB77
:101DD000CDE90823CDE90601FFF7CEF8FFF720FF94
:101DE000FEF77AFAFFF7D6FBFEF720FEFEF746FB7A
:101DF0000EA82CA94AAB68AACDE9001086A9A4A810
:101E0000FEF73EFC4FF4207186A8816533E01B4845
:101E1000008880BB05201949088005AA0DA986A85D
:101E2000FEF7A7FB9DF8140068B9032186A841625C
:101E30000EA82CA94AAB68AACDE9001086A9A4A8CF
:101E4000FEF7D0FD09E00EA82CA94AAB68AACDE99F
:101E5000001086A9A4A8FEF7EEFB0EA82CA94AAA9A
:101E600068ABCDE90032CDE9021086ABA4AA06A981
:101E70000AA8FFF731F8CAE78C1E0008000000200E
:101E80004FF04070E1EE100A704700005000000073
:101E9000000000000000000000004500BC1E00081B
:101EA0000000002030000000C4010008EC1E000803
:101EB0003000002060060000E0010008050000007E
:101EC000007A030A00000000000000000102030481
:101ED00006070809000000000000000000000000E4
:0C1EE000010203040102030406070809C4
:040000050800018965
:00000001FF
